{"abi":[{"type":"constructor","inputs":[],"stateMutability":"nonpayable"},{"type":"function","name":"get","inputs":[],"outputs":[{"name":"","type":"string","internalType":"string"}],"stateMutability":"view"},{"type":"function","name":"setMessage","inputs":[{"name":"_message","type":"string","internalType":"string"}],"outputs":[{"name":"","type":"string","internalType":"string"}],"stateMutability":"nonpayable"}],"bytecode":{"object":"0x6080604052348015600e575f5ffd5b50335f5f6101000a81548173ffffffffffffffffffffffffffffffffffffffff021916908373ffffffffffffffffffffffffffffffffffffffff1602179055506106968061005b5f395ff3fe608060405234801561000f575f5ffd5b5060043610610034575f3560e01c8063368b8772146100385780636d4ce63c14610068575b5f5ffd5b610052600480360381019061004d919061027b565b610086565b60405161005f9190610336565b60405180910390f35b610070610182565b60405161007d9190610336565b60405180910390f35b60605f5f9054906101000a900473ffffffffffffffffffffffffffffffffffffffff1673ffffffffffffffffffffffffffffffffffffffff163373ffffffffffffffffffffffffffffffffffffffff16146100df575f5ffd5b8282600191826100f0929190610593565b50600180546100fe906103ba565b80601f016020809104026020016040519081016040528092919081815260200182805461012a906103ba565b80156101755780601f1061014c57610100808354040283529160200191610175565b820191905f5260205f20905b81548152906001019060200180831161015857829003601f168201915b5050505050905092915050565b606060018054610191906103ba565b80601f01602080910402602001604051908101604052809291908181526020018280546101bd906103ba565b80156102085780601f106101df57610100808354040283529160200191610208565b820191905f5260205f20905b8154815290600101906020018083116101eb57829003601f168201915b5050505050905090565b5f5ffd5b5f5ffd5b5f5ffd5b5f5ffd5b5f5ffd5b5f5f83601f84011261023b5761023a61021a565b5b8235905067ffffffffffffffff8111156102585761025761021e565b5b60208301915083600182028301111561027457610273610222565b5b9250929050565b5f5f6020838503121561029157610290610212565b5b5f83013567ffffffffffffffff8111156102ae576102ad610216565b5b6102ba85828601610226565b92509250509250929050565b5f81519050919050565b5f82825260208201905092915050565b8281835e5f83830152505050565b5f601f19601f8301169050919050565b5f610308826102c6565b61031281856102d0565b93506103228185602086016102e0565b61032b816102ee565b840191505092915050565b5f6020820190508181035f83015261034e81846102fe565b905092915050565b5f82905092915050565b7f4e487b71000000000000000000000000000000000000000000000000000000005f52604160045260245ffd5b7f4e487b71000000000000000000000000000000000000000000000000000000005f52602260045260245ffd5b5f60028204905060018216806103d157607f821691505b6020821081036103e4576103e361038d565b5b50919050565b5f819050815f5260205f209050919050565b5f6020601f8301049050919050565b5f82821b905092915050565b5f600883026104467fffffffffffffffffffffffffffffffffffffffffffffffffffffffffffffffff8261040b565b610450868361040b565b95508019841693508086168417925050509392505050565b5f819050919050565b5f819050919050565b5f61049461048f61048a84610468565b610471565b610468565b9050919050565b5f819050919050565b6104ad8361047a565b6104c16104b98261049b565b848454610417565b825550505050565b5f5f905090565b6104d86104c9565b6104e38184846104a4565b505050565b5b81811015610506576104fb5f826104d0565b6001810190506104e9565b5050565b601f82111561054b5761051c816103ea565b610525846103fc565b81016020851015610534578190505b610548610540856103fc565b8301826104e8565b50505b505050565b5f82821c905092915050565b5f61056b5f1984600802610550565b1980831691505092915050565b5f610583838361055c565b9150826002028217905092915050565b61059d8383610356565b67ffffffffffffffff8111156105b6576105b5610360565b5b6105c082546103ba565b6105cb82828561050a565b5f601f8311600181146105f8575f84156105e6578287013590505b6105f08582610578565b865550610657565b601f198416610606866103ea565b5f5b8281101561062d57848901358255600182019150602085019450602081019050610608565b8683101561064a5784890135610646601f89168261055c565b8355505b6001600288020188555050505b5050505050505056fea26469706673582212200dcffc0d1ff86cdf6225f2052d4fcee79f78b497918037df0cd147f558abdd2964736f6c634300081c0033","linkReferences":{}},"methodIdentifiers":{"get()":"6d4ce63c","setMessage(string)":"368b8772"},"id":19}