{
    "contractName": "FunctionInfo",
    "abi": [
        {
            "inputs": [
                {
                    "internalType": "uint256",
                    "name": "x",
                    "type": "uint256"
                },
                {
                    "internalType": "uint256",
                    "name": "y",
                    "type": "uint256"
                }
            ],
            "name": "add",
            "outputs": [
                {
                    "internalType": "uint256",
                    "name": "",
                    "type": "uint256"
                }
            ],
            "stateMutability": "pure",
            "type": "function"
        },
        {
            "inputs": [
                {
                    "internalType": "uint256",
                    "name": "x",
                    "type": "uint256"
                },
                {
                    "internalType": "uint256",
                    "name": "y",
                    "type": "uint256"
                }
            ],
            "name": "sub",
            "outputs": [
                {
                    "internalType": "uint256",
                    "name": "",
                    "type": "uint256"
                }
            ],
            "stateMutability": "pure",
            "type": "function"
        }
    ],
    "bytecode": "6080806040523460135760cc908160188239f35b5f80fdfe60808060405260043610156011575f80fd5b5f3560e01c908163771602f7146065575063b67d77c514602f575f80fd5b34606157603a366081565b8103908111604d57602090604051908152f35b634e487b7160e01b5f52601160045260245ffd5b5f80fd5b346061576070366081565b81929101809211604d576020918152f35b6040906003190112606157600435906024359056fea2646970667358221220a11e6336133b240045f69b9a652533d652e26eebdb2c8f8588a2f3ca09f4f22764736f6c634300081a0033",
    "sourcePath": "/home/nipun/Documents/prepration/defi/smart_contract_engineer/solidity_function.sol",
    "compiler": {
        "name": "solc",
        "version": "0.8.26+commit.8a97fa7a"
    },
    "functionHashes": {
        "add(uint256,uint256)": "771602f7",
        "sub(uint256,uint256)": "b67d77c5"
    },
    "gasEstimates": {
        "creation": {
            "codeDepositCost": "40800",
            "executionCost": "99",
            "totalCost": "40899"
        },
        "external": {
            "add(uint256,uint256)": "236",
            "sub(uint256,uint256)": "251"
        }
    }
}