{
    "contractName": "Variables",
    "abi": [
        {
            "inputs": [],
            "name": "doSomething",
            "outputs": [],
            "stateMutability": "view",
            "type": "function"
        },
        {
            "inputs": [],
            "name": "num",
            "outputs": [
                {
                    "internalType": "uint256",
                    "name": "",
                    "type": "uint256"
                }
            ],
            "stateMutability": "view",
            "type": "function"
        },
        {
            "inputs": [],
            "name": "text",
            "outputs": [
                {
                    "internalType": "string",
                    "name": "",
                    "type": "string"
                }
            ],
            "stateMutability": "view",
            "type": "function"
        }
    ],
    "bytecode": "6080806040523460a9575f54600181811c9116801560a0575b6020821014608c57601f81116048575b50600a6448656c6c6f60d81b015f55607b6001556101da90816100ae8239f35b5f8052601f0160051c7f290decd9548b62a8d60345a988386fc84ba6bc95484008f6362f93160ef3e563908101905b818110608257506028565b5f81556001016077565b634e487b7160e01b5f52602260045260245ffd5b90607f16906018565b5f80fdfe6080806040526004361015610012575f80fd5b5f3560e01c9081631f1bd69214610070575080634e70b1dc146100535763826926791461003d575f80fd5b3461004f575f36600319011261004f57005b5f80fd5b3461004f575f36600319011261004f576020600154604051908152f35b3461004f575f36600319011261004f575f8054908160011c6001831692831561019a575b60208210841461018657818552602085019390811561016d5750600114610119575b50829003601f01601f191682019167ffffffffffffffff831181841017610105576040918391828452602083525180918160208501528484015e5f828201840152601f01601f19168101030190f35b634e487b7160e01b5f52604160045260245ffd5b90505f80527f290decd9548b62a8d60345a988386fc84ba6bc95484008f6362f93160ef3e5635f905b828210610157575060209150830101836100b6565b6001816020925483858901015201910190610142565b60ff1916845250151560051b83016020019050836100b6565b634e487b7160e01b5f52602260045260245ffd5b90607f169061009456fea26469706673582212204fd0b0374fc2064f72950ac0eeae3dc209a1de2dbf4437f437ea4f6df1b7c38664736f6c634300081a0033",
    "sourcePath": "/home/nipun/Documents/prepration/defi/smart_contract_engineer/solidity_variables.sol",
    "compiler": {
        "name": "solc",
        "version": "0.8.26+commit.8a97fa7a"
    },
    "functionHashes": {
        "doSomething()": "82692679",
        "num()": "4e70b1dc",
        "text()": "1f1bd692"
    },
    "gasEstimates": {
        "creation": {
            "codeDepositCost": "94800",
            "executionCost": "infinite",
            "totalCost": "infinite"
        },
        "external": {
            "doSomething()": "176",
            "num()": "2278",
            "text()": "infinite"
        }
    }
}