{
  "_format": "hh-sol-artifact-1",
  "contractName": "ImplementationEIP1967Three",
  "sourceName": "contracts/proxy-patterns/eip1967_upgradable_proxy/implementation_three.sol",
  "abi": [
    {
      "inputs": [],
      "name": "decrement",
      "outputs": [],
      "stateMutability": "nonpayable",
      "type": "function"
    },
    {
      "inputs": [],
      "name": "delta",
      "outputs": [
        {
          "internalType": "uint256",
          "name": "",
          "type": "uint256"
        }
      ],
      "stateMutability": "view",
      "type": "function"
    },
    {
      "inputs": [
        {
          "internalType": "uint256",
          "name": "_input",
          "type": "uint256"
        }
      ],
      "name": "multiply",
      "outputs": [
        {
          "internalType": "uint256",
          "name": "",
          "type": "uint256"
        }
      ],
      "stateMutability": "nonpayable",
      "type": "function"
    },
    {
      "inputs": [],
      "name": "number",
      "outputs": [
        {
          "internalType": "uint256",
          "name": "",
          "type": "uint256"
        }
      ],
      "stateMutability": "view",
      "type": "function"
    }
  ],
  "bytecode": "0x6080604052348015600f57600080fd5b506101648061001f6000396000f3fe608060405234801561001057600080fd5b506004361061004c5760003560e01c806312b495a8146100515780632baeceb71461006c5780638381f58a14610076578063c6888fa11461007f575b600080fd5b61005a60015481565b60405190815260200160405180910390f35b610074610092565b005b61005a60005481565b61005a61008d3660046100cf565b6100a7565b6001546000546100a291906100fe565b600055565b6000816001546000546100ba9190610117565b6100c49190610117565b600081905592915050565b6000602082840312156100e157600080fd5b5035919050565b634e487b7160e01b600052601160045260246000fd5b81810381811115610111576101116100e8565b92915050565b8082028115828204841417610111576101116100e856fea2646970667358221220a3702c292a8932b2099275c6a26d52e47252176d35a15ce0323691c6093b9e9464736f6c634300081a0033",
  "linkReferences": {},
  "deployedLinkReferences": {}
}