{
	"simple_storage/SimpleStorage.sol": {
		"SimpleStorage": {
			"abi": [
				{
					"inputs": [],
					"stateMutability": "nonpayable",
					"type": "constructor"
				},
				{
					"anonymous": false,
					"inputs": [
						{
							"indexed": false,
							"internalType": "address",
							"name": "from",
							"type": "address"
						},
						{
							"indexed": false,
							"internalType": "uint128",
							"name": "messageIndex",
							"type": "uint128"
						}
					],
					"name": "MessageStored",
					"type": "event"
				},
				{
					"inputs": [
						{
							"internalType": "uint256",
							"name": "",
							"type": "uint256"
						}
					],
					"name": "messages",
					"outputs": [
						{
							"internalType": "string",
							"name": "",
							"type": "string"
						}
					],
					"stateMutability": "view",
					"type": "function"
				},
				{
					"inputs": [
						{
							"internalType": "string",
							"name": "message",
							"type": "string"
						}
					],
					"name": "store",
					"outputs": [],
					"stateMutability": "nonpayable",
					"type": "function"
				}
			],
			"devdoc": {
				"kind": "dev",
				"methods": {},
				"version": 1
			},
			"evm": {
				"assembly": "    /* \"simple_storage/SimpleStorage.sol\":58:354  contract SimpleStorage {... */\n  mstore(0x40, 0x80)\n    /* \"simple_storage/SimpleStorage.sol\":180:196  constructor() {} */\n  callvalue\n  dup1\n  iszero\n  tag_1\n  jumpi\n  0x00\n  dup1\n  revert\ntag_1:\n  pop\n    /* \"simple_storage/SimpleStorage.sol\":58:354  contract SimpleStorage {... */\n  dataSize(sub_0)\n  dup1\n  dataOffset(sub_0)\n  0x00\n  codecopy\n  0x00\n  return\nstop\n\nsub_0: assembly {\n        /* \"simple_storage/SimpleStorage.sol\":58:354  contract SimpleStorage {... */\n      mstore(0x40, 0x80)\n      callvalue\n      dup1\n      iszero\n      tag_1\n      jumpi\n      0x00\n      dup1\n      revert\n    tag_1:\n      pop\n      jumpi(tag_2, lt(calldatasize, 0x04))\n      shr(0xe0, calldataload(0x00))\n      dup1\n      0x0d80fefd\n      eq\n      tag_3\n      jumpi\n      dup1\n      0x131a0680\n      eq\n      tag_4\n      jumpi\n    tag_2:\n      0x00\n      dup1\n      revert\n        /* \"simple_storage/SimpleStorage.sol\":149:173  string[] public messages */\n    tag_3:\n      tag_5\n      0x04\n      dup1\n      calldatasize\n      sub\n      dup2\n      add\n      swap1\n      tag_6\n      swap2\n      swap1\n      tag_7\n      jump\t// in\n    tag_6:\n      tag_8\n      jump\t// in\n    tag_5:\n      mload(0x40)\n      tag_9\n      swap2\n      swap1\n      tag_10\n      jump\t// in\n    tag_9:\n      mload(0x40)\n      dup1\n      swap2\n      sub\n      swap1\n      return\n        /* \"simple_storage/SimpleStorage.sol\":202:352  function store(string memory message) public {... */\n    tag_4:\n      tag_11\n      0x04\n      dup1\n      calldatasize\n      sub\n      dup2\n      add\n      swap1\n      tag_12\n      swap2\n      swap1\n      tag_13\n      jump\t// in\n    tag_12:\n      tag_14\n      jump\t// in\n    tag_11:\n      stop\n        /* \"simple_storage/SimpleStorage.sol\":149:173  string[] public messages */\n    tag_8:\n      0x00\n      dup2\n      dup2\n      sload\n      dup2\n      lt\n      tag_15\n      jumpi\n      0x00\n      dup1\n      revert\n    tag_15:\n      swap1\n      0x00\n      mstore\n      keccak256(0x00, 0x20)\n      add\n      0x00\n      swap2\n      pop\n      swap1\n      pop\n      dup1\n      sload\n      tag_17\n      swap1\n      tag_18\n      jump\t// in\n    tag_17:\n      dup1\n      0x1f\n      add\n      0x20\n      dup1\n      swap2\n      div\n      mul\n      0x20\n      add\n      mload(0x40)\n      swap1\n      dup2\n      add\n      0x40\n      mstore\n      dup1\n      swap3\n      swap2\n      swap1\n      dup2\n      dup2\n      mstore\n      0x20\n      add\n      dup3\n      dup1\n      sload\n      tag_19\n      swap1\n      tag_18\n      jump\t// in\n    tag_19:\n      dup1\n      iszero\n      tag_20\n      jumpi\n      dup1\n      0x1f\n      lt\n      tag_21\n      jumpi\n      0x0100\n      dup1\n      dup4\n      sload\n      div\n      mul\n      dup4\n      mstore\n      swap2\n      0x20\n      add\n      swap2\n      jump(tag_20)\n    tag_21:\n      dup3\n      add\n      swap2\n      swap1\n      0x00\n      mstore\n      keccak256(0x00, 0x20)\n      swap1\n    tag_22:\n      dup2\n      sload\n      dup2\n      mstore\n      swap1\n      0x01\n      add\n      swap1\n      0x20\n      add\n      dup1\n      dup4\n      gt\n      tag_22\n      jumpi\n      dup3\n      swap1\n      sub\n      0x1f\n      and\n      dup3\n      add\n      swap2\n    tag_20:\n      pop\n      pop\n      pop\n      pop\n      pop\n      dup2\n      jump\t// out\n        /* \"simple_storage/SimpleStorage.sol\":202:352  function store(string memory message) public {... */\n    tag_14:\n        /* \"simple_storage/SimpleStorage.sol\":257:265  messages */\n      0x00\n        /* \"simple_storage/SimpleStorage.sol\":271:278  message */\n      dup2\n        /* \"simple_storage/SimpleStorage.sol\":257:279  messages.push(message) */\n      swap1\n      dup1\n      0x01\n      dup2\n      sload\n      add\n      dup1\n      dup3\n      sstore\n      dup1\n      swap2\n      pop\n      pop\n      0x01\n      swap1\n      sub\n      swap1\n      0x00\n      mstore\n      keccak256(0x00, 0x20)\n      add\n      0x00\n      swap1\n      swap2\n      swap1\n      swap2\n      swap1\n      swap2\n      pop\n      swap1\n      dup2\n      tag_25\n      swap2\n      swap1\n      tag_26\n      jump\t// in\n    tag_25:\n      pop\n        /* \"simple_storage/SimpleStorage.sol\":294:345  MessageStored(msg.sender, uint128(messages.length)) */\n      0x425179bfda06d3fbbc421b14193db8c3d3dd6617d7a2d0100ad56804a1e608ce\n        /* \"simple_storage/SimpleStorage.sol\":308:318  msg.sender */\n      caller\n        /* \"simple_storage/SimpleStorage.sol\":328:336  messages */\n      0x00\n        /* \"simple_storage/SimpleStorage.sol\":328:343  messages.length */\n      dup1\n      sload\n      swap1\n      pop\n        /* \"simple_storage/SimpleStorage.sol\":294:345  MessageStored(msg.sender, uint128(messages.length)) */\n      mload(0x40)\n      tag_27\n      swap3\n      swap2\n      swap1\n      tag_28\n      jump\t// in\n    tag_27:\n      mload(0x40)\n      dup1\n      swap2\n      sub\n      swap1\n      log1\n        /* \"simple_storage/SimpleStorage.sol\":202:352  function store(string memory message) public {... */\n      pop\n      jump\t// out\n        /* \"#utility.yul\":7:82   */\n    tag_29:\n        /* \"#utility.yul\":40:46   */\n      0x00\n        /* \"#utility.yul\":73:75   */\n      0x40\n        /* \"#utility.yul\":67:76   */\n      mload\n        /* \"#utility.yul\":57:76   */\n      swap1\n      pop\n        /* \"#utility.yul\":7:82   */\n      swap1\n      jump\t// out\n        /* \"#utility.yul\":88:205   */\n    tag_30:\n        /* \"#utility.yul\":197:198   */\n      0x00\n        /* \"#utility.yul\":194:195   */\n      dup1\n        /* \"#utility.yul\":187:199   */\n      revert\n        /* \"#utility.yul\":211:328   */\n    tag_31:\n        /* \"#utility.yul\":320:321   */\n      0x00\n        /* \"#utility.yul\":317:318   */\n      dup1\n        /* \"#utility.yul\":310:322   */\n      revert\n        /* \"#utility.yul\":334:411   */\n    tag_32:\n        /* \"#utility.yul\":371:378   */\n      0x00\n        /* \"#utility.yul\":400:405   */\n      dup2\n        /* \"#utility.yul\":389:405   */\n      swap1\n      pop\n        /* \"#utility.yul\":334:411   */\n      swap2\n      swap1\n      pop\n      jump\t// out\n        /* \"#utility.yul\":417:539   */\n    tag_33:\n        /* \"#utility.yul\":490:514   */\n      tag_76\n        /* \"#utility.yul\":508:513   */\n      dup2\n        /* \"#utility.yul\":490:514   */\n      tag_32\n      jump\t// in\n    tag_76:\n        /* \"#utility.yul\":483:488   */\n      dup2\n        /* \"#utility.yul\":480:515   */\n      eq\n        /* \"#utility.yul\":470:533   */\n      tag_77\n      jumpi\n        /* \"#utility.yul\":529:530   */\n      0x00\n        /* \"#utility.yul\":526:527   */\n      dup1\n        /* \"#utility.yul\":519:531   */\n      revert\n        /* \"#utility.yul\":470:533   */\n    tag_77:\n        /* \"#utility.yul\":417:539   */\n      pop\n      jump\t// out\n        /* \"#utility.yul\":545:684   */\n    tag_34:\n        /* \"#utility.yul\":591:596   */\n      0x00\n        /* \"#utility.yul\":629:635   */\n      dup2\n        /* \"#utility.yul\":616:636   */\n      calldataload\n        /* \"#utility.yul\":607:636   */\n      swap1\n      pop\n        /* \"#utility.yul\":645:678   */\n      tag_79\n        /* \"#utility.yul\":672:677   */\n      dup2\n        /* \"#utility.yul\":645:678   */\n      tag_33\n      jump\t// in\n    tag_79:\n        /* \"#utility.yul\":545:684   */\n      swap3\n      swap2\n      pop\n      pop\n      jump\t// out\n        /* \"#utility.yul\":690:1019   */\n    tag_7:\n        /* \"#utility.yul\":749:755   */\n      0x00\n        /* \"#utility.yul\":798:800   */\n      0x20\n        /* \"#utility.yul\":786:795   */\n      dup3\n        /* \"#utility.yul\":777:784   */\n      dup5\n        /* \"#utility.yul\":773:796   */\n      sub\n        /* \"#utility.yul\":769:801   */\n      slt\n        /* \"#utility.yul\":766:885   */\n      iszero\n      tag_81\n      jumpi\n        /* \"#utility.yul\":804:883   */\n      tag_82\n      tag_30\n      jump\t// in\n    tag_82:\n        /* \"#utility.yul\":766:885   */\n    tag_81:\n        /* \"#utility.yul\":924:925   */\n      0x00\n        /* \"#utility.yul\":949:1002   */\n      tag_83\n        /* \"#utility.yul\":994:1001   */\n      dup5\n        /* \"#utility.yul\":985:991   */\n      dup3\n        /* \"#utility.yul\":974:983   */\n      dup6\n        /* \"#utility.yul\":970:992   */\n      add\n        /* \"#utility.yul\":949:1002   */\n      tag_34\n      jump\t// in\n    tag_83:\n        /* \"#utility.yul\":939:1002   */\n      swap2\n      pop\n        /* \"#utility.yul\":895:1012   */\n      pop\n        /* \"#utility.yul\":690:1019   */\n      swap3\n      swap2\n      pop\n      pop\n      jump\t// out\n        /* \"#utility.yul\":1025:1124   */\n    tag_35:\n        /* \"#utility.yul\":1077:1083   */\n      0x00\n        /* \"#utility.yul\":1111:1116   */\n      dup2\n        /* \"#utility.yul\":1105:1117   */\n      mload\n        /* \"#utility.yul\":1095:1117   */\n      swap1\n      pop\n        /* \"#utility.yul\":1025:1124   */\n      swap2\n      swap1\n      pop\n      jump\t// out\n        /* \"#utility.yul\":1130:1299   */\n    tag_36:\n        /* \"#utility.yul\":1214:1225   */\n      0x00\n        /* \"#utility.yul\":1248:1254   */\n      dup3\n        /* \"#utility.yul\":1243:1246   */\n      dup3\n        /* \"#utility.yul\":1236:1255   */\n      mstore\n        /* \"#utility.yul\":1288:1292   */\n      0x20\n        /* \"#utility.yul\":1283:1286   */\n      dup3\n        /* \"#utility.yul\":1279:1293   */\n      add\n        /* \"#utility.yul\":1264:1293   */\n      swap1\n      pop\n        /* \"#utility.yul\":1130:1299   */\n      swap3\n      swap2\n      pop\n      pop\n      jump\t// out\n        /* \"#utility.yul\":1305:1444   */\n    tag_37:\n        /* \"#utility.yul\":1394:1400   */\n      dup3\n        /* \"#utility.yul\":1389:1392   */\n      dup2\n        /* \"#utility.yul\":1384:1387   */\n      dup4\n        /* \"#utility.yul\":1378:1401   */\n      mcopy\n        /* \"#utility.yul\":1435:1436   */\n      0x00\n        /* \"#utility.yul\":1426:1432   */\n      dup4\n        /* \"#utility.yul\":1421:1424   */\n      dup4\n        /* \"#utility.yul\":1417:1433   */\n      add\n        /* \"#utility.yul\":1410:1437   */\n      mstore\n        /* \"#utility.yul\":1305:1444   */\n      pop\n      pop\n      pop\n      jump\t// out\n        /* \"#utility.yul\":1450:1552   */\n    tag_38:\n        /* \"#utility.yul\":1491:1497   */\n      0x00\n        /* \"#utility.yul\":1542:1544   */\n      0x1f\n        /* \"#utility.yul\":1538:1545   */\n      not\n        /* \"#utility.yul\":1533:1535   */\n      0x1f\n        /* \"#utility.yul\":1526:1531   */\n      dup4\n        /* \"#utility.yul\":1522:1536   */\n      add\n        /* \"#utility.yul\":1518:1546   */\n      and\n        /* \"#utility.yul\":1508:1546   */\n      swap1\n      pop\n        /* \"#utility.yul\":1450:1552   */\n      swap2\n      swap1\n      pop\n      jump\t// out\n        /* \"#utility.yul\":1558:1935   */\n    tag_39:\n        /* \"#utility.yul\":1646:1649   */\n      0x00\n        /* \"#utility.yul\":1674:1713   */\n      tag_89\n        /* \"#utility.yul\":1707:1712   */\n      dup3\n        /* \"#utility.yul\":1674:1713   */\n      tag_35\n      jump\t// in\n    tag_89:\n        /* \"#utility.yul\":1729:1800   */\n      tag_90\n        /* \"#utility.yul\":1793:1799   */\n      dup2\n        /* \"#utility.yul\":1788:1791   */\n      dup6\n        /* \"#utility.yul\":1729:1800   */\n      tag_36\n      jump\t// in\n    tag_90:\n        /* \"#utility.yul\":1722:1800   */\n      swap4\n      pop\n        /* \"#utility.yul\":1809:1874   */\n      tag_91\n        /* \"#utility.yul\":1867:1873   */\n      dup2\n        /* \"#utility.yul\":1862:1865   */\n      dup6\n        /* \"#utility.yul\":1855:1859   */\n      0x20\n        /* \"#utility.yul\":1848:1853   */\n      dup7\n        /* \"#utility.yul\":1844:1860   */\n      add\n        /* \"#utility.yul\":1809:1874   */\n      tag_37\n      jump\t// in\n    tag_91:\n        /* \"#utility.yul\":1899:1928   */\n      tag_92\n        /* \"#utility.yul\":1921:1927   */\n      dup2\n        /* \"#utility.yul\":1899:1928   */\n      tag_38\n      jump\t// in\n    tag_92:\n        /* \"#utility.yul\":1894:1897   */\n      dup5\n        /* \"#utility.yul\":1890:1929   */\n      add\n        /* \"#utility.yul\":1883:1929   */\n      swap2\n      pop\n        /* \"#utility.yul\":1650:1935   */\n      pop\n        /* \"#utility.yul\":1558:1935   */\n      swap3\n      swap2\n      pop\n      pop\n      jump\t// out\n        /* \"#utility.yul\":1941:2254   */\n    tag_10:\n        /* \"#utility.yul\":2054:2058   */\n      0x00\n        /* \"#utility.yul\":2092:2094   */\n      0x20\n        /* \"#utility.yul\":2081:2090   */\n      dup3\n        /* \"#utility.yul\":2077:2095   */\n      add\n        /* \"#utility.yul\":2069:2095   */\n      swap1\n      pop\n        /* \"#utility.yul\":2141:2150   */\n      dup2\n        /* \"#utility.yul\":2135:2139   */\n      dup2\n        /* \"#utility.yul\":2131:2151   */\n      sub\n        /* \"#utility.yul\":2127:2128   */\n      0x00\n        /* \"#utility.yul\":2116:2125   */\n      dup4\n        /* \"#utility.yul\":2112:2129   */\n      add\n        /* \"#utility.yul\":2105:2152   */\n      mstore\n        /* \"#utility.yul\":2169:2247   */\n      tag_94\n        /* \"#utility.yul\":2242:2246   */\n      dup2\n        /* \"#utility.yul\":2233:2239   */\n      dup5\n        /* \"#utility.yul\":2169:2247   */\n      tag_39\n      jump\t// in\n    tag_94:\n        /* \"#utility.yul\":2161:2247   */\n      swap1\n      pop\n        /* \"#utility.yul\":1941:2254   */\n      swap3\n      swap2\n      pop\n      pop\n      jump\t// out\n        /* \"#utility.yul\":2260:2377   */\n    tag_40:\n        /* \"#utility.yul\":2369:2370   */\n      0x00\n        /* \"#utility.yul\":2366:2367   */\n      dup1\n        /* \"#utility.yul\":2359:2371   */\n      revert\n        /* \"#utility.yul\":2383:2500   */\n    tag_41:\n        /* \"#utility.yul\":2492:2493   */\n      0x00\n        /* \"#utility.yul\":2489:2490   */\n      dup1\n        /* \"#utility.yul\":2482:2494   */\n      revert\n        /* \"#utility.yul\":2506:2686   */\n    tag_42:\n        /* \"#utility.yul\":2554:2631   */\n      0x4e487b7100000000000000000000000000000000000000000000000000000000\n        /* \"#utility.yul\":2551:2552   */\n      0x00\n        /* \"#utility.yul\":2544:2632   */\n      mstore\n        /* \"#utility.yul\":2651:2655   */\n      0x41\n        /* \"#utility.yul\":2648:2649   */\n      0x04\n        /* \"#utility.yul\":2641:2656   */\n      mstore\n        /* \"#utility.yul\":2675:2679   */\n      0x24\n        /* \"#utility.yul\":2672:2673   */\n      0x00\n        /* \"#utility.yul\":2665:2680   */\n      revert\n        /* \"#utility.yul\":2692:2973   */\n    tag_43:\n        /* \"#utility.yul\":2775:2802   */\n      tag_99\n        /* \"#utility.yul\":2797:2801   */\n      dup3\n        /* \"#utility.yul\":2775:2802   */\n      tag_38\n      jump\t// in\n    tag_99:\n        /* \"#utility.yul\":2767:2773   */\n      dup2\n        /* \"#utility.yul\":2763:2803   */\n      add\n        /* \"#utility.yul\":2905:2911   */\n      dup2\n        /* \"#utility.yul\":2893:2903   */\n      dup2\n        /* \"#utility.yul\":2890:2912   */\n      lt\n        /* \"#utility.yul\":2869:2887   */\n      0xffffffffffffffff\n        /* \"#utility.yul\":2857:2867   */\n      dup3\n        /* \"#utility.yul\":2854:2888   */\n      gt\n        /* \"#utility.yul\":2851:2913   */\n      or\n        /* \"#utility.yul\":2848:2936   */\n      iszero\n      tag_100\n      jumpi\n        /* \"#utility.yul\":2916:2934   */\n      tag_101\n      tag_42\n      jump\t// in\n    tag_101:\n        /* \"#utility.yul\":2848:2936   */\n    tag_100:\n        /* \"#utility.yul\":2956:2966   */\n      dup1\n        /* \"#utility.yul\":2952:2954   */\n      0x40\n        /* \"#utility.yul\":2945:2967   */\n      mstore\n        /* \"#utility.yul\":2735:2973   */\n      pop\n        /* \"#utility.yul\":2692:2973   */\n      pop\n      pop\n      jump\t// out\n        /* \"#utility.yul\":2979:3108   */\n    tag_44:\n        /* \"#utility.yul\":3013:3019   */\n      0x00\n        /* \"#utility.yul\":3040:3060   */\n      tag_103\n      tag_29\n      jump\t// in\n    tag_103:\n        /* \"#utility.yul\":3030:3060   */\n      swap1\n      pop\n        /* \"#utility.yul\":3069:3102   */\n      tag_104\n        /* \"#utility.yul\":3097:3101   */\n      dup3\n        /* \"#utility.yul\":3089:3095   */\n      dup3\n        /* \"#utility.yul\":3069:3102   */\n      tag_43\n      jump\t// in\n    tag_104:\n        /* \"#utility.yul\":2979:3108   */\n      swap2\n      swap1\n      pop\n      jump\t// out\n        /* \"#utility.yul\":3114:3422   */\n    tag_45:\n        /* \"#utility.yul\":3176:3180   */\n      0x00\n        /* \"#utility.yul\":3266:3284   */\n      0xffffffffffffffff\n        /* \"#utility.yul\":3258:3264   */\n      dup3\n        /* \"#utility.yul\":3255:3285   */\n      gt\n        /* \"#utility.yul\":3252:3308   */\n      iszero\n      tag_106\n      jumpi\n        /* \"#utility.yul\":3288:3306   */\n      tag_107\n      tag_42\n      jump\t// in\n    tag_107:\n        /* \"#utility.yul\":3252:3308   */\n    tag_106:\n        /* \"#utility.yul\":3326:3355   */\n      tag_108\n        /* \"#utility.yul\":3348:3354   */\n      dup3\n        /* \"#utility.yul\":3326:3355   */\n      tag_38\n      jump\t// in\n    tag_108:\n        /* \"#utility.yul\":3318:3355   */\n      swap1\n      pop\n        /* \"#utility.yul\":3410:3414   */\n      0x20\n        /* \"#utility.yul\":3404:3408   */\n      dup2\n        /* \"#utility.yul\":3400:3415   */\n      add\n        /* \"#utility.yul\":3392:3415   */\n      swap1\n      pop\n        /* \"#utility.yul\":3114:3422   */\n      swap2\n      swap1\n      pop\n      jump\t// out\n        /* \"#utility.yul\":3428:3576   */\n    tag_46:\n        /* \"#utility.yul\":3526:3532   */\n      dup3\n        /* \"#utility.yul\":3521:3524   */\n      dup2\n        /* \"#utility.yul\":3516:3519   */\n      dup4\n        /* \"#utility.yul\":3503:3533   */\n      calldatacopy\n        /* \"#utility.yul\":3567:3568   */\n      0x00\n        /* \"#utility.yul\":3558:3564   */\n      dup4\n        /* \"#utility.yul\":3553:3556   */\n      dup4\n        /* \"#utility.yul\":3549:3565   */\n      add\n        /* \"#utility.yul\":3542:3569   */\n      mstore\n        /* \"#utility.yul\":3428:3576   */\n      pop\n      pop\n      pop\n      jump\t// out\n        /* \"#utility.yul\":3582:4007   */\n    tag_47:\n        /* \"#utility.yul\":3660:3665   */\n      0x00\n        /* \"#utility.yul\":3685:3751   */\n      tag_111\n        /* \"#utility.yul\":3701:3750   */\n      tag_112\n        /* \"#utility.yul\":3743:3749   */\n      dup5\n        /* \"#utility.yul\":3701:3750   */\n      tag_45\n      jump\t// in\n    tag_112:\n        /* \"#utility.yul\":3685:3751   */\n      tag_44\n      jump\t// in\n    tag_111:\n        /* \"#utility.yul\":3676:3751   */\n      swap1\n      pop\n        /* \"#utility.yul\":3774:3780   */\n      dup3\n        /* \"#utility.yul\":3767:3772   */\n      dup2\n        /* \"#utility.yul\":3760:3781   */\n      mstore\n        /* \"#utility.yul\":3812:3816   */\n      0x20\n        /* \"#utility.yul\":3805:3810   */\n      dup2\n        /* \"#utility.yul\":3801:3817   */\n      add\n        /* \"#utility.yul\":3850:3853   */\n      dup5\n        /* \"#utility.yul\":3841:3847   */\n      dup5\n        /* \"#utility.yul\":3836:3839   */\n      dup5\n        /* \"#utility.yul\":3832:3848   */\n      add\n        /* \"#utility.yul\":3829:3854   */\n      gt\n        /* \"#utility.yul\":3826:3938   */\n      iszero\n      tag_113\n      jumpi\n        /* \"#utility.yul\":3857:3936   */\n      tag_114\n      tag_41\n      jump\t// in\n    tag_114:\n        /* \"#utility.yul\":3826:3938   */\n    tag_113:\n        /* \"#utility.yul\":3947:4001   */\n      tag_115\n        /* \"#utility.yul\":3994:4000   */\n      dup5\n        /* \"#utility.yul\":3989:3992   */\n      dup3\n        /* \"#utility.yul\":3984:3987   */\n      dup6\n        /* \"#utility.yul\":3947:4001   */\n      tag_46\n      jump\t// in\n    tag_115:\n        /* \"#utility.yul\":3666:4007   */\n      pop\n        /* \"#utility.yul\":3582:4007   */\n      swap4\n      swap3\n      pop\n      pop\n      pop\n      jump\t// out\n        /* \"#utility.yul\":4027:4367   */\n    tag_48:\n        /* \"#utility.yul\":4083:4088   */\n      0x00\n        /* \"#utility.yul\":4132:4135   */\n      dup3\n        /* \"#utility.yul\":4125:4129   */\n      0x1f\n        /* \"#utility.yul\":4117:4123   */\n      dup4\n        /* \"#utility.yul\":4113:4130   */\n      add\n        /* \"#utility.yul\":4109:4136   */\n      slt\n        /* \"#utility.yul\":4099:4221   */\n      tag_117\n      jumpi\n        /* \"#utility.yul\":4140:4219   */\n      tag_118\n      tag_40\n      jump\t// in\n    tag_118:\n        /* \"#utility.yul\":4099:4221   */\n    tag_117:\n        /* \"#utility.yul\":4257:4263   */\n      dup2\n        /* \"#utility.yul\":4244:4264   */\n      calldataload\n        /* \"#utility.yul\":4282:4361   */\n      tag_119\n        /* \"#utility.yul\":4357:4360   */\n      dup5\n        /* \"#utility.yul\":4349:4355   */\n      dup3\n        /* \"#utility.yul\":4342:4346   */\n      0x20\n        /* \"#utility.yul\":4334:4340   */\n      dup7\n        /* \"#utility.yul\":4330:4347   */\n      add\n        /* \"#utility.yul\":4282:4361   */\n      tag_47\n      jump\t// in\n    tag_119:\n        /* \"#utility.yul\":4273:4361   */\n      swap2\n      pop\n        /* \"#utility.yul\":4089:4367   */\n      pop\n        /* \"#utility.yul\":4027:4367   */\n      swap3\n      swap2\n      pop\n      pop\n      jump\t// out\n        /* \"#utility.yul\":4373:4882   */\n    tag_13:\n        /* \"#utility.yul\":4442:4448   */\n      0x00\n        /* \"#utility.yul\":4491:4493   */\n      0x20\n        /* \"#utility.yul\":4479:4488   */\n      dup3\n        /* \"#utility.yul\":4470:4477   */\n      dup5\n        /* \"#utility.yul\":4466:4489   */\n      sub\n        /* \"#utility.yul\":4462:4494   */\n      slt\n        /* \"#utility.yul\":4459:4578   */\n      iszero\n      tag_121\n      jumpi\n        /* \"#utility.yul\":4497:4576   */\n      tag_122\n      tag_30\n      jump\t// in\n    tag_122:\n        /* \"#utility.yul\":4459:4578   */\n    tag_121:\n        /* \"#utility.yul\":4645:4646   */\n      0x00\n        /* \"#utility.yul\":4634:4643   */\n      dup3\n        /* \"#utility.yul\":4630:4647   */\n      add\n        /* \"#utility.yul\":4617:4648   */\n      calldataload\n        /* \"#utility.yul\":4675:4693   */\n      0xffffffffffffffff\n        /* \"#utility.yul\":4667:4673   */\n      dup2\n        /* \"#utility.yul\":4664:4694   */\n      gt\n        /* \"#utility.yul\":4661:4778   */\n      iszero\n      tag_123\n      jumpi\n        /* \"#utility.yul\":4697:4776   */\n      tag_124\n      tag_31\n      jump\t// in\n    tag_124:\n        /* \"#utility.yul\":4661:4778   */\n    tag_123:\n        /* \"#utility.yul\":4802:4865   */\n      tag_125\n        /* \"#utility.yul\":4857:4864   */\n      dup5\n        /* \"#utility.yul\":4848:4854   */\n      dup3\n        /* \"#utility.yul\":4837:4846   */\n      dup6\n        /* \"#utility.yul\":4833:4855   */\n      add\n        /* \"#utility.yul\":4802:4865   */\n      tag_48\n      jump\t// in\n    tag_125:\n        /* \"#utility.yul\":4792:4865   */\n      swap2\n      pop\n        /* \"#utility.yul\":4588:4875   */\n      pop\n        /* \"#utility.yul\":4373:4882   */\n      swap3\n      swap2\n      pop\n      pop\n      jump\t// out\n        /* \"#utility.yul\":4888:5068   */\n    tag_49:\n        /* \"#utility.yul\":4936:5013   */\n      0x4e487b7100000000000000000000000000000000000000000000000000000000\n        /* \"#utility.yul\":4933:4934   */\n      0x00\n        /* \"#utility.yul\":4926:5014   */\n      mstore\n        /* \"#utility.yul\":5033:5037   */\n      0x22\n        /* \"#utility.yul\":5030:5031   */\n      0x04\n        /* \"#utility.yul\":5023:5038   */\n      mstore\n        /* \"#utility.yul\":5057:5061   */\n      0x24\n        /* \"#utility.yul\":5054:5055   */\n      0x00\n        /* \"#utility.yul\":5047:5062   */\n      revert\n        /* \"#utility.yul\":5074:5394   */\n    tag_18:\n        /* \"#utility.yul\":5118:5124   */\n      0x00\n        /* \"#utility.yul\":5155:5156   */\n      0x02\n        /* \"#utility.yul\":5149:5153   */\n      dup3\n        /* \"#utility.yul\":5145:5157   */\n      div\n        /* \"#utility.yul\":5135:5157   */\n      swap1\n      pop\n        /* \"#utility.yul\":5202:5203   */\n      0x01\n        /* \"#utility.yul\":5196:5200   */\n      dup3\n        /* \"#utility.yul\":5192:5204   */\n      and\n        /* \"#utility.yul\":5223:5241   */\n      dup1\n        /* \"#utility.yul\":5213:5294   */\n      tag_128\n      jumpi\n        /* \"#utility.yul\":5279:5283   */\n      0x7f\n        /* \"#utility.yul\":5271:5277   */\n      dup3\n        /* \"#utility.yul\":5267:5284   */\n      and\n        /* \"#utility.yul\":5257:5284   */\n      swap2\n      pop\n        /* \"#utility.yul\":5213:5294   */\n    tag_128:\n        /* \"#utility.yul\":5341:5343   */\n      0x20\n        /* \"#utility.yul\":5333:5339   */\n      dup3\n        /* \"#utility.yul\":5330:5344   */\n      lt\n        /* \"#utility.yul\":5310:5328   */\n      dup2\n        /* \"#utility.yul\":5307:5345   */\n      sub\n        /* \"#utility.yul\":5304:5388   */\n      tag_129\n      jumpi\n        /* \"#utility.yul\":5360:5378   */\n      tag_130\n      tag_49\n      jump\t// in\n    tag_130:\n        /* \"#utility.yul\":5304:5388   */\n    tag_129:\n        /* \"#utility.yul\":5125:5394   */\n      pop\n        /* \"#utility.yul\":5074:5394   */\n      swap2\n      swap1\n      pop\n      jump\t// out\n        /* \"#utility.yul\":5400:5541   */\n    tag_50:\n        /* \"#utility.yul\":5449:5453   */\n      0x00\n        /* \"#utility.yul\":5472:5475   */\n      dup2\n        /* \"#utility.yul\":5464:5475   */\n      swap1\n      pop\n        /* \"#utility.yul\":5495:5498   */\n      dup2\n        /* \"#utility.yul\":5492:5493   */\n      0x00\n        /* \"#utility.yul\":5485:5499   */\n      mstore\n        /* \"#utility.yul\":5529:5533   */\n      0x20\n        /* \"#utility.yul\":5526:5527   */\n      0x00\n        /* \"#utility.yul\":5516:5534   */\n      keccak256\n        /* \"#utility.yul\":5508:5534   */\n      swap1\n      pop\n        /* \"#utility.yul\":5400:5541   */\n      swap2\n      swap1\n      pop\n      jump\t// out\n        /* \"#utility.yul\":5547:5640   */\n    tag_51:\n        /* \"#utility.yul\":5584:5590   */\n      0x00\n        /* \"#utility.yul\":5631:5633   */\n      0x20\n        /* \"#utility.yul\":5626:5628   */\n      0x1f\n        /* \"#utility.yul\":5619:5624   */\n      dup4\n        /* \"#utility.yul\":5615:5629   */\n      add\n        /* \"#utility.yul\":5611:5634   */\n      div\n        /* \"#utility.yul\":5601:5634   */\n      swap1\n      pop\n        /* \"#utility.yul\":5547:5640   */\n      swap2\n      swap1\n      pop\n      jump\t// out\n        /* \"#utility.yul\":5646:5753   */\n    tag_52:\n        /* \"#utility.yul\":5690:5698   */\n      0x00\n        /* \"#utility.yul\":5740:5745   */\n      dup3\n        /* \"#utility.yul\":5734:5738   */\n      dup3\n        /* \"#utility.yul\":5730:5746   */\n      shl\n        /* \"#utility.yul\":5709:5746   */\n      swap1\n      pop\n        /* \"#utility.yul\":5646:5753   */\n      swap3\n      swap2\n      pop\n      pop\n      jump\t// out\n        /* \"#utility.yul\":5759:6152   */\n    tag_53:\n        /* \"#utility.yul\":5828:5834   */\n      0x00\n        /* \"#utility.yul\":5878:5879   */\n      0x08\n        /* \"#utility.yul\":5866:5876   */\n      dup4\n        /* \"#utility.yul\":5862:5880   */\n      mul\n        /* \"#utility.yul\":5901:5998   */\n      tag_135\n        /* \"#utility.yul\":5931:5997   */\n      0xffffffffffffffffffffffffffffffffffffffffffffffffffffffffffffffff\n        /* \"#utility.yul\":5920:5929   */\n      dup3\n        /* \"#utility.yul\":5901:5998   */\n      tag_52\n      jump\t// in\n    tag_135:\n        /* \"#utility.yul\":6019:6058   */\n      tag_136\n        /* \"#utility.yul\":6049:6057   */\n      dup7\n        /* \"#utility.yul\":6038:6047   */\n      dup4\n        /* \"#utility.yul\":6019:6058   */\n      tag_52\n      jump\t// in\n    tag_136:\n        /* \"#utility.yul\":6007:6058   */\n      swap6\n      pop\n        /* \"#utility.yul\":6091:6095   */\n      dup1\n        /* \"#utility.yul\":6087:6096   */\n      not\n        /* \"#utility.yul\":6080:6085   */\n      dup5\n        /* \"#utility.yul\":6076:6097   */\n      and\n        /* \"#utility.yul\":6067:6097   */\n      swap4\n      pop\n        /* \"#utility.yul\":6140:6144   */\n      dup1\n        /* \"#utility.yul\":6130:6138   */\n      dup7\n        /* \"#utility.yul\":6126:6145   */\n      and\n        /* \"#utility.yul\":6119:6124   */\n      dup5\n        /* \"#utility.yul\":6116:6146   */\n      or\n        /* \"#utility.yul\":6106:6146   */\n      swap3\n      pop\n        /* \"#utility.yul\":5835:6152   */\n      pop\n      pop\n        /* \"#utility.yul\":5759:6152   */\n      swap4\n      swap3\n      pop\n      pop\n      pop\n      jump\t// out\n        /* \"#utility.yul\":6158:6218   */\n    tag_54:\n        /* \"#utility.yul\":6186:6189   */\n      0x00\n        /* \"#utility.yul\":6207:6212   */\n      dup2\n        /* \"#utility.yul\":6200:6212   */\n      swap1\n      pop\n        /* \"#utility.yul\":6158:6218   */\n      swap2\n      swap1\n      pop\n      jump\t// out\n        /* \"#utility.yul\":6224:6366   */\n    tag_55:\n        /* \"#utility.yul\":6274:6283   */\n      0x00\n        /* \"#utility.yul\":6307:6360   */\n      tag_139\n        /* \"#utility.yul\":6325:6359   */\n      tag_140\n        /* \"#utility.yul\":6334:6358   */\n      tag_141\n        /* \"#utility.yul\":6352:6357   */\n      dup5\n        /* \"#utility.yul\":6334:6358   */\n      tag_32\n      jump\t// in\n    tag_141:\n        /* \"#utility.yul\":6325:6359   */\n      tag_54\n      jump\t// in\n    tag_140:\n        /* \"#utility.yul\":6307:6360   */\n      tag_32\n      jump\t// in\n    tag_139:\n        /* \"#utility.yul\":6294:6360   */\n      swap1\n      pop\n        /* \"#utility.yul\":6224:6366   */\n      swap2\n      swap1\n      pop\n      jump\t// out\n        /* \"#utility.yul\":6372:6447   */\n    tag_56:\n        /* \"#utility.yul\":6415:6418   */\n      0x00\n        /* \"#utility.yul\":6436:6441   */\n      dup2\n        /* \"#utility.yul\":6429:6441   */\n      swap1\n      pop\n        /* \"#utility.yul\":6372:6447   */\n      swap2\n      swap1\n      pop\n      jump\t// out\n        /* \"#utility.yul\":6453:6722   */\n    tag_57:\n        /* \"#utility.yul\":6563:6602   */\n      tag_144\n        /* \"#utility.yul\":6594:6601   */\n      dup4\n        /* \"#utility.yul\":6563:6602   */\n      tag_55\n      jump\t// in\n    tag_144:\n        /* \"#utility.yul\":6624:6715   */\n      tag_145\n        /* \"#utility.yul\":6673:6714   */\n      tag_146\n        /* \"#utility.yul\":6697:6713   */\n      dup3\n        /* \"#utility.yul\":6673:6714   */\n      tag_56\n      jump\t// in\n    tag_146:\n        /* \"#utility.yul\":6665:6671   */\n      dup5\n        /* \"#utility.yul\":6658:6662   */\n      dup5\n        /* \"#utility.yul\":6652:6663   */\n      sload\n        /* \"#utility.yul\":6624:6715   */\n      tag_53\n      jump\t// in\n    tag_145:\n        /* \"#utility.yul\":6618:6622   */\n      dup3\n        /* \"#utility.yul\":6611:6716   */\n      sstore\n        /* \"#utility.yul\":6529:6722   */\n      pop\n        /* \"#utility.yul\":6453:6722   */\n      pop\n      pop\n      pop\n      jump\t// out\n        /* \"#utility.yul\":6728:6801   */\n    tag_58:\n        /* \"#utility.yul\":6773:6776   */\n      0x00\n        /* \"#utility.yul\":6728:6801   */\n      swap1\n      jump\t// out\n        /* \"#utility.yul\":6807:6996   */\n    tag_59:\n        /* \"#utility.yul\":6884:6916   */\n      tag_149\n      tag_58\n      jump\t// in\n    tag_149:\n        /* \"#utility.yul\":6925:6990   */\n      tag_150\n        /* \"#utility.yul\":6983:6989   */\n      dup2\n        /* \"#utility.yul\":6975:6981   */\n      dup5\n        /* \"#utility.yul\":6969:6973   */\n      dup5\n        /* \"#utility.yul\":6925:6990   */\n      tag_57\n      jump\t// in\n    tag_150:\n        /* \"#utility.yul\":6860:6996   */\n      pop\n        /* \"#utility.yul\":6807:6996   */\n      pop\n      pop\n      jump\t// out\n        /* \"#utility.yul\":7002:7188   */\n    tag_60:\n        /* \"#utility.yul\":7062:7182   */\n    tag_152:\n        /* \"#utility.yul\":7079:7082   */\n      dup2\n        /* \"#utility.yul\":7072:7077   */\n      dup2\n        /* \"#utility.yul\":7069:7083   */\n      lt\n        /* \"#utility.yul\":7062:7182   */\n      iszero\n      tag_154\n      jumpi\n        /* \"#utility.yul\":7133:7172   */\n      tag_155\n        /* \"#utility.yul\":7170:7171   */\n      0x00\n        /* \"#utility.yul\":7163:7168   */\n      dup3\n        /* \"#utility.yul\":7133:7172   */\n      tag_59\n      jump\t// in\n    tag_155:\n        /* \"#utility.yul\":7106:7107   */\n      0x01\n        /* \"#utility.yul\":7099:7104   */\n      dup2\n        /* \"#utility.yul\":7095:7108   */\n      add\n        /* \"#utility.yul\":7086:7108   */\n      swap1\n      pop\n        /* \"#utility.yul\":7062:7182   */\n      jump(tag_152)\n    tag_154:\n        /* \"#utility.yul\":7002:7188   */\n      pop\n      pop\n      jump\t// out\n        /* \"#utility.yul\":7194:7737   */\n    tag_61:\n        /* \"#utility.yul\":7295:7297   */\n      0x1f\n        /* \"#utility.yul\":7290:7293   */\n      dup3\n        /* \"#utility.yul\":7287:7298   */\n      gt\n        /* \"#utility.yul\":7284:7730   */\n      iszero\n      tag_157\n      jumpi\n        /* \"#utility.yul\":7329:7367   */\n      tag_158\n        /* \"#utility.yul\":7361:7366   */\n      dup2\n        /* \"#utility.yul\":7329:7367   */\n      tag_50\n      jump\t// in\n    tag_158:\n        /* \"#utility.yul\":7413:7442   */\n      tag_159\n        /* \"#utility.yul\":7431:7441   */\n      dup5\n        /* \"#utility.yul\":7413:7442   */\n      tag_51\n      jump\t// in\n    tag_159:\n        /* \"#utility.yul\":7403:7411   */\n      dup2\n        /* \"#utility.yul\":7399:7443   */\n      add\n        /* \"#utility.yul\":7596:7598   */\n      0x20\n        /* \"#utility.yul\":7584:7594   */\n      dup6\n        /* \"#utility.yul\":7581:7599   */\n      lt\n        /* \"#utility.yul\":7578:7627   */\n      iszero\n      tag_160\n      jumpi\n        /* \"#utility.yul\":7617:7625   */\n      dup2\n        /* \"#utility.yul\":7602:7625   */\n      swap1\n      pop\n        /* \"#utility.yul\":7578:7627   */\n    tag_160:\n        /* \"#utility.yul\":7640:7720   */\n      tag_161\n        /* \"#utility.yul\":7696:7718   */\n      tag_162\n        /* \"#utility.yul\":7714:7717   */\n      dup6\n        /* \"#utility.yul\":7696:7718   */\n      tag_51\n      jump\t// in\n    tag_162:\n        /* \"#utility.yul\":7686:7694   */\n      dup4\n        /* \"#utility.yul\":7682:7719   */\n      add\n        /* \"#utility.yul\":7669:7680   */\n      dup3\n        /* \"#utility.yul\":7640:7720   */\n      tag_60\n      jump\t// in\n    tag_161:\n        /* \"#utility.yul\":7299:7730   */\n      pop\n      pop\n        /* \"#utility.yul\":7284:7730   */\n    tag_157:\n        /* \"#utility.yul\":7194:7737   */\n      pop\n      pop\n      pop\n      jump\t// out\n        /* \"#utility.yul\":7743:7860   */\n    tag_62:\n        /* \"#utility.yul\":7797:7805   */\n      0x00\n        /* \"#utility.yul\":7847:7852   */\n      dup3\n        /* \"#utility.yul\":7841:7845   */\n      dup3\n        /* \"#utility.yul\":7837:7853   */\n      shr\n        /* \"#utility.yul\":7816:7853   */\n      swap1\n      pop\n        /* \"#utility.yul\":7743:7860   */\n      swap3\n      swap2\n      pop\n      pop\n      jump\t// out\n        /* \"#utility.yul\":7866:8035   */\n    tag_63:\n        /* \"#utility.yul\":7910:7916   */\n      0x00\n        /* \"#utility.yul\":7943:7994   */\n      tag_165\n        /* \"#utility.yul\":7991:7992   */\n      0x00\n        /* \"#utility.yul\":7987:7993   */\n      not\n        /* \"#utility.yul\":7979:7984   */\n      dup5\n        /* \"#utility.yul\":7976:7977   */\n      0x08\n        /* \"#utility.yul\":7972:7985   */\n      mul\n        /* \"#utility.yul\":7943:7994   */\n      tag_62\n      jump\t// in\n    tag_165:\n        /* \"#utility.yul\":7939:7995   */\n      not\n        /* \"#utility.yul\":8024:8028   */\n      dup1\n        /* \"#utility.yul\":8018:8022   */\n      dup4\n        /* \"#utility.yul\":8014:8029   */\n      and\n        /* \"#utility.yul\":8004:8029   */\n      swap2\n      pop\n        /* \"#utility.yul\":7917:8035   */\n      pop\n        /* \"#utility.yul\":7866:8035   */\n      swap3\n      swap2\n      pop\n      pop\n      jump\t// out\n        /* \"#utility.yul\":8040:8335   */\n    tag_64:\n        /* \"#utility.yul\":8116:8120   */\n      0x00\n        /* \"#utility.yul\":8262:8291   */\n      tag_167\n        /* \"#utility.yul\":8287:8290   */\n      dup4\n        /* \"#utility.yul\":8281:8285   */\n      dup4\n        /* \"#utility.yul\":8262:8291   */\n      tag_63\n      jump\t// in\n    tag_167:\n        /* \"#utility.yul\":8254:8291   */\n      swap2\n      pop\n        /* \"#utility.yul\":8324:8327   */\n      dup3\n        /* \"#utility.yul\":8321:8322   */\n      0x02\n        /* \"#utility.yul\":8317:8328   */\n      mul\n        /* \"#utility.yul\":8311:8315   */\n      dup3\n        /* \"#utility.yul\":8308:8329   */\n      or\n        /* \"#utility.yul\":8300:8329   */\n      swap1\n      pop\n        /* \"#utility.yul\":8040:8335   */\n      swap3\n      swap2\n      pop\n      pop\n      jump\t// out\n        /* \"#utility.yul\":8340:9735   */\n    tag_26:\n        /* \"#utility.yul\":8457:8494   */\n      tag_169\n        /* \"#utility.yul\":8490:8493   */\n      dup3\n        /* \"#utility.yul\":8457:8494   */\n      tag_35\n      jump\t// in\n    tag_169:\n        /* \"#utility.yul\":8559:8577   */\n      0xffffffffffffffff\n        /* \"#utility.yul\":8551:8557   */\n      dup2\n        /* \"#utility.yul\":8548:8578   */\n      gt\n        /* \"#utility.yul\":8545:8601   */\n      iszero\n      tag_170\n      jumpi\n        /* \"#utility.yul\":8581:8599   */\n      tag_171\n      tag_42\n      jump\t// in\n    tag_171:\n        /* \"#utility.yul\":8545:8601   */\n    tag_170:\n        /* \"#utility.yul\":8625:8663   */\n      tag_172\n        /* \"#utility.yul\":8657:8661   */\n      dup3\n        /* \"#utility.yul\":8651:8662   */\n      sload\n        /* \"#utility.yul\":8625:8663   */\n      tag_18\n      jump\t// in\n    tag_172:\n        /* \"#utility.yul\":8710:8777   */\n      tag_173\n        /* \"#utility.yul\":8770:8776   */\n      dup3\n        /* \"#utility.yul\":8762:8768   */\n      dup3\n        /* \"#utility.yul\":8756:8760   */\n      dup6\n        /* \"#utility.yul\":8710:8777   */\n      tag_61\n      jump\t// in\n    tag_173:\n        /* \"#utility.yul\":8804:8805   */\n      0x00\n        /* \"#utility.yul\":8828:8832   */\n      0x20\n        /* \"#utility.yul\":8815:8832   */\n      swap1\n      pop\n        /* \"#utility.yul\":8860:8862   */\n      0x1f\n        /* \"#utility.yul\":8852:8858   */\n      dup4\n        /* \"#utility.yul\":8849:8863   */\n      gt\n        /* \"#utility.yul\":8877:8878   */\n      0x01\n        /* \"#utility.yul\":8872:9490   */\n      dup2\n      eq\n      tag_175\n      jumpi\n        /* \"#utility.yul\":9534:9535   */\n      0x00\n        /* \"#utility.yul\":9551:9557   */\n      dup5\n        /* \"#utility.yul\":9548:9625   */\n      iszero\n      tag_176\n      jumpi\n        /* \"#utility.yul\":9600:9609   */\n      dup3\n        /* \"#utility.yul\":9595:9598   */\n      dup8\n        /* \"#utility.yul\":9591:9610   */\n      add\n        /* \"#utility.yul\":9585:9611   */\n      mload\n        /* \"#utility.yul\":9576:9611   */\n      swap1\n      pop\n        /* \"#utility.yul\":9548:9625   */\n    tag_176:\n        /* \"#utility.yul\":9651:9718   */\n      tag_177\n        /* \"#utility.yul\":9711:9717   */\n      dup6\n        /* \"#utility.yul\":9704:9709   */\n      dup3\n        /* \"#utility.yul\":9651:9718   */\n      tag_64\n      jump\t// in\n    tag_177:\n        /* \"#utility.yul\":9645:9649   */\n      dup7\n        /* \"#utility.yul\":9638:9719   */\n      sstore\n        /* \"#utility.yul\":9507:9729   */\n      pop\n        /* \"#utility.yul\":8842:9729   */\n      jump(tag_174)\n        /* \"#utility.yul\":8872:9490   */\n    tag_175:\n        /* \"#utility.yul\":8924:8928   */\n      0x1f\n        /* \"#utility.yul\":8920:8929   */\n      not\n        /* \"#utility.yul\":8912:8918   */\n      dup5\n        /* \"#utility.yul\":8908:8930   */\n      and\n        /* \"#utility.yul\":8958:8995   */\n      tag_178\n        /* \"#utility.yul\":8990:8994   */\n      dup7\n        /* \"#utility.yul\":8958:8995   */\n      tag_50\n      jump\t// in\n    tag_178:\n        /* \"#utility.yul\":9017:9018   */\n      0x00\n        /* \"#utility.yul\":9031:9239   */\n    tag_179:\n        /* \"#utility.yul\":9045:9052   */\n      dup3\n        /* \"#utility.yul\":9042:9043   */\n      dup2\n        /* \"#utility.yul\":9039:9053   */\n      lt\n        /* \"#utility.yul\":9031:9239   */\n      iszero\n      tag_181\n      jumpi\n        /* \"#utility.yul\":9124:9133   */\n      dup5\n        /* \"#utility.yul\":9119:9122   */\n      dup10\n        /* \"#utility.yul\":9115:9134   */\n      add\n        /* \"#utility.yul\":9109:9135   */\n      mload\n        /* \"#utility.yul\":9101:9107   */\n      dup3\n        /* \"#utility.yul\":9094:9136   */\n      sstore\n        /* \"#utility.yul\":9175:9176   */\n      0x01\n        /* \"#utility.yul\":9167:9173   */\n      dup3\n        /* \"#utility.yul\":9163:9177   */\n      add\n        /* \"#utility.yul\":9153:9177   */\n      swap2\n      pop\n        /* \"#utility.yul\":9222:9224   */\n      0x20\n        /* \"#utility.yul\":9211:9220   */\n      dup6\n        /* \"#utility.yul\":9207:9225   */\n      add\n        /* \"#utility.yul\":9194:9225   */\n      swap5\n      pop\n        /* \"#utility.yul\":9068:9072   */\n      0x20\n        /* \"#utility.yul\":9065:9066   */\n      dup2\n        /* \"#utility.yul\":9061:9073   */\n      add\n        /* \"#utility.yul\":9056:9073   */\n      swap1\n      pop\n        /* \"#utility.yul\":9031:9239   */\n      jump(tag_179)\n    tag_181:\n        /* \"#utility.yul\":9267:9273   */\n      dup7\n        /* \"#utility.yul\":9258:9265   */\n      dup4\n        /* \"#utility.yul\":9255:9274   */\n      lt\n        /* \"#utility.yul\":9252:9431   */\n      iszero\n      tag_182\n      jumpi\n        /* \"#utility.yul\":9325:9334   */\n      dup5\n        /* \"#utility.yul\":9320:9323   */\n      dup10\n        /* \"#utility.yul\":9316:9335   */\n      add\n        /* \"#utility.yul\":9310:9336   */\n      mload\n        /* \"#utility.yul\":9368:9416   */\n      tag_183\n        /* \"#utility.yul\":9410:9414   */\n      0x1f\n        /* \"#utility.yul\":9402:9408   */\n      dup10\n        /* \"#utility.yul\":9398:9415   */\n      and\n        /* \"#utility.yul\":9387:9396   */\n      dup3\n        /* \"#utility.yul\":9368:9416   */\n      tag_63\n      jump\t// in\n    tag_183:\n        /* \"#utility.yul\":9360:9366   */\n      dup4\n        /* \"#utility.yul\":9353:9417   */\n      sstore\n        /* \"#utility.yul\":9275:9431   */\n      pop\n        /* \"#utility.yul\":9252:9431   */\n    tag_182:\n        /* \"#utility.yul\":9477:9478   */\n      0x01\n        /* \"#utility.yul\":9473:9474   */\n      0x02\n        /* \"#utility.yul\":9465:9471   */\n      dup9\n        /* \"#utility.yul\":9461:9475   */\n      mul\n        /* \"#utility.yul\":9457:9479   */\n      add\n        /* \"#utility.yul\":9451:9455   */\n      dup9\n        /* \"#utility.yul\":9444:9480   */\n      sstore\n        /* \"#utility.yul\":8879:9490   */\n      pop\n      pop\n      pop\n        /* \"#utility.yul\":8842:9729   */\n    tag_174:\n      pop\n        /* \"#utility.yul\":8432:9735   */\n      pop\n      pop\n      pop\n        /* \"#utility.yul\":8340:9735   */\n      pop\n      pop\n      jump\t// out\n        /* \"#utility.yul\":9741:9867   */\n    tag_65:\n        /* \"#utility.yul\":9778:9785   */\n      0x00\n        /* \"#utility.yul\":9818:9860   */\n      0xffffffffffffffffffffffffffffffffffffffff\n        /* \"#utility.yul\":9811:9816   */\n      dup3\n        /* \"#utility.yul\":9807:9861   */\n      and\n        /* \"#utility.yul\":9796:9861   */\n      swap1\n      pop\n        /* \"#utility.yul\":9741:9867   */\n      swap2\n      swap1\n      pop\n      jump\t// out\n        /* \"#utility.yul\":9873:9969   */\n    tag_66:\n        /* \"#utility.yul\":9910:9917   */\n      0x00\n        /* \"#utility.yul\":9939:9963   */\n      tag_186\n        /* \"#utility.yul\":9957:9962   */\n      dup3\n        /* \"#utility.yul\":9939:9963   */\n      tag_65\n      jump\t// in\n    tag_186:\n        /* \"#utility.yul\":9928:9963   */\n      swap1\n      pop\n        /* \"#utility.yul\":9873:9969   */\n      swap2\n      swap1\n      pop\n      jump\t// out\n        /* \"#utility.yul\":9975:10093   */\n    tag_67:\n        /* \"#utility.yul\":10062:10086   */\n      tag_188\n        /* \"#utility.yul\":10080:10085   */\n      dup2\n        /* \"#utility.yul\":10062:10086   */\n      tag_66\n      jump\t// in\n    tag_188:\n        /* \"#utility.yul\":10057:10060   */\n      dup3\n        /* \"#utility.yul\":10050:10087   */\n      mstore\n        /* \"#utility.yul\":9975:10093   */\n      pop\n      pop\n      jump\t// out\n        /* \"#utility.yul\":10099:10217   */\n    tag_68:\n        /* \"#utility.yul\":10136:10143   */\n      0x00\n        /* \"#utility.yul\":10176:10210   */\n      0xffffffffffffffffffffffffffffffff\n        /* \"#utility.yul\":10169:10174   */\n      dup3\n        /* \"#utility.yul\":10165:10211   */\n      and\n        /* \"#utility.yul\":10154:10211   */\n      swap1\n      pop\n        /* \"#utility.yul\":10099:10217   */\n      swap2\n      swap1\n      pop\n      jump\t// out\n        /* \"#utility.yul\":10223:10341   */\n    tag_69:\n        /* \"#utility.yul\":10310:10334   */\n      tag_191\n        /* \"#utility.yul\":10328:10333   */\n      dup2\n        /* \"#utility.yul\":10310:10334   */\n      tag_68\n      jump\t// in\n    tag_191:\n        /* \"#utility.yul\":10305:10308   */\n      dup3\n        /* \"#utility.yul\":10298:10335   */\n      mstore\n        /* \"#utility.yul\":10223:10341   */\n      pop\n      pop\n      jump\t// out\n        /* \"#utility.yul\":10347:10679   */\n    tag_28:\n        /* \"#utility.yul\":10468:10472   */\n      0x00\n        /* \"#utility.yul\":10506:10508   */\n      0x40\n        /* \"#utility.yul\":10495:10504   */\n      dup3\n        /* \"#utility.yul\":10491:10509   */\n      add\n        /* \"#utility.yul\":10483:10509   */\n      swap1\n      pop\n        /* \"#utility.yul\":10519:10590   */\n      tag_193\n        /* \"#utility.yul\":10587:10588   */\n      0x00\n        /* \"#utility.yul\":10576:10585   */\n      dup4\n        /* \"#utility.yul\":10572:10589   */\n      add\n        /* \"#utility.yul\":10563:10569   */\n      dup6\n        /* \"#utility.yul\":10519:10590   */\n      tag_67\n      jump\t// in\n    tag_193:\n        /* \"#utility.yul\":10600:10672   */\n      tag_194\n        /* \"#utility.yul\":10668:10670   */\n      0x20\n        /* \"#utility.yul\":10657:10666   */\n      dup4\n        /* \"#utility.yul\":10653:10671   */\n      add\n        /* \"#utility.yul\":10644:10650   */\n      dup5\n        /* \"#utility.yul\":10600:10672   */\n      tag_69\n      jump\t// in\n    tag_194:\n        /* \"#utility.yul\":10347:10679   */\n      swap4\n      swap3\n      pop\n      pop\n      pop\n      jump\t// out\n\n    auxdata: 0xa26469706673582212206b1a52c84d4c3bbc0d8370a86f0c67bff48cbb5376387321d3bdef7d9354c41b64736f6c634300081a0033\n}\n",
				"bytecode": {
					"linkReferences": {},
					"object": "6080604052348015600e575f80fd5b5061079b8061001c5f395ff3fe608060405234801561000f575f80fd5b5060043610610034575f3560e01c80630d80fefd14610038578063131a068014610068575b5f80fd5b610052600480360381019061004d91906101de565b610084565b60405161005f9190610279565b60405180910390f35b610082600480360381019061007d91906103c5565b610129565b005b5f8181548110610092575f80fd5b905f5260205f20015f9150905080546100aa90610439565b80601f01602080910402602001604051908101604052809291908181526020018280546100d690610439565b80156101215780601f106100f857610100808354040283529160200191610121565b820191905f5260205f20905b81548152906001019060200180831161010457829003601f168201915b505050505081565b5f81908060018154018082558091505060019003905f5260205f20015f9091909190915090816101599190610606565b507f425179bfda06d3fbbc421b14193db8c3d3dd6617d7a2d0100ad56804a1e608ce335f8054905060405161018f92919061073e565b60405180910390a150565b5f604051905090565b5f80fd5b5f80fd5b5f819050919050565b6101bd816101ab565b81146101c7575f80fd5b50565b5f813590506101d8816101b4565b92915050565b5f602082840312156101f3576101f26101a3565b5b5f610200848285016101ca565b91505092915050565b5f81519050919050565b5f82825260208201905092915050565b8281835e5f83830152505050565b5f601f19601f8301169050919050565b5f61024b82610209565b6102558185610213565b9350610265818560208601610223565b61026e81610231565b840191505092915050565b5f6020820190508181035f8301526102918184610241565b905092915050565b5f80fd5b5f80fd5b7f4e487b71000000000000000000000000000000000000000000000000000000005f52604160045260245ffd5b6102d782610231565b810181811067ffffffffffffffff821117156102f6576102f56102a1565b5b80604052505050565b5f61030861019a565b905061031482826102ce565b919050565b5f67ffffffffffffffff821115610333576103326102a1565b5b61033c82610231565b9050602081019050919050565b828183375f83830152505050565b5f61036961036484610319565b6102ff565b9050828152602081018484840111156103855761038461029d565b5b610390848285610349565b509392505050565b5f82601f8301126103ac576103ab610299565b5b81356103bc848260208601610357565b91505092915050565b5f602082840312156103da576103d96101a3565b5b5f82013567ffffffffffffffff8111156103f7576103f66101a7565b5b61040384828501610398565b91505092915050565b7f4e487b71000000000000000000000000000000000000000000000000000000005f52602260045260245ffd5b5f600282049050600182168061045057607f821691505b6020821081036104635761046261040c565b5b50919050565b5f819050815f5260205f209050919050565b5f6020601f8301049050919050565b5f82821b905092915050565b5f600883026104c57fffffffffffffffffffffffffffffffffffffffffffffffffffffffffffffffff8261048a565b6104cf868361048a565b95508019841693508086168417925050509392505050565b5f819050919050565b5f61050a610505610500846101ab565b6104e7565b6101ab565b9050919050565b5f819050919050565b610523836104f0565b61053761052f82610511565b848454610496565b825550505050565b5f90565b61054b61053f565b61055681848461051a565b505050565b5b818110156105795761056e5f82610543565b60018101905061055c565b5050565b601f8211156105be5761058f81610469565b6105988461047b565b810160208510156105a7578190505b6105bb6105b38561047b565b83018261055b565b50505b505050565b5f82821c905092915050565b5f6105de5f19846008026105c3565b1980831691505092915050565b5f6105f683836105cf565b9150826002028217905092915050565b61060f82610209565b67ffffffffffffffff811115610628576106276102a1565b5b6106328254610439565b61063d82828561057d565b5f60209050601f83116001811461066e575f841561065c578287015190505b61066685826105eb565b8655506106cd565b601f19841661067c86610469565b5f5b828110156106a35784890151825560018201915060208501945060208101905061067e565b868310156106c057848901516106bc601f8916826105cf565b8355505b6001600288020188555050505b505050505050565b5f73ffffffffffffffffffffffffffffffffffffffff82169050919050565b5f6106fe826106d5565b9050919050565b61070e816106f4565b82525050565b5f6fffffffffffffffffffffffffffffffff82169050919050565b61073881610714565b82525050565b5f6040820190506107515f830185610705565b61075e602083018461072f565b939250505056fea26469706673582212206b1a52c84d4c3bbc0d8370a86f0c67bff48cbb5376387321d3bdef7d9354c41b64736f6c634300081a0033",
					"opcodes": "PUSH1 0x80 PUSH1 0x40 MSTORE CALLVALUE DUP1 ISZERO PUSH1 0xE JUMPI PUSH0 DUP1 REVERT JUMPDEST POP PUSH2 0x79B DUP1 PUSH2 0x1C PUSH0 CODECOPY PUSH0 RETURN INVALID PUSH1 0x80 PUSH1 0x40 MSTORE CALLVALUE DUP1 ISZERO PUSH2 0xF JUMPI PUSH0 DUP1 REVERT JUMPDEST POP PUSH1 0x4 CALLDATASIZE LT PUSH2 0x34 JUMPI PUSH0 CALLDATALOAD PUSH1 0xE0 SHR DUP1 PUSH4 0xD80FEFD EQ PUSH2 0x38 JUMPI DUP1 PUSH4 0x131A0680 EQ PUSH2 0x68 JUMPI JUMPDEST PUSH0 DUP1 REVERT JUMPDEST PUSH2 0x52 PUSH1 0x4 DUP1 CALLDATASIZE SUB DUP2 ADD SWAP1 PUSH2 0x4D SWAP2 SWAP1 PUSH2 0x1DE JUMP JUMPDEST PUSH2 0x84 JUMP JUMPDEST PUSH1 0x40 MLOAD PUSH2 0x5F SWAP2 SWAP1 PUSH2 0x279 JUMP JUMPDEST PUSH1 0x40 MLOAD DUP1 SWAP2 SUB SWAP1 RETURN JUMPDEST PUSH2 0x82 PUSH1 0x4 DUP1 CALLDATASIZE SUB DUP2 ADD SWAP1 PUSH2 0x7D SWAP2 SWAP1 PUSH2 0x3C5 JUMP JUMPDEST PUSH2 0x129 JUMP JUMPDEST STOP JUMPDEST PUSH0 DUP2 DUP2 SLOAD DUP2 LT PUSH2 0x92 JUMPI PUSH0 DUP1 REVERT JUMPDEST SWAP1 PUSH0 MSTORE PUSH1 0x20 PUSH0 KECCAK256 ADD PUSH0 SWAP2 POP SWAP1 POP DUP1 SLOAD PUSH2 0xAA SWAP1 PUSH2 0x439 JUMP JUMPDEST DUP1 PUSH1 0x1F ADD PUSH1 0x20 DUP1 SWAP2 DIV MUL PUSH1 0x20 ADD PUSH1 0x40 MLOAD SWAP1 DUP2 ADD PUSH1 0x40 MSTORE DUP1 SWAP3 SWAP2 SWAP1 DUP2 DUP2 MSTORE PUSH1 0x20 ADD DUP3 DUP1 SLOAD PUSH2 0xD6 SWAP1 PUSH2 0x439 JUMP JUMPDEST DUP1 ISZERO PUSH2 0x121 JUMPI DUP1 PUSH1 0x1F LT PUSH2 0xF8 JUMPI PUSH2 0x100 DUP1 DUP4 SLOAD DIV MUL DUP4 MSTORE SWAP2 PUSH1 0x20 ADD SWAP2 PUSH2 0x121 JUMP JUMPDEST DUP3 ADD SWAP2 SWAP1 PUSH0 MSTORE PUSH1 0x20 PUSH0 KECCAK256 SWAP1 JUMPDEST DUP2 SLOAD DUP2 MSTORE SWAP1 PUSH1 0x1 ADD SWAP1 PUSH1 0x20 ADD DUP1 DUP4 GT PUSH2 0x104 JUMPI DUP3 SWAP1 SUB PUSH1 0x1F AND DUP3 ADD SWAP2 JUMPDEST POP POP POP POP POP DUP2 JUMP JUMPDEST PUSH0 DUP2 SWAP1 DUP1 PUSH1 0x1 DUP2 SLOAD ADD DUP1 DUP3 SSTORE DUP1 SWAP2 POP POP PUSH1 0x1 SWAP1 SUB SWAP1 PUSH0 MSTORE PUSH1 0x20 PUSH0 KECCAK256 ADD PUSH0 SWAP1 SWAP2 SWAP1 SWAP2 SWAP1 SWAP2 POP SWAP1 DUP2 PUSH2 0x159 SWAP2 SWAP1 PUSH2 0x606 JUMP JUMPDEST POP PUSH32 0x425179BFDA06D3FBBC421B14193DB8C3D3DD6617D7A2D0100AD56804A1E608CE CALLER PUSH0 DUP1 SLOAD SWAP1 POP PUSH1 0x40 MLOAD PUSH2 0x18F SWAP3 SWAP2 SWAP1 PUSH2 0x73E JUMP JUMPDEST PUSH1 0x40 MLOAD DUP1 SWAP2 SUB SWAP1 LOG1 POP JUMP JUMPDEST PUSH0 PUSH1 0x40 MLOAD SWAP1 POP SWAP1 JUMP JUMPDEST PUSH0 DUP1 REVERT JUMPDEST PUSH0 DUP1 REVERT JUMPDEST PUSH0 DUP2 SWAP1 POP SWAP2 SWAP1 POP JUMP JUMPDEST PUSH2 0x1BD DUP2 PUSH2 0x1AB JUMP JUMPDEST DUP2 EQ PUSH2 0x1C7 JUMPI PUSH0 DUP1 REVERT JUMPDEST POP JUMP JUMPDEST PUSH0 DUP2 CALLDATALOAD SWAP1 POP PUSH2 0x1D8 DUP2 PUSH2 0x1B4 JUMP JUMPDEST SWAP3 SWAP2 POP POP JUMP JUMPDEST PUSH0 PUSH1 0x20 DUP3 DUP5 SUB SLT ISZERO PUSH2 0x1F3 JUMPI PUSH2 0x1F2 PUSH2 0x1A3 JUMP JUMPDEST JUMPDEST PUSH0 PUSH2 0x200 DUP5 DUP3 DUP6 ADD PUSH2 0x1CA JUMP JUMPDEST SWAP2 POP POP SWAP3 SWAP2 POP POP JUMP JUMPDEST PUSH0 DUP2 MLOAD SWAP1 POP SWAP2 SWAP1 POP JUMP JUMPDEST PUSH0 DUP3 DUP3 MSTORE PUSH1 0x20 DUP3 ADD SWAP1 POP SWAP3 SWAP2 POP POP JUMP JUMPDEST DUP3 DUP2 DUP4 MCOPY PUSH0 DUP4 DUP4 ADD MSTORE POP POP POP JUMP JUMPDEST PUSH0 PUSH1 0x1F NOT PUSH1 0x1F DUP4 ADD AND SWAP1 POP SWAP2 SWAP1 POP JUMP JUMPDEST PUSH0 PUSH2 0x24B DUP3 PUSH2 0x209 JUMP JUMPDEST PUSH2 0x255 DUP2 DUP6 PUSH2 0x213 JUMP JUMPDEST SWAP4 POP PUSH2 0x265 DUP2 DUP6 PUSH1 0x20 DUP7 ADD PUSH2 0x223 JUMP JUMPDEST PUSH2 0x26E DUP2 PUSH2 0x231 JUMP JUMPDEST DUP5 ADD SWAP2 POP POP SWAP3 SWAP2 POP POP JUMP JUMPDEST PUSH0 PUSH1 0x20 DUP3 ADD SWAP1 POP DUP2 DUP2 SUB PUSH0 DUP4 ADD MSTORE PUSH2 0x291 DUP2 DUP5 PUSH2 0x241 JUMP JUMPDEST SWAP1 POP SWAP3 SWAP2 POP POP JUMP JUMPDEST PUSH0 DUP1 REVERT JUMPDEST PUSH0 DUP1 REVERT JUMPDEST PUSH32 0x4E487B7100000000000000000000000000000000000000000000000000000000 PUSH0 MSTORE PUSH1 0x41 PUSH1 0x4 MSTORE PUSH1 0x24 PUSH0 REVERT JUMPDEST PUSH2 0x2D7 DUP3 PUSH2 0x231 JUMP JUMPDEST DUP2 ADD DUP2 DUP2 LT PUSH8 0xFFFFFFFFFFFFFFFF DUP3 GT OR ISZERO PUSH2 0x2F6 JUMPI PUSH2 0x2F5 PUSH2 0x2A1 JUMP JUMPDEST JUMPDEST DUP1 PUSH1 0x40 MSTORE POP POP POP JUMP JUMPDEST PUSH0 PUSH2 0x308 PUSH2 0x19A JUMP JUMPDEST SWAP1 POP PUSH2 0x314 DUP3 DUP3 PUSH2 0x2CE JUMP JUMPDEST SWAP2 SWAP1 POP JUMP JUMPDEST PUSH0 PUSH8 0xFFFFFFFFFFFFFFFF DUP3 GT ISZERO PUSH2 0x333 JUMPI PUSH2 0x332 PUSH2 0x2A1 JUMP JUMPDEST JUMPDEST PUSH2 0x33C DUP3 PUSH2 0x231 JUMP JUMPDEST SWAP1 POP PUSH1 0x20 DUP2 ADD SWAP1 POP SWAP2 SWAP1 POP JUMP JUMPDEST DUP3 DUP2 DUP4 CALLDATACOPY PUSH0 DUP4 DUP4 ADD MSTORE POP POP POP JUMP JUMPDEST PUSH0 PUSH2 0x369 PUSH2 0x364 DUP5 PUSH2 0x319 JUMP JUMPDEST PUSH2 0x2FF JUMP JUMPDEST SWAP1 POP DUP3 DUP2 MSTORE PUSH1 0x20 DUP2 ADD DUP5 DUP5 DUP5 ADD GT ISZERO PUSH2 0x385 JUMPI PUSH2 0x384 PUSH2 0x29D JUMP JUMPDEST JUMPDEST PUSH2 0x390 DUP5 DUP3 DUP6 PUSH2 0x349 JUMP JUMPDEST POP SWAP4 SWAP3 POP POP POP JUMP JUMPDEST PUSH0 DUP3 PUSH1 0x1F DUP4 ADD SLT PUSH2 0x3AC JUMPI PUSH2 0x3AB PUSH2 0x299 JUMP JUMPDEST JUMPDEST DUP2 CALLDATALOAD PUSH2 0x3BC DUP5 DUP3 PUSH1 0x20 DUP7 ADD PUSH2 0x357 JUMP JUMPDEST SWAP2 POP POP SWAP3 SWAP2 POP POP JUMP JUMPDEST PUSH0 PUSH1 0x20 DUP3 DUP5 SUB SLT ISZERO PUSH2 0x3DA JUMPI PUSH2 0x3D9 PUSH2 0x1A3 JUMP JUMPDEST JUMPDEST PUSH0 DUP3 ADD CALLDATALOAD PUSH8 0xFFFFFFFFFFFFFFFF DUP2 GT ISZERO PUSH2 0x3F7 JUMPI PUSH2 0x3F6 PUSH2 0x1A7 JUMP JUMPDEST JUMPDEST PUSH2 0x403 DUP5 DUP3 DUP6 ADD PUSH2 0x398 JUMP JUMPDEST SWAP2 POP POP SWAP3 SWAP2 POP POP JUMP JUMPDEST PUSH32 0x4E487B7100000000000000000000000000000000000000000000000000000000 PUSH0 MSTORE PUSH1 0x22 PUSH1 0x4 MSTORE PUSH1 0x24 PUSH0 REVERT JUMPDEST PUSH0 PUSH1 0x2 DUP3 DIV SWAP1 POP PUSH1 0x1 DUP3 AND DUP1 PUSH2 0x450 JUMPI PUSH1 0x7F DUP3 AND SWAP2 POP JUMPDEST PUSH1 0x20 DUP3 LT DUP2 SUB PUSH2 0x463 JUMPI PUSH2 0x462 PUSH2 0x40C JUMP JUMPDEST JUMPDEST POP SWAP2 SWAP1 POP JUMP JUMPDEST PUSH0 DUP2 SWAP1 POP DUP2 PUSH0 MSTORE PUSH1 0x20 PUSH0 KECCAK256 SWAP1 POP SWAP2 SWAP1 POP JUMP JUMPDEST PUSH0 PUSH1 0x20 PUSH1 0x1F DUP4 ADD DIV SWAP1 POP SWAP2 SWAP1 POP JUMP JUMPDEST PUSH0 DUP3 DUP3 SHL SWAP1 POP SWAP3 SWAP2 POP POP JUMP JUMPDEST PUSH0 PUSH1 0x8 DUP4 MUL PUSH2 0x4C5 PUSH32 0xFFFFFFFFFFFFFFFFFFFFFFFFFFFFFFFFFFFFFFFFFFFFFFFFFFFFFFFFFFFFFFFF DUP3 PUSH2 0x48A JUMP JUMPDEST PUSH2 0x4CF DUP7 DUP4 PUSH2 0x48A JUMP JUMPDEST SWAP6 POP DUP1 NOT DUP5 AND SWAP4 POP DUP1 DUP7 AND DUP5 OR SWAP3 POP POP POP SWAP4 SWAP3 POP POP POP JUMP JUMPDEST PUSH0 DUP2 SWAP1 POP SWAP2 SWAP1 POP JUMP JUMPDEST PUSH0 PUSH2 0x50A PUSH2 0x505 PUSH2 0x500 DUP5 PUSH2 0x1AB JUMP JUMPDEST PUSH2 0x4E7 JUMP JUMPDEST PUSH2 0x1AB JUMP JUMPDEST SWAP1 POP SWAP2 SWAP1 POP JUMP JUMPDEST PUSH0 DUP2 SWAP1 POP SWAP2 SWAP1 POP JUMP JUMPDEST PUSH2 0x523 DUP4 PUSH2 0x4F0 JUMP JUMPDEST PUSH2 0x537 PUSH2 0x52F DUP3 PUSH2 0x511 JUMP JUMPDEST DUP5 DUP5 SLOAD PUSH2 0x496 JUMP JUMPDEST DUP3 SSTORE POP POP POP POP JUMP JUMPDEST PUSH0 SWAP1 JUMP JUMPDEST PUSH2 0x54B PUSH2 0x53F JUMP JUMPDEST PUSH2 0x556 DUP2 DUP5 DUP5 PUSH2 0x51A JUMP JUMPDEST POP POP POP JUMP JUMPDEST JUMPDEST DUP2 DUP2 LT ISZERO PUSH2 0x579 JUMPI PUSH2 0x56E PUSH0 DUP3 PUSH2 0x543 JUMP JUMPDEST PUSH1 0x1 DUP2 ADD SWAP1 POP PUSH2 0x55C JUMP JUMPDEST POP POP JUMP JUMPDEST PUSH1 0x1F DUP3 GT ISZERO PUSH2 0x5BE JUMPI PUSH2 0x58F DUP2 PUSH2 0x469 JUMP JUMPDEST PUSH2 0x598 DUP5 PUSH2 0x47B JUMP JUMPDEST DUP2 ADD PUSH1 0x20 DUP6 LT ISZERO PUSH2 0x5A7 JUMPI DUP2 SWAP1 POP JUMPDEST PUSH2 0x5BB PUSH2 0x5B3 DUP6 PUSH2 0x47B JUMP JUMPDEST DUP4 ADD DUP3 PUSH2 0x55B JUMP JUMPDEST POP POP JUMPDEST POP POP POP JUMP JUMPDEST PUSH0 DUP3 DUP3 SHR SWAP1 POP SWAP3 SWAP2 POP POP JUMP JUMPDEST PUSH0 PUSH2 0x5DE PUSH0 NOT DUP5 PUSH1 0x8 MUL PUSH2 0x5C3 JUMP JUMPDEST NOT DUP1 DUP4 AND SWAP2 POP POP SWAP3 SWAP2 POP POP JUMP JUMPDEST PUSH0 PUSH2 0x5F6 DUP4 DUP4 PUSH2 0x5CF JUMP JUMPDEST SWAP2 POP DUP3 PUSH1 0x2 MUL DUP3 OR SWAP1 POP SWAP3 SWAP2 POP POP JUMP JUMPDEST PUSH2 0x60F DUP3 PUSH2 0x209 JUMP JUMPDEST PUSH8 0xFFFFFFFFFFFFFFFF DUP2 GT ISZERO PUSH2 0x628 JUMPI PUSH2 0x627 PUSH2 0x2A1 JUMP JUMPDEST JUMPDEST PUSH2 0x632 DUP3 SLOAD PUSH2 0x439 JUMP JUMPDEST PUSH2 0x63D DUP3 DUP3 DUP6 PUSH2 0x57D JUMP JUMPDEST PUSH0 PUSH1 0x20 SWAP1 POP PUSH1 0x1F DUP4 GT PUSH1 0x1 DUP2 EQ PUSH2 0x66E JUMPI PUSH0 DUP5 ISZERO PUSH2 0x65C JUMPI DUP3 DUP8 ADD MLOAD SWAP1 POP JUMPDEST PUSH2 0x666 DUP6 DUP3 PUSH2 0x5EB JUMP JUMPDEST DUP7 SSTORE POP PUSH2 0x6CD JUMP JUMPDEST PUSH1 0x1F NOT DUP5 AND PUSH2 0x67C DUP7 PUSH2 0x469 JUMP JUMPDEST PUSH0 JUMPDEST DUP3 DUP2 LT ISZERO PUSH2 0x6A3 JUMPI DUP5 DUP10 ADD MLOAD DUP3 SSTORE PUSH1 0x1 DUP3 ADD SWAP2 POP PUSH1 0x20 DUP6 ADD SWAP5 POP PUSH1 0x20 DUP2 ADD SWAP1 POP PUSH2 0x67E JUMP JUMPDEST DUP7 DUP4 LT ISZERO PUSH2 0x6C0 JUMPI DUP5 DUP10 ADD MLOAD PUSH2 0x6BC PUSH1 0x1F DUP10 AND DUP3 PUSH2 0x5CF JUMP JUMPDEST DUP4 SSTORE POP JUMPDEST PUSH1 0x1 PUSH1 0x2 DUP9 MUL ADD DUP9 SSTORE POP POP POP JUMPDEST POP POP POP POP POP POP JUMP JUMPDEST PUSH0 PUSH20 0xFFFFFFFFFFFFFFFFFFFFFFFFFFFFFFFFFFFFFFFF DUP3 AND SWAP1 POP SWAP2 SWAP1 POP JUMP JUMPDEST PUSH0 PUSH2 0x6FE DUP3 PUSH2 0x6D5 JUMP JUMPDEST SWAP1 POP SWAP2 SWAP1 POP JUMP JUMPDEST PUSH2 0x70E DUP2 PUSH2 0x6F4 JUMP JUMPDEST DUP3 MSTORE POP POP JUMP JUMPDEST PUSH0 PUSH16 0xFFFFFFFFFFFFFFFFFFFFFFFFFFFFFFFF DUP3 AND SWAP1 POP SWAP2 SWAP1 POP JUMP JUMPDEST PUSH2 0x738 DUP2 PUSH2 0x714 JUMP JUMPDEST DUP3 MSTORE POP POP JUMP JUMPDEST PUSH0 PUSH1 0x40 DUP3 ADD SWAP1 POP PUSH2 0x751 PUSH0 DUP4 ADD DUP6 PUSH2 0x705 JUMP JUMPDEST PUSH2 0x75E PUSH1 0x20 DUP4 ADD DUP5 PUSH2 0x72F JUMP JUMPDEST SWAP4 SWAP3 POP POP POP JUMP INVALID LOG2 PUSH5 0x6970667358 0x22 SLT KECCAK256 PUSH12 0x1A52C84D4C3BBC0D8370A86F 0xC PUSH8 0xBFF48CBB53763873 0x21 0xD3 0xBD 0xEF PUSH30 0x9354C41B64736F6C634300081A0033000000000000000000000000000000 "
				},
				"gasEstimates": {
					"creation": {
						"codeDepositCost": "389400",
						"executionCost": "422",
						"totalCost": "389822"
					},
					"external": {
						"messages(uint256)": "infinite",
						"store(string)": "infinite"
					}
				},
				"methodIdentifiers": {
					"messages(uint256)": "0d80fefd",
					"store(string)": "131a0680"
				}
			},
			"storageLayout": {
				"storage": [
					{
						"astId": 10,
						"contract": "simple_storage/SimpleStorage.sol:SimpleStorage",
						"label": "messages",
						"offset": 0,
						"slot": "0",
						"type": "t_array(t_string_storage)dyn_storage"
					}
				],
				"types": {
					"t_array(t_string_storage)dyn_storage": {
						"base": "t_string_storage",
						"encoding": "dynamic_array",
						"label": "string[]",
						"numberOfBytes": "32"
					},
					"t_string_storage": {
						"encoding": "bytes",
						"label": "string",
						"numberOfBytes": "32"
					}
				}
			},
			"userdoc": {
				"kind": "user",
				"methods": {},
				"version": 1
			}
		}
	}
}