{
  "_format": "hh-sol-artifact-1",
  "contractName": "ImplementationEIP1967One",
  "sourceName": "contracts/proxy-patterns/eip1967_upgradable_proxy/implementation.sol",
  "abi": [
    {
      "inputs": [],
      "name": "increment",
      "outputs": [],
      "stateMutability": "nonpayable",
      "type": "function"
    },
    {
      "inputs": [],
      "name": "number",
      "outputs": [
        {
          "internalType": "uint256",
          "name": "",
          "type": "uint256"
        }
      ],
      "stateMutability": "view",
      "type": "function"
    }
  ],
  "bytecode": "0x6080604052348015600f57600080fd5b5060c680601d6000396000f3fe6080604052348015600f57600080fd5b506004361060325760003560e01c80638381f58a146037578063d09de08a146051575b600080fd5b603f60005481565b60405190815260200160405180910390f35b60576059565b005b6000546065906001606a565b600055565b80820180821115608a57634e487b7160e01b600052601160045260246000fd5b9291505056fea264697066735822122025a84e03925404d5931ccc78b2b3729e3b7e25ac66b11e34c918d1f8de65ef5e64736f6c634300081a0033",
  "linkReferences": {},
  "deployedLinkReferences": {}
}