{"contracts/proxy-patterns/eip1967_upgradable_proxy/implementation_three.sol":{"ImplementationEIP1967Three":{"abi":[{"inputs":[],"name":"decrement","outputs":[],"stateMutability":"nonpayable","type":"function"},{"inputs":[],"name":"delta","outputs":[{"internalType":"uint256","name":"","type":"uint256"}],"stateMutability":"view","type":"function"},{"inputs":[{"internalType":"uint256","name":"_input","type":"uint256"}],"name":"multiply","outputs":[{"internalType":"uint256","name":"","type":"uint256"}],"stateMutability":"nonpayable","type":"function"},{"inputs":[],"name":"number","outputs":[{"internalType":"uint256","name":"","type":"uint256"}],"stateMutability":"view","type":"function"}],"evm":{"bytecode":{"linkReferences":{},"object":"6080604052348015600f57600080fd5b506101648061001f6000396000f3fe608060405234801561001057600080fd5b506004361061004c5760003560e01c806312b495a8146100515780632baeceb71461006c5780638381f58a14610076578063c6888fa11461007f575b600080fd5b61005a60015481565b60405190815260200160405180910390f35b610074610092565b005b61005a60005481565b61005a61008d3660046100cf565b6100a7565b6001546000546100a291906100fe565b600055565b6000816001546000546100ba9190610117565b6100c49190610117565b600081905592915050565b6000602082840312156100e157600080fd5b5035919050565b634e487b7160e01b600052601160045260246000fd5b81810381811115610111576101116100e8565b92915050565b8082028115828204841417610111576101116100e856fea2646970667358221220a3702c292a8932b2099275c6a26d52e47252176d35a15ce0323691c6093b9e9464736f6c634300081a0033","opcodes":"PUSH1 0x80 PUSH1 0x40 MSTORE CALLVALUE DUP1 ISZERO PUSH1 0xF JUMPI PUSH1 0x0 DUP1 REVERT JUMPDEST POP PUSH2 0x164 DUP1 PUSH2 0x1F PUSH1 0x0 CODECOPY PUSH1 0x0 RETURN INVALID PUSH1 0x80 PUSH1 0x40 MSTORE CALLVALUE DUP1 ISZERO PUSH2 0x10 JUMPI PUSH1 0x0 DUP1 REVERT JUMPDEST POP PUSH1 0x4 CALLDATASIZE LT PUSH2 0x4C JUMPI PUSH1 0x0 CALLDATALOAD PUSH1 0xE0 SHR DUP1 PUSH4 0x12B495A8 EQ PUSH2 0x51 JUMPI DUP1 PUSH4 0x2BAECEB7 EQ PUSH2 0x6C JUMPI DUP1 PUSH4 0x8381F58A EQ PUSH2 0x76 JUMPI DUP1 PUSH4 0xC6888FA1 EQ PUSH2 0x7F JUMPI JUMPDEST PUSH1 0x0 DUP1 REVERT JUMPDEST PUSH2 0x5A PUSH1 0x1 SLOAD DUP2 JUMP JUMPDEST PUSH1 0x40 MLOAD SWAP1 DUP2 MSTORE PUSH1 0x20 ADD PUSH1 0x40 MLOAD DUP1 SWAP2 SUB SWAP1 RETURN JUMPDEST PUSH2 0x74 PUSH2 0x92 JUMP JUMPDEST STOP JUMPDEST PUSH2 0x5A PUSH1 0x0 SLOAD DUP2 JUMP JUMPDEST PUSH2 0x5A PUSH2 0x8D CALLDATASIZE PUSH1 0x4 PUSH2 0xCF JUMP JUMPDEST PUSH2 0xA7 JUMP JUMPDEST PUSH1 0x1 SLOAD PUSH1 0x0 SLOAD PUSH2 0xA2 SWAP2 SWAP1 PUSH2 0xFE JUMP JUMPDEST PUSH1 0x0 SSTORE JUMP JUMPDEST PUSH1 0x0 DUP2 PUSH1 0x1 SLOAD PUSH1 0x0 SLOAD PUSH2 0xBA SWAP2 SWAP1 PUSH2 0x117 JUMP JUMPDEST PUSH2 0xC4 SWAP2 SWAP1 PUSH2 0x117 JUMP JUMPDEST PUSH1 0x0 DUP2 SWAP1 SSTORE SWAP3 SWAP2 POP POP JUMP JUMPDEST PUSH1 0x0 PUSH1 0x20 DUP3 DUP5 SUB SLT ISZERO PUSH2 0xE1 JUMPI PUSH1 0x0 DUP1 REVERT JUMPDEST POP CALLDATALOAD SWAP2 SWAP1 POP JUMP JUMPDEST PUSH4 0x4E487B71 PUSH1 0xE0 SHL PUSH1 0x0 MSTORE PUSH1 0x11 PUSH1 0x4 MSTORE PUSH1 0x24 PUSH1 0x0 REVERT JUMPDEST DUP2 DUP2 SUB DUP2 DUP2 GT ISZERO PUSH2 0x111 JUMPI PUSH2 0x111 PUSH2 0xE8 JUMP JUMPDEST SWAP3 SWAP2 POP POP JUMP JUMPDEST DUP1 DUP3 MUL DUP2 ISZERO DUP3 DUP3 DIV DUP5 EQ OR PUSH2 0x111 JUMPI PUSH2 0x111 PUSH2 0xE8 JUMP INVALID LOG2 PUSH5 0x6970667358 0x22 SLT KECCAK256 LOG3 PUSH17 0x2C292A8932B2099275C6A26D52E4725217 PUSH14 0x35A15CE0323691C6093B9E946473 PUSH16 0x6C634300081A00330000000000000000 "},"methodIdentifiers":{"decrement()":"2baeceb7","delta()":"12b495a8","multiply(uint256)":"c6888fa1","number()":"8381f58a"}}}}}