{"contracts/proxy-patterns/eip1967_upgradable_proxy/implementation_two.sol":{"ImplementationEIP1967Two":{"abi":[{"inputs":[],"name":"decrement","outputs":[],"stateMutability":"nonpayable","type":"function"},{"inputs":[],"name":"increment","outputs":[],"stateMutability":"nonpayable","type":"function"},{"inputs":[{"internalType":"uint256","name":"_input","type":"uint256"}],"name":"multiply","outputs":[],"stateMutability":"nonpayable","type":"function"},{"inputs":[],"name":"number","outputs":[{"internalType":"uint256","name":"","type":"uint256"}],"stateMutability":"view","type":"function"}],"evm":{"bytecode":{"linkReferences":{},"object":"6080604052348015600f57600080fd5b5061016f8061001f6000396000f3fe608060405234801561001057600080fd5b506004361061004c5760003560e01c80632baeceb7146100515780638381f58a1461005b578063c6888fa114610076578063d09de08a14610089575b600080fd5b610059610091565b005b61006460005481565b60405190815260200160405180910390f35b6100596100843660046100c7565b6100a5565b6100596100b9565b60016000546100a091906100f6565b600055565b806000546100b3919061010f565b60005550565b6000546100a0906001610126565b6000602082840312156100d957600080fd5b5035919050565b634e487b7160e01b600052601160045260246000fd5b81810381811115610109576101096100e0565b92915050565b8082028115828204841417610109576101096100e0565b80820180821115610109576101096100e056fea26469706673582212201ba7172805ed90de92fa16fa3aa73e4fc7f32e70dd883f8f3ef1c8b00e87e5ed64736f6c634300081a0033","opcodes":"PUSH1 0x80 PUSH1 0x40 MSTORE CALLVALUE DUP1 ISZERO PUSH1 0xF JUMPI PUSH1 0x0 DUP1 REVERT JUMPDEST POP PUSH2 0x16F DUP1 PUSH2 0x1F PUSH1 0x0 CODECOPY PUSH1 0x0 RETURN INVALID PUSH1 0x80 PUSH1 0x40 MSTORE CALLVALUE DUP1 ISZERO PUSH2 0x10 JUMPI PUSH1 0x0 DUP1 REVERT JUMPDEST POP PUSH1 0x4 CALLDATASIZE LT PUSH2 0x4C JUMPI PUSH1 0x0 CALLDATALOAD PUSH1 0xE0 SHR DUP1 PUSH4 0x2BAECEB7 EQ PUSH2 0x51 JUMPI DUP1 PUSH4 0x8381F58A EQ PUSH2 0x5B JUMPI DUP1 PUSH4 0xC6888FA1 EQ PUSH2 0x76 JUMPI DUP1 PUSH4 0xD09DE08A EQ PUSH2 0x89 JUMPI JUMPDEST PUSH1 0x0 DUP1 REVERT JUMPDEST PUSH2 0x59 PUSH2 0x91 JUMP JUMPDEST STOP JUMPDEST PUSH2 0x64 PUSH1 0x0 SLOAD DUP2 JUMP JUMPDEST PUSH1 0x40 MLOAD SWAP1 DUP2 MSTORE PUSH1 0x20 ADD PUSH1 0x40 MLOAD DUP1 SWAP2 SUB SWAP1 RETURN JUMPDEST PUSH2 0x59 PUSH2 0x84 CALLDATASIZE PUSH1 0x4 PUSH2 0xC7 JUMP JUMPDEST PUSH2 0xA5 JUMP JUMPDEST PUSH2 0x59 PUSH2 0xB9 JUMP JUMPDEST PUSH1 0x1 PUSH1 0x0 SLOAD PUSH2 0xA0 SWAP2 SWAP1 PUSH2 0xF6 JUMP JUMPDEST PUSH1 0x0 SSTORE JUMP JUMPDEST DUP1 PUSH1 0x0 SLOAD PUSH2 0xB3 SWAP2 SWAP1 PUSH2 0x10F JUMP JUMPDEST PUSH1 0x0 SSTORE POP JUMP JUMPDEST PUSH1 0x0 SLOAD PUSH2 0xA0 SWAP1 PUSH1 0x1 PUSH2 0x126 JUMP JUMPDEST PUSH1 0x0 PUSH1 0x20 DUP3 DUP5 SUB SLT ISZERO PUSH2 0xD9 JUMPI PUSH1 0x0 DUP1 REVERT JUMPDEST POP CALLDATALOAD SWAP2 SWAP1 POP JUMP JUMPDEST PUSH4 0x4E487B71 PUSH1 0xE0 SHL PUSH1 0x0 MSTORE PUSH1 0x11 PUSH1 0x4 MSTORE PUSH1 0x24 PUSH1 0x0 REVERT JUMPDEST DUP2 DUP2 SUB DUP2 DUP2 GT ISZERO PUSH2 0x109 JUMPI PUSH2 0x109 PUSH2 0xE0 JUMP JUMPDEST SWAP3 SWAP2 POP POP JUMP JUMPDEST DUP1 DUP3 MUL DUP2 ISZERO DUP3 DUP3 DIV DUP5 EQ OR PUSH2 0x109 JUMPI PUSH2 0x109 PUSH2 0xE0 JUMP JUMPDEST DUP1 DUP3 ADD DUP1 DUP3 GT ISZERO PUSH2 0x109 JUMPI PUSH2 0x109 PUSH2 0xE0 JUMP INVALID LOG2 PUSH5 0x6970667358 0x22 SLT KECCAK256 SHL 0xA7 OR 0x28 SDIV 0xED SWAP1 0xDE SWAP3 STATICCALL AND STATICCALL GASPRICE 0xA7 RETURNDATACOPY 0x4F 0xC7 RETURN 0x2E PUSH17 0xDD883F8F3EF1C8B00E87E5ED64736F6C63 NUMBER STOP ADDMOD BYTE STOP CALLER "},"methodIdentifiers":{"decrement()":"2baeceb7","increment()":"d09de08a","multiply(uint256)":"c6888fa1","number()":"8381f58a"}}}}}