{"contracts/proxy-patterns/eip1967_upgradable_proxy/SimpleProxy.sol":{"SimpleProxy":{"abi":[{"inputs":[],"stateMutability":"nonpayable","type":"constructor"},{"stateMutability":"nonpayable","type":"fallback"},{"inputs":[{"internalType":"address","name":"_implementation","type":"address"}],"name":"setImplementation","outputs":[],"stateMutability":"nonpayable","type":"function"}],"evm":{"bytecode":{"linkReferences":{},"object":"6080604052348015600f57600080fd5b50337fb53127684a568b3173ae13b9f8a6016eaf15eb9e8e9f03347e2db6a3ec1e1cb055610280806100426000396000f3fe608060405234801561001057600080fd5b506004361061002b5760003560e01c8063d784d4261461015d575b7f360894a13ba1a3210667c828492db98dca3e2076cc3735a920a3ca505d382bbc5460009036906060906001600160a01b0381166100a95760405162461bcd60e51b8152602060048201526016602482015275125b5c1b195b595b9d185d1a5bdb881b9bdd081cd95d60521b60448201526064015b60405180910390fd5b600080826001600160a01b031686866040516100c692919061020a565b600060405180830381855af49150503d8060008114610101576040519150601f19603f3d011682016040523d82523d6000602084013e610106565b606091505b50915091508161014f5760405162461bcd60e51b815260206004820152601460248201527311195b1959d85d194810d85b1b0811985a5b195960621b60448201526064016100a0565b805195506020019350505050f35b61017061016b36600461021a565b610172565b005b7fb53127684a568b3173ae13b9f8a6016eaf15eb9e8e9f03347e2db6a3ec1e1cb0546001600160a01b03811633146101e55760405162461bcd60e51b81526020600482015260166024820152752737ba103a34329031b7b73a3930b1ba1027bbb732b960511b60448201526064016100a0565b507f360894a13ba1a3210667c828492db98dca3e2076cc3735a920a3ca505d382bbc55565b8183823760009101908152919050565b60006020828403121561022c57600080fd5b81356001600160a01b038116811461024357600080fd5b939250505056fea264697066735822122054e6fbca5d91054284f73750bdd6fc87ce14602ad85a69a535dbafbf15bb0d9164736f6c634300081a0033","opcodes":"PUSH1 0x80 PUSH1 0x40 MSTORE CALLVALUE DUP1 ISZERO PUSH1 0xF JUMPI PUSH1 0x0 DUP1 REVERT JUMPDEST POP CALLER PUSH32 0xB53127684A568B3173AE13B9F8A6016EAF15EB9E8E9F03347E2DB6A3EC1E1CB0 SSTORE PUSH2 0x280 DUP1 PUSH2 0x42 PUSH1 0x0 CODECOPY PUSH1 0x0 RETURN INVALID PUSH1 0x80 PUSH1 0x40 MSTORE CALLVALUE DUP1 ISZERO PUSH2 0x10 JUMPI PUSH1 0x0 DUP1 REVERT JUMPDEST POP PUSH1 0x4 CALLDATASIZE LT PUSH2 0x2B JUMPI PUSH1 0x0 CALLDATALOAD PUSH1 0xE0 SHR DUP1 PUSH4 0xD784D426 EQ PUSH2 0x15D JUMPI JUMPDEST PUSH32 0x360894A13BA1A3210667C828492DB98DCA3E2076CC3735A920A3CA505D382BBC SLOAD PUSH1 0x0 SWAP1 CALLDATASIZE SWAP1 PUSH1 0x60 SWAP1 PUSH1 0x1 PUSH1 0x1 PUSH1 0xA0 SHL SUB DUP2 AND PUSH2 0xA9 JUMPI PUSH1 0x40 MLOAD PUSH3 0x461BCD PUSH1 0xE5 SHL DUP2 MSTORE PUSH1 0x20 PUSH1 0x4 DUP3 ADD MSTORE PUSH1 0x16 PUSH1 0x24 DUP3 ADD MSTORE PUSH22 0x125B5C1B195B595B9D185D1A5BDB881B9BDD081CD95D PUSH1 0x52 SHL PUSH1 0x44 DUP3 ADD MSTORE PUSH1 0x64 ADD JUMPDEST PUSH1 0x40 MLOAD DUP1 SWAP2 SUB SWAP1 REVERT JUMPDEST PUSH1 0x0 DUP1 DUP3 PUSH1 0x1 PUSH1 0x1 PUSH1 0xA0 SHL SUB AND DUP7 DUP7 PUSH1 0x40 MLOAD PUSH2 0xC6 SWAP3 SWAP2 SWAP1 PUSH2 0x20A JUMP JUMPDEST PUSH1 0x0 PUSH1 0x40 MLOAD DUP1 DUP4 SUB DUP2 DUP6 GAS DELEGATECALL SWAP2 POP POP RETURNDATASIZE DUP1 PUSH1 0x0 DUP2 EQ PUSH2 0x101 JUMPI PUSH1 0x40 MLOAD SWAP2 POP PUSH1 0x1F NOT PUSH1 0x3F RETURNDATASIZE ADD AND DUP3 ADD PUSH1 0x40 MSTORE RETURNDATASIZE DUP3 MSTORE RETURNDATASIZE PUSH1 0x0 PUSH1 0x20 DUP5 ADD RETURNDATACOPY PUSH2 0x106 JUMP JUMPDEST PUSH1 0x60 SWAP2 POP JUMPDEST POP SWAP2 POP SWAP2 POP DUP2 PUSH2 0x14F JUMPI PUSH1 0x40 MLOAD PUSH3 0x461BCD PUSH1 0xE5 SHL DUP2 MSTORE PUSH1 0x20 PUSH1 0x4 DUP3 ADD MSTORE PUSH1 0x14 PUSH1 0x24 DUP3 ADD MSTORE PUSH20 0x11195B1959D85D194810D85B1B0811985A5B1959 PUSH1 0x62 SHL PUSH1 0x44 DUP3 ADD MSTORE PUSH1 0x64 ADD PUSH2 0xA0 JUMP JUMPDEST DUP1 MLOAD SWAP6 POP PUSH1 0x20 ADD SWAP4 POP POP POP POP RETURN JUMPDEST PUSH2 0x170 PUSH2 0x16B CALLDATASIZE PUSH1 0x4 PUSH2 0x21A JUMP JUMPDEST PUSH2 0x172 JUMP JUMPDEST STOP JUMPDEST PUSH32 0xB53127684A568B3173AE13B9F8A6016EAF15EB9E8E9F03347E2DB6A3EC1E1CB0 SLOAD PUSH1 0x1 PUSH1 0x1 PUSH1 0xA0 SHL SUB DUP2 AND CALLER EQ PUSH2 0x1E5 JUMPI PUSH1 0x40 MLOAD PUSH3 0x461BCD PUSH1 0xE5 SHL DUP2 MSTORE PUSH1 0x20 PUSH1 0x4 DUP3 ADD MSTORE PUSH1 0x16 PUSH1 0x24 DUP3 ADD MSTORE PUSH22 0x2737BA103A34329031B7B73A3930B1BA1027BBB732B9 PUSH1 0x51 SHL PUSH1 0x44 DUP3 ADD MSTORE PUSH1 0x64 ADD PUSH2 0xA0 JUMP JUMPDEST POP PUSH32 0x360894A13BA1A3210667C828492DB98DCA3E2076CC3735A920A3CA505D382BBC SSTORE JUMP JUMPDEST DUP2 DUP4 DUP3 CALLDATACOPY PUSH1 0x0 SWAP2 ADD SWAP1 DUP2 MSTORE SWAP2 SWAP1 POP JUMP JUMPDEST PUSH1 0x0 PUSH1 0x20 DUP3 DUP5 SUB SLT ISZERO PUSH2 0x22C JUMPI PUSH1 0x0 DUP1 REVERT JUMPDEST DUP2 CALLDATALOAD PUSH1 0x1 PUSH1 0x1 PUSH1 0xA0 SHL SUB DUP2 AND DUP2 EQ PUSH2 0x243 JUMPI PUSH1 0x0 DUP1 REVERT JUMPDEST SWAP4 SWAP3 POP POP POP JUMP INVALID LOG2 PUSH5 0x6970667358 0x22 SLT KECCAK256 SLOAD 0xE6 0xFB 0xCA TSTORE SWAP2 SDIV TIMESTAMP DUP5 0xF7 CALLDATACOPY POP 0xBD 0xD6 0xFC DUP8 0xCE EQ PUSH1 0x2A 0xD8 GAS PUSH10 0xA535DBAFBF15BB0D9164 PUSH20 0x6F6C634300081A00330000000000000000000000 "},"methodIdentifiers":{"setImplementation(address)":"d784d426"}}}}}