{"contracts/proxy-patterns/eip1967_upgradable_proxy/implementation.sol":{"ImplementationEIP1967One":{"abi":[{"inputs":[],"name":"increment","outputs":[],"stateMutability":"nonpayable","type":"function"},{"inputs":[],"name":"number","outputs":[{"internalType":"uint256","name":"","type":"uint256"}],"stateMutability":"view","type":"function"}],"evm":{"bytecode":{"linkReferences":{},"object":"6080604052348015600f57600080fd5b5060c680601d6000396000f3fe6080604052348015600f57600080fd5b506004361060325760003560e01c80638381f58a146037578063d09de08a146051575b600080fd5b603f60005481565b60405190815260200160405180910390f35b60576059565b005b6000546065906001606a565b600055565b80820180821115608a57634e487b7160e01b600052601160045260246000fd5b9291505056fea264697066735822122025a84e03925404d5931ccc78b2b3729e3b7e25ac66b11e34c918d1f8de65ef5e64736f6c634300081a0033","opcodes":"PUSH1 0x80 PUSH1 0x40 MSTORE CALLVALUE DUP1 ISZERO PUSH1 0xF JUMPI PUSH1 0x0 DUP1 REVERT JUMPDEST POP PUSH1 0xC6 DUP1 PUSH1 0x1D PUSH1 0x0 CODECOPY PUSH1 0x0 RETURN INVALID PUSH1 0x80 PUSH1 0x40 MSTORE CALLVALUE DUP1 ISZERO PUSH1 0xF JUMPI PUSH1 0x0 DUP1 REVERT JUMPDEST POP PUSH1 0x4 CALLDATASIZE LT PUSH1 0x32 JUMPI PUSH1 0x0 CALLDATALOAD PUSH1 0xE0 SHR DUP1 PUSH4 0x8381F58A EQ PUSH1 0x37 JUMPI DUP1 PUSH4 0xD09DE08A EQ PUSH1 0x51 JUMPI JUMPDEST PUSH1 0x0 DUP1 REVERT JUMPDEST PUSH1 0x3F PUSH1 0x0 SLOAD DUP2 JUMP JUMPDEST PUSH1 0x40 MLOAD SWAP1 DUP2 MSTORE PUSH1 0x20 ADD PUSH1 0x40 MLOAD DUP1 SWAP2 SUB SWAP1 RETURN JUMPDEST PUSH1 0x57 PUSH1 0x59 JUMP JUMPDEST STOP JUMPDEST PUSH1 0x0 SLOAD PUSH1 0x65 SWAP1 PUSH1 0x1 PUSH1 0x6A JUMP JUMPDEST PUSH1 0x0 SSTORE JUMP JUMPDEST DUP1 DUP3 ADD DUP1 DUP3 GT ISZERO PUSH1 0x8A JUMPI PUSH4 0x4E487B71 PUSH1 0xE0 SHL PUSH1 0x0 MSTORE PUSH1 0x11 PUSH1 0x4 MSTORE PUSH1 0x24 PUSH1 0x0 REVERT JUMPDEST SWAP3 SWAP2 POP POP JUMP INVALID LOG2 PUSH5 0x6970667358 0x22 SLT KECCAK256 0x25 0xA8 0x4E SUB SWAP3 SLOAD DIV 0xD5 SWAP4 SHR 0xCC PUSH25 0xB2B3729E3B7E25AC66B11E34C918D1F8DE65EF5E64736F6C63 NUMBER STOP ADDMOD BYTE STOP CALLER "},"methodIdentifiers":{"increment()":"d09de08a","number()":"8381f58a"}}}}}