{"contracts/008_using_structs.sol":{"OrderAccounting":{"abi":[{"inputs":[],"stateMutability":"payable","type":"constructor"},{"inputs":[{"internalType":"uint256","name":"_userId","type":"uint256"},{"components":[{"internalType":"uint256","name":"orderNum","type":"uint256"},{"components":[{"internalType":"uint256","name":"itemId","type":"uint256"},{"internalType":"string","name":"itemName","type":"string"},{"internalType":"uint256","name":"price","type":"uint256"}],"internalType":"struct OrderAccounting.Item[]","name":"itemList","type":"tuple[]"},{"internalType":"uint256","name":"userId","type":"uint256"},{"internalType":"uint256","name":"resturantId","type":"uint256"}],"internalType":"struct OrderAccounting.FoodOrder","name":"_foodOrder","type":"tuple"}],"name":"addNewOrder","outputs":[{"components":[{"internalType":"uint256","name":"orderNum","type":"uint256"},{"components":[{"internalType":"uint256","name":"itemId","type":"uint256"},{"internalType":"string","name":"itemName","type":"string"},{"internalType":"uint256","name":"price","type":"uint256"}],"internalType":"struct OrderAccounting.Item[]","name":"itemList","type":"tuple[]"},{"internalType":"uint256","name":"userId","type":"uint256"},{"internalType":"uint256","name":"resturantId","type":"uint256"}],"internalType":"struct OrderAccounting.FoodOrder","name":"","type":"tuple"}],"stateMutability":"payable","type":"function"},{"inputs":[{"internalType":"uint256","name":"_userId","type":"uint256"},{"internalType":"uint256","name":"_orderNum","type":"uint256"}],"name":"getUserOrderInfo","outputs":[{"components":[{"internalType":"uint256","name":"orderNum","type":"uint256"},{"components":[{"internalType":"uint256","name":"itemId","type":"uint256"},{"internalType":"string","name":"itemName","type":"string"},{"internalType":"uint256","name":"price","type":"uint256"}],"internalType":"struct OrderAccounting.Item[]","name":"itemList","type":"tuple[]"},{"internalType":"uint256","name":"userId","type":"uint256"},{"internalType":"uint256","name":"resturantId","type":"uint256"}],"internalType":"struct OrderAccounting.FoodOrder","name":"","type":"tuple"}],"stateMutability":"view","type":"function"},{"inputs":[{"internalType":"uint256","name":"","type":"uint256"},{"internalType":"uint256","name":"","type":"uint256"}],"name":"orderStatusMap","outputs":[{"internalType":"enum OrderAccounting.OrderStatus","name":"","type":"uint8"}],"stateMutability":"view","type":"function"},{"inputs":[{"internalType":"uint256","name":"","type":"uint256"},{"internalType":"uint256","name":"","type":"uint256"}],"name":"userFoodOrderMap","outputs":[{"internalType":"uint256","name":"orderNum","type":"uint256"},{"internalType":"uint256","name":"userId","type":"uint256"},{"internalType":"uint256","name":"resturantId","type":"uint256"}],"stateMutability":"view","type":"function"},{"inputs":[{"internalType":"uint256","name":"","type":"uint256"}],"name":"userLastOrderNumMap","outputs":[{"internalType":"uint256","name":"","type":"uint256"}],"stateMutability":"view","type":"function"},{"stateMutability":"payable","type":"receive"}],"evm":{"bytecode":{"linkReferences":{},"object":"6080604052610eea806100136000396000f3fe60806040526004361061004e5760003560e01c806343de550f1461005a578063518ac95c146100be57806380ec1d9d14610106578063f258ee7614610133578063f7274fa31461016e57600080fd5b3661005557005b600080fd5b34801561006657600080fd5b5061009e6100753660046108e8565b600060208181529281526040808220909352908152208054600282015460039092015490919083565b604080519384526020840192909252908201526060015b60405180910390f35b3480156100ca57600080fd5b506100f96100d93660046108e8565b600260209081526000928352604080842090915290825290205460ff1681565b6040516100b59190610920565b34801561011257600080fd5b506101266101213660046108e8565b610181565b6040516100b5919061098e565b34801561013f57600080fd5b5061016061014e366004610a40565b60016020526000908152604090205481565b6040519081526020016100b5565b61012661017c366004610a59565b6102f1565b6101ac6040518060800160405280600081526020016060815260200160008152602001600081525090565b60008381526020818152604080832085845282528083208151608081018352815481526001820180548451818702810187019095528085529195929486810194939192919084015b828210156102cc57838290600052602060002090600302016040518060600160405290816000820154815260200160018201805461023190610aa7565b80601f016020809104026020016040519081016040528092919081815260200182805461025d90610aa7565b80156102aa5780601f1061027f576101008083540402835291602001916102aa565b820191906000526020600020905b81548152906001019060200180831161028d57829003601f168201915b50505050508152602001600282015481525050815260200190600101906101f4565b5050505081526020016002820154815260200160038201548152505090505b92915050565b61031c6040518060800160405280600081526020016060815260200160008152602001600081525090565b60006103278461063f565b905061033584826000610683565b60008061034a8361034587610b74565b6106c3565b9150915081341161039a5760405162461bcd60e51b81526020600482015260156024820152741d5cd95c881a5cc81cda1bdc9d081bdb88189a5b1b605a1b60448201526064015b60405180910390fd5b60008681526020818152604080832086845290915290206103bc90829061077b565b5060006103c98334610d31565b604051909150600090339083156108fc0290849084818181858888f193505050509050806104455760405162461bcd60e51b8152602060048201526024808201527f4661696c656420746f2073656e64206261636b2072656d61696e696e6720616d6044820152631bdd5b9d60e21b6064820152608401610391565b60008881526020818152604080832088845290915290206001015461046990610818565b604080518082018252600c81526b027b93232b910273ab69016160a51b60208083019190915260008b815280825283812089825290915291909120546104af9190610860565b604080518082018252600a81526902ab9b2b91024a21016160b51b60208083019190915260008b815280825283812089825290915291909120600201546104f69190610860565b60008881526020818152604080832088845282528083208151608081018352815481526001820180548451818702810187019095528085529195929486810194939192919084015b8282101561061657838290600052602060002090600302016040518060600160405290816000820154815260200160018201805461057b90610aa7565b80601f01602080910402602001604051908101604052809291908181526020018280546105a790610aa7565b80156105f45780601f106105c9576101008083540402835291602001916105f4565b820191906000526020600020905b8154815290600101906020018083116105d757829003601f168201915b505050505081526020016002820154815250508152602001906001019061053e565b505050508152602001600282015481526020016003820154815250509550505050505092915050565b60008181526001602081905260408220549061065c908290610d44565b60008481526001602081905260409091209190915561067c908290610d44565b9392505050565b60008381526002602090815260408083208584529091529020805482919060ff191660018360088111156106b9576106b961090a565b0217905550505050565b60006106f06040518060800160405280600081526020016060815260200160008152602001600081525090565b6000805b84602001515181101561076f57600061073286606001518760200151848151811061072157610721610d57565b6020026020010151600001516108a9565b9050808660200151838151811061074b5761074b610d57565b6020908102919091010151604001526107648184610d44565b9250506001016106f4565b50938352509192909150565b8151815560608201516003820155604082015160028201556000805b8360200151518110156108105782600101846020015182815181106107be576107be610d57565b60209081029190910181015182546001818101855560009485529383902082516003909202019081559181015190928201906107fa9082610dbc565b5060409190910151600290910155600101610797565b509092915050565b61085d8160405160240161082e91815260200190565b60408051601f198184030181529190526020810180516001600160e01b031663f82c50f160e01b1790526108c3565b50565b6108a58282604051602401610876929190610e7b565b60408051601f198184030181529190526020810180516001600160e01b0316632d839cb360e21b1790526108c3565b5050565b60006108b58284610e9d565b61067c90633b9aca00610e9d565b61085d8160006a636f6e736f6c652e6c6f679050600080835160208501845afa505050565b600080604083850312156108fb57600080fd5b50508035926020909101359150565b634e487b7160e01b600052602160045260246000fd5b602081016009831061094257634e487b7160e01b600052602160045260246000fd5b91905290565b6000815180845260005b8181101561096e57602081850181015186830182015201610952565b506000602082860101526020601f19601f83011685010191505092915050565b60208152600060a082018351602084015260208401516080604085015281815180845260c08601915060c08160051b870101935060208301925060005b81811015610a1e5760bf198786030183528351805186526020810151606060208801526109fb6060880182610948565b6040928301519790920196909652945060209384019392909201916001016109cb565b5050505060408401516060840152606084015160808401528091505092915050565b600060208284031215610a5257600080fd5b5035919050565b60008060408385031215610a6c57600080fd5b82359150602083013567ffffffffffffffff811115610a8a57600080fd5b830160808186031215610a9c57600080fd5b809150509250929050565b600181811c90821680610abb57607f821691505b602082108103610adb57634e487b7160e01b600052602260045260246000fd5b50919050565b634e487b7160e01b600052604160045260246000fd5b6040516080810167ffffffffffffffff81118282101715610b1a57610b1a610ae1565b60405290565b6040516060810167ffffffffffffffff81118282101715610b1a57610b1a610ae1565b604051601f8201601f1916810167ffffffffffffffff81118282101715610b6c57610b6c610ae1565b604052919050565b600060808236031215610b8657600080fd5b610b8e610af7565b82358152602083013567ffffffffffffffff811115610bac57600080fd5b830136601f820112610bbd57600080fd5b803567ffffffffffffffff811115610bd757610bd7610ae1565b8060051b610be760208201610b43565b91825260208184018101929081019036841115610c0357600080fd5b6020850192505b83831015610cf757823567ffffffffffffffff811115610c2957600080fd5b8501606036829003601f19011215610c4057600080fd5b610c48610b20565b60208201358152604082013567ffffffffffffffff811115610c6957600080fd5b602081840101905036601f820112610c8057600080fd5b803567ffffffffffffffff811115610c9a57610c9a610ae1565b610cad601f8201601f1916602001610b43565b818152366020838501011115610cc257600080fd5b816020840160208301376000602092820183015283820152606093909301356040830152508352928301929190910190610c0a565b60208601525050505060408381013590820152606092830135928101929092525090565b634e487b7160e01b600052601160045260246000fd5b818103818111156102eb576102eb610d1b565b808201808211156102eb576102eb610d1b565b634e487b7160e01b600052603260045260246000fd5b601f821115610db757806000526020600020601f840160051c81016020851015610d945750805b601f840160051c820191505b81811015610db45760008155600101610da0565b50505b505050565b815167ffffffffffffffff811115610dd657610dd6610ae1565b610dea81610de48454610aa7565b84610d6d565b6020601f821160018114610e1e5760008315610e065750848201515b600019600385901b1c1916600184901b178455610db4565b600084815260208120601f198516915b82811015610e4e5787850151825560209485019460019092019101610e2e565b5084821015610e6c5786840151600019600387901b60f8161c191681555b50505050600190811b01905550565b604081526000610e8e6040830185610948565b90508260208301529392505050565b80820281158282048414176102eb576102eb610d1b56fea2646970667358221220fe75c085d92f879b1153b9ca3913daaa83a2f0313f5d3f8fc7f393fdb7bb7f0964736f6c634300081a0033","opcodes":"PUSH1 0x80 PUSH1 0x40 MSTORE PUSH2 0xEEA DUP1 PUSH2 0x13 PUSH1 0x0 CODECOPY PUSH1 0x0 RETURN INVALID PUSH1 0x80 PUSH1 0x40 MSTORE PUSH1 0x4 CALLDATASIZE LT PUSH2 0x4E JUMPI PUSH1 0x0 CALLDATALOAD PUSH1 0xE0 SHR DUP1 PUSH4 0x43DE550F EQ PUSH2 0x5A JUMPI DUP1 PUSH4 0x518AC95C EQ PUSH2 0xBE JUMPI DUP1 PUSH4 0x80EC1D9D EQ PUSH2 0x106 JUMPI DUP1 PUSH4 0xF258EE76 EQ PUSH2 0x133 JUMPI DUP1 PUSH4 0xF7274FA3 EQ PUSH2 0x16E JUMPI PUSH1 0x0 DUP1 REVERT JUMPDEST CALLDATASIZE PUSH2 0x55 JUMPI STOP JUMPDEST PUSH1 0x0 DUP1 REVERT JUMPDEST CALLVALUE DUP1 ISZERO PUSH2 0x66 JUMPI PUSH1 0x0 DUP1 REVERT JUMPDEST POP PUSH2 0x9E PUSH2 0x75 CALLDATASIZE PUSH1 0x4 PUSH2 0x8E8 JUMP JUMPDEST PUSH1 0x0 PUSH1 0x20 DUP2 DUP2 MSTORE SWAP3 DUP2 MSTORE PUSH1 0x40 DUP1 DUP3 KECCAK256 SWAP1 SWAP4 MSTORE SWAP1 DUP2 MSTORE KECCAK256 DUP1 SLOAD PUSH1 0x2 DUP3 ADD SLOAD PUSH1 0x3 SWAP1 SWAP3 ADD SLOAD SWAP1 SWAP2 SWAP1 DUP4 JUMP JUMPDEST PUSH1 0x40 DUP1 MLOAD SWAP4 DUP5 MSTORE PUSH1 0x20 DUP5 ADD SWAP3 SWAP1 SWAP3 MSTORE SWAP1 DUP3 ADD MSTORE PUSH1 0x60 ADD JUMPDEST PUSH1 0x40 MLOAD DUP1 SWAP2 SUB SWAP1 RETURN JUMPDEST CALLVALUE DUP1 ISZERO PUSH2 0xCA JUMPI PUSH1 0x0 DUP1 REVERT JUMPDEST POP PUSH2 0xF9 PUSH2 0xD9 CALLDATASIZE PUSH1 0x4 PUSH2 0x8E8 JUMP JUMPDEST PUSH1 0x2 PUSH1 0x20 SWAP1 DUP2 MSTORE PUSH1 0x0 SWAP3 DUP4 MSTORE PUSH1 0x40 DUP1 DUP5 KECCAK256 SWAP1 SWAP2 MSTORE SWAP1 DUP3 MSTORE SWAP1 KECCAK256 SLOAD PUSH1 0xFF AND DUP2 JUMP JUMPDEST PUSH1 0x40 MLOAD PUSH2 0xB5 SWAP2 SWAP1 PUSH2 0x920 JUMP JUMPDEST CALLVALUE DUP1 ISZERO PUSH2 0x112 JUMPI PUSH1 0x0 DUP1 REVERT JUMPDEST POP PUSH2 0x126 PUSH2 0x121 CALLDATASIZE PUSH1 0x4 PUSH2 0x8E8 JUMP JUMPDEST PUSH2 0x181 JUMP JUMPDEST PUSH1 0x40 MLOAD PUSH2 0xB5 SWAP2 SWAP1 PUSH2 0x98E JUMP JUMPDEST CALLVALUE DUP1 ISZERO PUSH2 0x13F JUMPI PUSH1 0x0 DUP1 REVERT JUMPDEST POP PUSH2 0x160 PUSH2 0x14E CALLDATASIZE PUSH1 0x4 PUSH2 0xA40 JUMP JUMPDEST PUSH1 0x1 PUSH1 0x20 MSTORE PUSH1 0x0 SWAP1 DUP2 MSTORE PUSH1 0x40 SWAP1 KECCAK256 SLOAD DUP2 JUMP JUMPDEST PUSH1 0x40 MLOAD SWAP1 DUP2 MSTORE PUSH1 0x20 ADD PUSH2 0xB5 JUMP JUMPDEST PUSH2 0x126 PUSH2 0x17C CALLDATASIZE PUSH1 0x4 PUSH2 0xA59 JUMP JUMPDEST PUSH2 0x2F1 JUMP JUMPDEST PUSH2 0x1AC PUSH1 0x40 MLOAD DUP1 PUSH1 0x80 ADD PUSH1 0x40 MSTORE DUP1 PUSH1 0x0 DUP2 MSTORE PUSH1 0x20 ADD PUSH1 0x60 DUP2 MSTORE PUSH1 0x20 ADD PUSH1 0x0 DUP2 MSTORE PUSH1 0x20 ADD PUSH1 0x0 DUP2 MSTORE POP SWAP1 JUMP JUMPDEST PUSH1 0x0 DUP4 DUP2 MSTORE PUSH1 0x20 DUP2 DUP2 MSTORE PUSH1 0x40 DUP1 DUP4 KECCAK256 DUP6 DUP5 MSTORE DUP3 MSTORE DUP1 DUP4 KECCAK256 DUP2 MLOAD PUSH1 0x80 DUP2 ADD DUP4 MSTORE DUP2 SLOAD DUP2 MSTORE PUSH1 0x1 DUP3 ADD DUP1 SLOAD DUP5 MLOAD DUP2 DUP8 MUL DUP2 ADD DUP8 ADD SWAP1 SWAP6 MSTORE DUP1 DUP6 MSTORE SWAP2 SWAP6 SWAP3 SWAP5 DUP7 DUP2 ADD SWAP5 SWAP4 SWAP2 SWAP3 SWAP2 SWAP1 DUP5 ADD JUMPDEST DUP3 DUP3 LT ISZERO PUSH2 0x2CC JUMPI DUP4 DUP3 SWAP1 PUSH1 0x0 MSTORE PUSH1 0x20 PUSH1 0x0 KECCAK256 SWAP1 PUSH1 0x3 MUL ADD PUSH1 0x40 MLOAD DUP1 PUSH1 0x60 ADD PUSH1 0x40 MSTORE SWAP1 DUP2 PUSH1 0x0 DUP3 ADD SLOAD DUP2 MSTORE PUSH1 0x20 ADD PUSH1 0x1 DUP3 ADD DUP1 SLOAD PUSH2 0x231 SWAP1 PUSH2 0xAA7 JUMP JUMPDEST DUP1 PUSH1 0x1F ADD PUSH1 0x20 DUP1 SWAP2 DIV MUL PUSH1 0x20 ADD PUSH1 0x40 MLOAD SWAP1 DUP2 ADD PUSH1 0x40 MSTORE DUP1 SWAP3 SWAP2 SWAP1 DUP2 DUP2 MSTORE PUSH1 0x20 ADD DUP3 DUP1 SLOAD PUSH2 0x25D SWAP1 PUSH2 0xAA7 JUMP JUMPDEST DUP1 ISZERO PUSH2 0x2AA JUMPI DUP1 PUSH1 0x1F LT PUSH2 0x27F JUMPI PUSH2 0x100 DUP1 DUP4 SLOAD DIV MUL DUP4 MSTORE SWAP2 PUSH1 0x20 ADD SWAP2 PUSH2 0x2AA JUMP JUMPDEST DUP3 ADD SWAP2 SWAP1 PUSH1 0x0 MSTORE PUSH1 0x20 PUSH1 0x0 KECCAK256 SWAP1 JUMPDEST DUP2 SLOAD DUP2 MSTORE SWAP1 PUSH1 0x1 ADD SWAP1 PUSH1 0x20 ADD DUP1 DUP4 GT PUSH2 0x28D JUMPI DUP3 SWAP1 SUB PUSH1 0x1F AND DUP3 ADD SWAP2 JUMPDEST POP POP POP POP POP DUP2 MSTORE PUSH1 0x20 ADD PUSH1 0x2 DUP3 ADD SLOAD DUP2 MSTORE POP POP DUP2 MSTORE PUSH1 0x20 ADD SWAP1 PUSH1 0x1 ADD SWAP1 PUSH2 0x1F4 JUMP JUMPDEST POP POP POP POP DUP2 MSTORE PUSH1 0x20 ADD PUSH1 0x2 DUP3 ADD SLOAD DUP2 MSTORE PUSH1 0x20 ADD PUSH1 0x3 DUP3 ADD SLOAD DUP2 MSTORE POP POP SWAP1 POP JUMPDEST SWAP3 SWAP2 POP POP JUMP JUMPDEST PUSH2 0x31C PUSH1 0x40 MLOAD DUP1 PUSH1 0x80 ADD PUSH1 0x40 MSTORE DUP1 PUSH1 0x0 DUP2 MSTORE PUSH1 0x20 ADD PUSH1 0x60 DUP2 MSTORE PUSH1 0x20 ADD PUSH1 0x0 DUP2 MSTORE PUSH1 0x20 ADD PUSH1 0x0 DUP2 MSTORE POP SWAP1 JUMP JUMPDEST PUSH1 0x0 PUSH2 0x327 DUP5 PUSH2 0x63F JUMP JUMPDEST SWAP1 POP PUSH2 0x335 DUP5 DUP3 PUSH1 0x0 PUSH2 0x683 JUMP JUMPDEST PUSH1 0x0 DUP1 PUSH2 0x34A DUP4 PUSH2 0x345 DUP8 PUSH2 0xB74 JUMP JUMPDEST PUSH2 0x6C3 JUMP JUMPDEST SWAP2 POP SWAP2 POP DUP2 CALLVALUE GT PUSH2 0x39A JUMPI PUSH1 0x40 MLOAD PUSH3 0x461BCD PUSH1 0xE5 SHL DUP2 MSTORE PUSH1 0x20 PUSH1 0x4 DUP3 ADD MSTORE PUSH1 0x15 PUSH1 0x24 DUP3 ADD MSTORE PUSH21 0x1D5CD95C881A5CC81CDA1BDC9D081BDB88189A5B1B PUSH1 0x5A SHL PUSH1 0x44 DUP3 ADD MSTORE PUSH1 0x64 ADD JUMPDEST PUSH1 0x40 MLOAD DUP1 SWAP2 SUB SWAP1 REVERT JUMPDEST PUSH1 0x0 DUP7 DUP2 MSTORE PUSH1 0x20 DUP2 DUP2 MSTORE PUSH1 0x40 DUP1 DUP4 KECCAK256 DUP7 DUP5 MSTORE SWAP1 SWAP2 MSTORE SWAP1 KECCAK256 PUSH2 0x3BC SWAP1 DUP3 SWAP1 PUSH2 0x77B JUMP JUMPDEST POP PUSH1 0x0 PUSH2 0x3C9 DUP4 CALLVALUE PUSH2 0xD31 JUMP JUMPDEST PUSH1 0x40 MLOAD SWAP1 SWAP2 POP PUSH1 0x0 SWAP1 CALLER SWAP1 DUP4 ISZERO PUSH2 0x8FC MUL SWAP1 DUP5 SWAP1 DUP5 DUP2 DUP2 DUP2 DUP6 DUP9 DUP9 CALL SWAP4 POP POP POP POP SWAP1 POP DUP1 PUSH2 0x445 JUMPI PUSH1 0x40 MLOAD PUSH3 0x461BCD PUSH1 0xE5 SHL DUP2 MSTORE PUSH1 0x20 PUSH1 0x4 DUP3 ADD MSTORE PUSH1 0x24 DUP1 DUP3 ADD MSTORE PUSH32 0x4661696C656420746F2073656E64206261636B2072656D61696E696E6720616D PUSH1 0x44 DUP3 ADD MSTORE PUSH4 0x1BDD5B9D PUSH1 0xE2 SHL PUSH1 0x64 DUP3 ADD MSTORE PUSH1 0x84 ADD PUSH2 0x391 JUMP JUMPDEST PUSH1 0x0 DUP9 DUP2 MSTORE PUSH1 0x20 DUP2 DUP2 MSTORE PUSH1 0x40 DUP1 DUP4 KECCAK256 DUP9 DUP5 MSTORE SWAP1 SWAP2 MSTORE SWAP1 KECCAK256 PUSH1 0x1 ADD SLOAD PUSH2 0x469 SWAP1 PUSH2 0x818 JUMP JUMPDEST PUSH1 0x40 DUP1 MLOAD DUP1 DUP3 ADD DUP3 MSTORE PUSH1 0xC DUP2 MSTORE PUSH12 0x27B93232B910273AB690161 PUSH1 0xA5 SHL PUSH1 0x20 DUP1 DUP4 ADD SWAP2 SWAP1 SWAP2 MSTORE PUSH1 0x0 DUP12 DUP2 MSTORE DUP1 DUP3 MSTORE DUP4 DUP2 KECCAK256 DUP10 DUP3 MSTORE SWAP1 SWAP2 MSTORE SWAP2 SWAP1 SWAP2 KECCAK256 SLOAD PUSH2 0x4AF SWAP2 SWAP1 PUSH2 0x860 JUMP JUMPDEST PUSH1 0x40 DUP1 MLOAD DUP1 DUP3 ADD DUP3 MSTORE PUSH1 0xA DUP2 MSTORE PUSH10 0x2AB9B2B91024A210161 PUSH1 0xB5 SHL PUSH1 0x20 DUP1 DUP4 ADD SWAP2 SWAP1 SWAP2 MSTORE PUSH1 0x0 DUP12 DUP2 MSTORE DUP1 DUP3 MSTORE DUP4 DUP2 KECCAK256 DUP10 DUP3 MSTORE SWAP1 SWAP2 MSTORE SWAP2 SWAP1 SWAP2 KECCAK256 PUSH1 0x2 ADD SLOAD PUSH2 0x4F6 SWAP2 SWAP1 PUSH2 0x860 JUMP JUMPDEST PUSH1 0x0 DUP9 DUP2 MSTORE PUSH1 0x20 DUP2 DUP2 MSTORE PUSH1 0x40 DUP1 DUP4 KECCAK256 DUP9 DUP5 MSTORE DUP3 MSTORE DUP1 DUP4 KECCAK256 DUP2 MLOAD PUSH1 0x80 DUP2 ADD DUP4 MSTORE DUP2 SLOAD DUP2 MSTORE PUSH1 0x1 DUP3 ADD DUP1 SLOAD DUP5 MLOAD DUP2 DUP8 MUL DUP2 ADD DUP8 ADD SWAP1 SWAP6 MSTORE DUP1 DUP6 MSTORE SWAP2 SWAP6 SWAP3 SWAP5 DUP7 DUP2 ADD SWAP5 SWAP4 SWAP2 SWAP3 SWAP2 SWAP1 DUP5 ADD JUMPDEST DUP3 DUP3 LT ISZERO PUSH2 0x616 JUMPI DUP4 DUP3 SWAP1 PUSH1 0x0 MSTORE PUSH1 0x20 PUSH1 0x0 KECCAK256 SWAP1 PUSH1 0x3 MUL ADD PUSH1 0x40 MLOAD DUP1 PUSH1 0x60 ADD PUSH1 0x40 MSTORE SWAP1 DUP2 PUSH1 0x0 DUP3 ADD SLOAD DUP2 MSTORE PUSH1 0x20 ADD PUSH1 0x1 DUP3 ADD DUP1 SLOAD PUSH2 0x57B SWAP1 PUSH2 0xAA7 JUMP JUMPDEST DUP1 PUSH1 0x1F ADD PUSH1 0x20 DUP1 SWAP2 DIV MUL PUSH1 0x20 ADD PUSH1 0x40 MLOAD SWAP1 DUP2 ADD PUSH1 0x40 MSTORE DUP1 SWAP3 SWAP2 SWAP1 DUP2 DUP2 MSTORE PUSH1 0x20 ADD DUP3 DUP1 SLOAD PUSH2 0x5A7 SWAP1 PUSH2 0xAA7 JUMP JUMPDEST DUP1 ISZERO PUSH2 0x5F4 JUMPI DUP1 PUSH1 0x1F LT PUSH2 0x5C9 JUMPI PUSH2 0x100 DUP1 DUP4 SLOAD DIV MUL DUP4 MSTORE SWAP2 PUSH1 0x20 ADD SWAP2 PUSH2 0x5F4 JUMP JUMPDEST DUP3 ADD SWAP2 SWAP1 PUSH1 0x0 MSTORE PUSH1 0x20 PUSH1 0x0 KECCAK256 SWAP1 JUMPDEST DUP2 SLOAD DUP2 MSTORE SWAP1 PUSH1 0x1 ADD SWAP1 PUSH1 0x20 ADD DUP1 DUP4 GT PUSH2 0x5D7 JUMPI DUP3 SWAP1 SUB PUSH1 0x1F AND DUP3 ADD SWAP2 JUMPDEST POP POP POP POP POP DUP2 MSTORE PUSH1 0x20 ADD PUSH1 0x2 DUP3 ADD SLOAD DUP2 MSTORE POP POP DUP2 MSTORE PUSH1 0x20 ADD SWAP1 PUSH1 0x1 ADD SWAP1 PUSH2 0x53E JUMP JUMPDEST POP POP POP POP DUP2 MSTORE PUSH1 0x20 ADD PUSH1 0x2 DUP3 ADD SLOAD DUP2 MSTORE PUSH1 0x20 ADD PUSH1 0x3 DUP3 ADD SLOAD DUP2 MSTORE POP POP SWAP6 POP POP POP POP POP POP SWAP3 SWAP2 POP POP JUMP JUMPDEST PUSH1 0x0 DUP2 DUP2 MSTORE PUSH1 0x1 PUSH1 0x20 DUP2 SWAP1 MSTORE PUSH1 0x40 DUP3 KECCAK256 SLOAD SWAP1 PUSH2 0x65C SWAP1 DUP3 SWAP1 PUSH2 0xD44 JUMP JUMPDEST PUSH1 0x0 DUP5 DUP2 MSTORE PUSH1 0x1 PUSH1 0x20 DUP2 SWAP1 MSTORE PUSH1 0x40 SWAP1 SWAP2 KECCAK256 SWAP2 SWAP1 SWAP2 SSTORE PUSH2 0x67C SWAP1 DUP3 SWAP1 PUSH2 0xD44 JUMP JUMPDEST SWAP4 SWAP3 POP POP POP JUMP JUMPDEST PUSH1 0x0 DUP4 DUP2 MSTORE PUSH1 0x2 PUSH1 0x20 SWAP1 DUP2 MSTORE PUSH1 0x40 DUP1 DUP4 KECCAK256 DUP6 DUP5 MSTORE SWAP1 SWAP2 MSTORE SWAP1 KECCAK256 DUP1 SLOAD DUP3 SWAP2 SWAP1 PUSH1 0xFF NOT AND PUSH1 0x1 DUP4 PUSH1 0x8 DUP2 GT ISZERO PUSH2 0x6B9 JUMPI PUSH2 0x6B9 PUSH2 0x90A JUMP JUMPDEST MUL OR SWAP1 SSTORE POP POP POP POP JUMP JUMPDEST PUSH1 0x0 PUSH2 0x6F0 PUSH1 0x40 MLOAD DUP1 PUSH1 0x80 ADD PUSH1 0x40 MSTORE DUP1 PUSH1 0x0 DUP2 MSTORE PUSH1 0x20 ADD PUSH1 0x60 DUP2 MSTORE PUSH1 0x20 ADD PUSH1 0x0 DUP2 MSTORE PUSH1 0x20 ADD PUSH1 0x0 DUP2 MSTORE POP SWAP1 JUMP JUMPDEST PUSH1 0x0 DUP1 JUMPDEST DUP5 PUSH1 0x20 ADD MLOAD MLOAD DUP2 LT ISZERO PUSH2 0x76F JUMPI PUSH1 0x0 PUSH2 0x732 DUP7 PUSH1 0x60 ADD MLOAD DUP8 PUSH1 0x20 ADD MLOAD DUP5 DUP2 MLOAD DUP2 LT PUSH2 0x721 JUMPI PUSH2 0x721 PUSH2 0xD57 JUMP JUMPDEST PUSH1 0x20 MUL PUSH1 0x20 ADD ADD MLOAD PUSH1 0x0 ADD MLOAD PUSH2 0x8A9 JUMP JUMPDEST SWAP1 POP DUP1 DUP7 PUSH1 0x20 ADD MLOAD DUP4 DUP2 MLOAD DUP2 LT PUSH2 0x74B JUMPI PUSH2 0x74B PUSH2 0xD57 JUMP JUMPDEST PUSH1 0x20 SWAP1 DUP2 MUL SWAP2 SWAP1 SWAP2 ADD ADD MLOAD PUSH1 0x40 ADD MSTORE PUSH2 0x764 DUP2 DUP5 PUSH2 0xD44 JUMP JUMPDEST SWAP3 POP POP PUSH1 0x1 ADD PUSH2 0x6F4 JUMP JUMPDEST POP SWAP4 DUP4 MSTORE POP SWAP2 SWAP3 SWAP1 SWAP2 POP JUMP JUMPDEST DUP2 MLOAD DUP2 SSTORE PUSH1 0x60 DUP3 ADD MLOAD PUSH1 0x3 DUP3 ADD SSTORE PUSH1 0x40 DUP3 ADD MLOAD PUSH1 0x2 DUP3 ADD SSTORE PUSH1 0x0 DUP1 JUMPDEST DUP4 PUSH1 0x20 ADD MLOAD MLOAD DUP2 LT ISZERO PUSH2 0x810 JUMPI DUP3 PUSH1 0x1 ADD DUP5 PUSH1 0x20 ADD MLOAD DUP3 DUP2 MLOAD DUP2 LT PUSH2 0x7BE JUMPI PUSH2 0x7BE PUSH2 0xD57 JUMP JUMPDEST PUSH1 0x20 SWAP1 DUP2 MUL SWAP2 SWAP1 SWAP2 ADD DUP2 ADD MLOAD DUP3 SLOAD PUSH1 0x1 DUP2 DUP2 ADD DUP6 SSTORE PUSH1 0x0 SWAP5 DUP6 MSTORE SWAP4 DUP4 SWAP1 KECCAK256 DUP3 MLOAD PUSH1 0x3 SWAP1 SWAP3 MUL ADD SWAP1 DUP2 SSTORE SWAP2 DUP2 ADD MLOAD SWAP1 SWAP3 DUP3 ADD SWAP1 PUSH2 0x7FA SWAP1 DUP3 PUSH2 0xDBC JUMP JUMPDEST POP PUSH1 0x40 SWAP2 SWAP1 SWAP2 ADD MLOAD PUSH1 0x2 SWAP1 SWAP2 ADD SSTORE PUSH1 0x1 ADD PUSH2 0x797 JUMP JUMPDEST POP SWAP1 SWAP3 SWAP2 POP POP JUMP JUMPDEST PUSH2 0x85D DUP2 PUSH1 0x40 MLOAD PUSH1 0x24 ADD PUSH2 0x82E SWAP2 DUP2 MSTORE PUSH1 0x20 ADD SWAP1 JUMP JUMPDEST PUSH1 0x40 DUP1 MLOAD PUSH1 0x1F NOT DUP2 DUP5 SUB ADD DUP2 MSTORE SWAP2 SWAP1 MSTORE PUSH1 0x20 DUP2 ADD DUP1 MLOAD PUSH1 0x1 PUSH1 0x1 PUSH1 0xE0 SHL SUB AND PUSH4 0xF82C50F1 PUSH1 0xE0 SHL OR SWAP1 MSTORE PUSH2 0x8C3 JUMP JUMPDEST POP JUMP JUMPDEST PUSH2 0x8A5 DUP3 DUP3 PUSH1 0x40 MLOAD PUSH1 0x24 ADD PUSH2 0x876 SWAP3 SWAP2 SWAP1 PUSH2 0xE7B JUMP JUMPDEST PUSH1 0x40 DUP1 MLOAD PUSH1 0x1F NOT DUP2 DUP5 SUB ADD DUP2 MSTORE SWAP2 SWAP1 MSTORE PUSH1 0x20 DUP2 ADD DUP1 MLOAD PUSH1 0x1 PUSH1 0x1 PUSH1 0xE0 SHL SUB AND PUSH4 0x2D839CB3 PUSH1 0xE2 SHL OR SWAP1 MSTORE PUSH2 0x8C3 JUMP JUMPDEST POP POP JUMP JUMPDEST PUSH1 0x0 PUSH2 0x8B5 DUP3 DUP5 PUSH2 0xE9D JUMP JUMPDEST PUSH2 0x67C SWAP1 PUSH4 0x3B9ACA00 PUSH2 0xE9D JUMP JUMPDEST PUSH2 0x85D DUP2 PUSH1 0x0 PUSH11 0x636F6E736F6C652E6C6F67 SWAP1 POP PUSH1 0x0 DUP1 DUP4 MLOAD PUSH1 0x20 DUP6 ADD DUP5 GAS STATICCALL POP POP POP JUMP JUMPDEST PUSH1 0x0 DUP1 PUSH1 0x40 DUP4 DUP6 SUB SLT ISZERO PUSH2 0x8FB JUMPI PUSH1 0x0 DUP1 REVERT JUMPDEST POP POP DUP1 CALLDATALOAD SWAP3 PUSH1 0x20 SWAP1 SWAP2 ADD CALLDATALOAD SWAP2 POP JUMP JUMPDEST PUSH4 0x4E487B71 PUSH1 0xE0 SHL PUSH1 0x0 MSTORE PUSH1 0x21 PUSH1 0x4 MSTORE PUSH1 0x24 PUSH1 0x0 REVERT JUMPDEST PUSH1 0x20 DUP2 ADD PUSH1 0x9 DUP4 LT PUSH2 0x942 JUMPI PUSH4 0x4E487B71 PUSH1 0xE0 SHL PUSH1 0x0 MSTORE PUSH1 0x21 PUSH1 0x4 MSTORE PUSH1 0x24 PUSH1 0x0 REVERT JUMPDEST SWAP2 SWAP1 MSTORE SWAP1 JUMP JUMPDEST PUSH1 0x0 DUP2 MLOAD DUP1 DUP5 MSTORE PUSH1 0x0 JUMPDEST DUP2 DUP2 LT ISZERO PUSH2 0x96E JUMPI PUSH1 0x20 DUP2 DUP6 ADD DUP2 ADD MLOAD DUP7 DUP4 ADD DUP3 ADD MSTORE ADD PUSH2 0x952 JUMP JUMPDEST POP PUSH1 0x0 PUSH1 0x20 DUP3 DUP7 ADD ADD MSTORE PUSH1 0x20 PUSH1 0x1F NOT PUSH1 0x1F DUP4 ADD AND DUP6 ADD ADD SWAP2 POP POP SWAP3 SWAP2 POP POP JUMP JUMPDEST PUSH1 0x20 DUP2 MSTORE PUSH1 0x0 PUSH1 0xA0 DUP3 ADD DUP4 MLOAD PUSH1 0x20 DUP5 ADD MSTORE PUSH1 0x20 DUP5 ADD MLOAD PUSH1 0x80 PUSH1 0x40 DUP6 ADD MSTORE DUP2 DUP2 MLOAD DUP1 DUP5 MSTORE PUSH1 0xC0 DUP7 ADD SWAP2 POP PUSH1 0xC0 DUP2 PUSH1 0x5 SHL DUP8 ADD ADD SWAP4 POP PUSH1 0x20 DUP4 ADD SWAP3 POP PUSH1 0x0 JUMPDEST DUP2 DUP2 LT ISZERO PUSH2 0xA1E JUMPI PUSH1 0xBF NOT DUP8 DUP7 SUB ADD DUP4 MSTORE DUP4 MLOAD DUP1 MLOAD DUP7 MSTORE PUSH1 0x20 DUP2 ADD MLOAD PUSH1 0x60 PUSH1 0x20 DUP9 ADD MSTORE PUSH2 0x9FB PUSH1 0x60 DUP9 ADD DUP3 PUSH2 0x948 JUMP JUMPDEST PUSH1 0x40 SWAP3 DUP4 ADD MLOAD SWAP8 SWAP1 SWAP3 ADD SWAP7 SWAP1 SWAP7 MSTORE SWAP5 POP PUSH1 0x20 SWAP4 DUP5 ADD SWAP4 SWAP3 SWAP1 SWAP3 ADD SWAP2 PUSH1 0x1 ADD PUSH2 0x9CB JUMP JUMPDEST POP POP POP POP PUSH1 0x40 DUP5 ADD MLOAD PUSH1 0x60 DUP5 ADD MSTORE PUSH1 0x60 DUP5 ADD MLOAD PUSH1 0x80 DUP5 ADD MSTORE DUP1 SWAP2 POP POP SWAP3 SWAP2 POP POP JUMP JUMPDEST PUSH1 0x0 PUSH1 0x20 DUP3 DUP5 SUB SLT ISZERO PUSH2 0xA52 JUMPI PUSH1 0x0 DUP1 REVERT JUMPDEST POP CALLDATALOAD SWAP2 SWAP1 POP JUMP JUMPDEST PUSH1 0x0 DUP1 PUSH1 0x40 DUP4 DUP6 SUB SLT ISZERO PUSH2 0xA6C JUMPI PUSH1 0x0 DUP1 REVERT JUMPDEST DUP3 CALLDATALOAD SWAP2 POP PUSH1 0x20 DUP4 ADD CALLDATALOAD PUSH8 0xFFFFFFFFFFFFFFFF DUP2 GT ISZERO PUSH2 0xA8A JUMPI PUSH1 0x0 DUP1 REVERT JUMPDEST DUP4 ADD PUSH1 0x80 DUP2 DUP7 SUB SLT ISZERO PUSH2 0xA9C JUMPI PUSH1 0x0 DUP1 REVERT JUMPDEST DUP1 SWAP2 POP POP SWAP3 POP SWAP3 SWAP1 POP JUMP JUMPDEST PUSH1 0x1 DUP2 DUP2 SHR SWAP1 DUP3 AND DUP1 PUSH2 0xABB JUMPI PUSH1 0x7F DUP3 AND SWAP2 POP JUMPDEST PUSH1 0x20 DUP3 LT DUP2 SUB PUSH2 0xADB JUMPI PUSH4 0x4E487B71 PUSH1 0xE0 SHL PUSH1 0x0 MSTORE PUSH1 0x22 PUSH1 0x4 MSTORE PUSH1 0x24 PUSH1 0x0 REVERT JUMPDEST POP SWAP2 SWAP1 POP JUMP JUMPDEST PUSH4 0x4E487B71 PUSH1 0xE0 SHL PUSH1 0x0 MSTORE PUSH1 0x41 PUSH1 0x4 MSTORE PUSH1 0x24 PUSH1 0x0 REVERT JUMPDEST PUSH1 0x40 MLOAD PUSH1 0x80 DUP2 ADD PUSH8 0xFFFFFFFFFFFFFFFF DUP2 GT DUP3 DUP3 LT OR ISZERO PUSH2 0xB1A JUMPI PUSH2 0xB1A PUSH2 0xAE1 JUMP JUMPDEST PUSH1 0x40 MSTORE SWAP1 JUMP JUMPDEST PUSH1 0x40 MLOAD PUSH1 0x60 DUP2 ADD PUSH8 0xFFFFFFFFFFFFFFFF DUP2 GT DUP3 DUP3 LT OR ISZERO PUSH2 0xB1A JUMPI PUSH2 0xB1A PUSH2 0xAE1 JUMP JUMPDEST PUSH1 0x40 MLOAD PUSH1 0x1F DUP3 ADD PUSH1 0x1F NOT AND DUP2 ADD PUSH8 0xFFFFFFFFFFFFFFFF DUP2 GT DUP3 DUP3 LT OR ISZERO PUSH2 0xB6C JUMPI PUSH2 0xB6C PUSH2 0xAE1 JUMP JUMPDEST PUSH1 0x40 MSTORE SWAP2 SWAP1 POP JUMP JUMPDEST PUSH1 0x0 PUSH1 0x80 DUP3 CALLDATASIZE SUB SLT ISZERO PUSH2 0xB86 JUMPI PUSH1 0x0 DUP1 REVERT JUMPDEST PUSH2 0xB8E PUSH2 0xAF7 JUMP JUMPDEST DUP3 CALLDATALOAD DUP2 MSTORE PUSH1 0x20 DUP4 ADD CALLDATALOAD PUSH8 0xFFFFFFFFFFFFFFFF DUP2 GT ISZERO PUSH2 0xBAC JUMPI PUSH1 0x0 DUP1 REVERT JUMPDEST DUP4 ADD CALLDATASIZE PUSH1 0x1F DUP3 ADD SLT PUSH2 0xBBD JUMPI PUSH1 0x0 DUP1 REVERT JUMPDEST DUP1 CALLDATALOAD PUSH8 0xFFFFFFFFFFFFFFFF DUP2 GT ISZERO PUSH2 0xBD7 JUMPI PUSH2 0xBD7 PUSH2 0xAE1 JUMP JUMPDEST DUP1 PUSH1 0x5 SHL PUSH2 0xBE7 PUSH1 0x20 DUP3 ADD PUSH2 0xB43 JUMP JUMPDEST SWAP2 DUP3 MSTORE PUSH1 0x20 DUP2 DUP5 ADD DUP2 ADD SWAP3 SWAP1 DUP2 ADD SWAP1 CALLDATASIZE DUP5 GT ISZERO PUSH2 0xC03 JUMPI PUSH1 0x0 DUP1 REVERT JUMPDEST PUSH1 0x20 DUP6 ADD SWAP3 POP JUMPDEST DUP4 DUP4 LT ISZERO PUSH2 0xCF7 JUMPI DUP3 CALLDATALOAD PUSH8 0xFFFFFFFFFFFFFFFF DUP2 GT ISZERO PUSH2 0xC29 JUMPI PUSH1 0x0 DUP1 REVERT JUMPDEST DUP6 ADD PUSH1 0x60 CALLDATASIZE DUP3 SWAP1 SUB PUSH1 0x1F NOT ADD SLT ISZERO PUSH2 0xC40 JUMPI PUSH1 0x0 DUP1 REVERT JUMPDEST PUSH2 0xC48 PUSH2 0xB20 JUMP JUMPDEST PUSH1 0x20 DUP3 ADD CALLDATALOAD DUP2 MSTORE PUSH1 0x40 DUP3 ADD CALLDATALOAD PUSH8 0xFFFFFFFFFFFFFFFF DUP2 GT ISZERO PUSH2 0xC69 JUMPI PUSH1 0x0 DUP1 REVERT JUMPDEST PUSH1 0x20 DUP2 DUP5 ADD ADD SWAP1 POP CALLDATASIZE PUSH1 0x1F DUP3 ADD SLT PUSH2 0xC80 JUMPI PUSH1 0x0 DUP1 REVERT JUMPDEST DUP1 CALLDATALOAD PUSH8 0xFFFFFFFFFFFFFFFF DUP2 GT ISZERO PUSH2 0xC9A JUMPI PUSH2 0xC9A PUSH2 0xAE1 JUMP JUMPDEST PUSH2 0xCAD PUSH1 0x1F DUP3 ADD PUSH1 0x1F NOT AND PUSH1 0x20 ADD PUSH2 0xB43 JUMP JUMPDEST DUP2 DUP2 MSTORE CALLDATASIZE PUSH1 0x20 DUP4 DUP6 ADD ADD GT ISZERO PUSH2 0xCC2 JUMPI PUSH1 0x0 DUP1 REVERT JUMPDEST DUP2 PUSH1 0x20 DUP5 ADD PUSH1 0x20 DUP4 ADD CALLDATACOPY PUSH1 0x0 PUSH1 0x20 SWAP3 DUP3 ADD DUP4 ADD MSTORE DUP4 DUP3 ADD MSTORE PUSH1 0x60 SWAP4 SWAP1 SWAP4 ADD CALLDATALOAD PUSH1 0x40 DUP4 ADD MSTORE POP DUP4 MSTORE SWAP3 DUP4 ADD SWAP3 SWAP2 SWAP1 SWAP2 ADD SWAP1 PUSH2 0xC0A JUMP JUMPDEST PUSH1 0x20 DUP7 ADD MSTORE POP POP POP POP PUSH1 0x40 DUP4 DUP2 ADD CALLDATALOAD SWAP1 DUP3 ADD MSTORE PUSH1 0x60 SWAP3 DUP4 ADD CALLDATALOAD SWAP3 DUP2 ADD SWAP3 SWAP1 SWAP3 MSTORE POP SWAP1 JUMP JUMPDEST PUSH4 0x4E487B71 PUSH1 0xE0 SHL PUSH1 0x0 MSTORE PUSH1 0x11 PUSH1 0x4 MSTORE PUSH1 0x24 PUSH1 0x0 REVERT JUMPDEST DUP2 DUP2 SUB DUP2 DUP2 GT ISZERO PUSH2 0x2EB JUMPI PUSH2 0x2EB PUSH2 0xD1B JUMP JUMPDEST DUP1 DUP3 ADD DUP1 DUP3 GT ISZERO PUSH2 0x2EB JUMPI PUSH2 0x2EB PUSH2 0xD1B JUMP JUMPDEST PUSH4 0x4E487B71 PUSH1 0xE0 SHL PUSH1 0x0 MSTORE PUSH1 0x32 PUSH1 0x4 MSTORE PUSH1 0x24 PUSH1 0x0 REVERT JUMPDEST PUSH1 0x1F DUP3 GT ISZERO PUSH2 0xDB7 JUMPI DUP1 PUSH1 0x0 MSTORE PUSH1 0x20 PUSH1 0x0 KECCAK256 PUSH1 0x1F DUP5 ADD PUSH1 0x5 SHR DUP2 ADD PUSH1 0x20 DUP6 LT ISZERO PUSH2 0xD94 JUMPI POP DUP1 JUMPDEST PUSH1 0x1F DUP5 ADD PUSH1 0x5 SHR DUP3 ADD SWAP2 POP JUMPDEST DUP2 DUP2 LT ISZERO PUSH2 0xDB4 JUMPI PUSH1 0x0 DUP2 SSTORE PUSH1 0x1 ADD PUSH2 0xDA0 JUMP JUMPDEST POP POP JUMPDEST POP POP POP JUMP JUMPDEST DUP2 MLOAD PUSH8 0xFFFFFFFFFFFFFFFF DUP2 GT ISZERO PUSH2 0xDD6 JUMPI PUSH2 0xDD6 PUSH2 0xAE1 JUMP JUMPDEST PUSH2 0xDEA DUP2 PUSH2 0xDE4 DUP5 SLOAD PUSH2 0xAA7 JUMP JUMPDEST DUP5 PUSH2 0xD6D JUMP JUMPDEST PUSH1 0x20 PUSH1 0x1F DUP3 GT PUSH1 0x1 DUP2 EQ PUSH2 0xE1E JUMPI PUSH1 0x0 DUP4 ISZERO PUSH2 0xE06 JUMPI POP DUP5 DUP3 ADD MLOAD JUMPDEST PUSH1 0x0 NOT PUSH1 0x3 DUP6 SWAP1 SHL SHR NOT AND PUSH1 0x1 DUP5 SWAP1 SHL OR DUP5 SSTORE PUSH2 0xDB4 JUMP JUMPDEST PUSH1 0x0 DUP5 DUP2 MSTORE PUSH1 0x20 DUP2 KECCAK256 PUSH1 0x1F NOT DUP6 AND SWAP2 JUMPDEST DUP3 DUP2 LT ISZERO PUSH2 0xE4E JUMPI DUP8 DUP6 ADD MLOAD DUP3 SSTORE PUSH1 0x20 SWAP5 DUP6 ADD SWAP5 PUSH1 0x1 SWAP1 SWAP3 ADD SWAP2 ADD PUSH2 0xE2E JUMP JUMPDEST POP DUP5 DUP3 LT ISZERO PUSH2 0xE6C JUMPI DUP7 DUP5 ADD MLOAD PUSH1 0x0 NOT PUSH1 0x3 DUP8 SWAP1 SHL PUSH1 0xF8 AND SHR NOT AND DUP2 SSTORE JUMPDEST POP POP POP POP PUSH1 0x1 SWAP1 DUP2 SHL ADD SWAP1 SSTORE POP JUMP JUMPDEST PUSH1 0x40 DUP2 MSTORE PUSH1 0x0 PUSH2 0xE8E PUSH1 0x40 DUP4 ADD DUP6 PUSH2 0x948 JUMP JUMPDEST SWAP1 POP DUP3 PUSH1 0x20 DUP4 ADD MSTORE SWAP4 SWAP3 POP POP POP JUMP JUMPDEST DUP1 DUP3 MUL DUP2 ISZERO DUP3 DUP3 DIV DUP5 EQ OR PUSH2 0x2EB JUMPI PUSH2 0x2EB PUSH2 0xD1B JUMP INVALID LOG2 PUSH5 0x6970667358 0x22 SLT KECCAK256 INVALID PUSH22 0xC085D92F879B1153B9CA3913DAAA83A2F0313F5D3F8F 0xC7 RETURN SWAP4 REVERT 0xB7 0xBB PUSH32 0x964736F6C634300081A00330000000000000000000000000000000000000000 "},"methodIdentifiers":{"addNewOrder(uint256,(uint256,(uint256,string,uint256)[],uint256,uint256))":"f7274fa3","getUserOrderInfo(uint256,uint256)":"80ec1d9d","orderStatusMap(uint256,uint256)":"518ac95c","userFoodOrderMap(uint256,uint256)":"43de550f","userLastOrderNumMap(uint256)":"f258ee76"}}}}}