{"contracts/005_userdefined_value_types.sol":{"UserDefinedValueTypesExamples":{"abi":[{"inputs":[],"name":"example_no_uvdt","outputs":[{"internalType":"Clock","name":"","type":"uint128"}],"stateMutability":"view","type":"function"},{"inputs":[],"name":"example_uvdt","outputs":[],"stateMutability":"view","type":"function"}],"evm":{"bytecode":{"linkReferences":{},"object":"6080604052348015600f57600080fd5b50609b80601d6000396000f3fe6080604052348015600f57600080fd5b506004361060325760003560e01c8063645e9edf1460375780639848d8e6146063575b600080fd5b60014260401b176040516fffffffffffffffffffffffffffffffff909116815260200160405180910390f35b00fea2646970667358221220037593fe609495d892c8c4c37006061644de87208c92c7b726973a237b1eeca264736f6c634300081a0033","opcodes":"PUSH1 0x80 PUSH1 0x40 MSTORE CALLVALUE DUP1 ISZERO PUSH1 0xF JUMPI PUSH1 0x0 DUP1 REVERT JUMPDEST POP PUSH1 0x9B DUP1 PUSH1 0x1D PUSH1 0x0 CODECOPY PUSH1 0x0 RETURN INVALID PUSH1 0x80 PUSH1 0x40 MSTORE CALLVALUE DUP1 ISZERO PUSH1 0xF JUMPI PUSH1 0x0 DUP1 REVERT JUMPDEST POP PUSH1 0x4 CALLDATASIZE LT PUSH1 0x32 JUMPI PUSH1 0x0 CALLDATALOAD PUSH1 0xE0 SHR DUP1 PUSH4 0x645E9EDF EQ PUSH1 0x37 JUMPI DUP1 PUSH4 0x9848D8E6 EQ PUSH1 0x63 JUMPI JUMPDEST PUSH1 0x0 DUP1 REVERT JUMPDEST PUSH1 0x1 TIMESTAMP PUSH1 0x40 SHL OR PUSH1 0x40 MLOAD PUSH16 0xFFFFFFFFFFFFFFFFFFFFFFFFFFFFFFFF SWAP1 SWAP2 AND DUP2 MSTORE PUSH1 0x20 ADD PUSH1 0x40 MLOAD DUP1 SWAP2 SUB SWAP1 RETURN JUMPDEST STOP INVALID LOG2 PUSH5 0x6970667358 0x22 SLT KECCAK256 SUB PUSH22 0x93FE609495D892C8C4C37006061644DE87208C92C7B7 0x26 SWAP8 GASPRICE 0x23 PUSH28 0x1EECA264736F6C634300081A00330000000000000000000000000000 "},"methodIdentifiers":{"example_no_uvdt()":"645e9edf","example_uvdt()":"9848d8e6"}}}}}