{"contracts/002_first_app.sol":{"Counter":{"abi":[{"inputs":[],"stateMutability":"nonpayable","type":"constructor"},{"inputs":[],"name":"dec","outputs":[{"internalType":"uint256","name":"","type":"uint256"}],"stateMutability":"nonpayable","type":"function"},{"inputs":[],"name":"get","outputs":[{"internalType":"uint256","name":"","type":"uint256"}],"stateMutability":"view","type":"function"},{"inputs":[],"name":"inc","outputs":[{"internalType":"uint256","name":"","type":"uint256"}],"stateMutability":"nonpayable","type":"function"}],"evm":{"bytecode":{"linkReferences":{},"object":"6080604052348015600f57600080fd5b5060008055610109806100236000396000f3fe6080604052348015600f57600080fd5b5060043610603c5760003560e01c8063371303c01460415780636d4ce63c146059578063b3bcfa82146060575b600080fd5b60476066565b60405190815260200160405180910390f35b6000546047565b60476085565b600060016000808282546078919060ad565b9091555050600054919050565b600060016000808282546078919060c3565b634e487b7160e01b600052601160045260246000fd5b8082018082111560bd5760bd6097565b92915050565b8181038181111560bd5760bd609756fea2646970667358221220f4392fd2a0a325558477989020b418a5c926a4eaacb7618d3cb703776a941ee764736f6c634300081a0033","opcodes":"PUSH1 0x80 PUSH1 0x40 MSTORE CALLVALUE DUP1 ISZERO PUSH1 0xF JUMPI PUSH1 0x0 DUP1 REVERT JUMPDEST POP PUSH1 0x0 DUP1 SSTORE PUSH2 0x109 DUP1 PUSH2 0x23 PUSH1 0x0 CODECOPY PUSH1 0x0 RETURN INVALID PUSH1 0x80 PUSH1 0x40 MSTORE CALLVALUE DUP1 ISZERO PUSH1 0xF JUMPI PUSH1 0x0 DUP1 REVERT JUMPDEST POP PUSH1 0x4 CALLDATASIZE LT PUSH1 0x3C JUMPI PUSH1 0x0 CALLDATALOAD PUSH1 0xE0 SHR DUP1 PUSH4 0x371303C0 EQ PUSH1 0x41 JUMPI DUP1 PUSH4 0x6D4CE63C EQ PUSH1 0x59 JUMPI DUP1 PUSH4 0xB3BCFA82 EQ PUSH1 0x60 JUMPI JUMPDEST PUSH1 0x0 DUP1 REVERT JUMPDEST PUSH1 0x47 PUSH1 0x66 JUMP JUMPDEST PUSH1 0x40 MLOAD SWAP1 DUP2 MSTORE PUSH1 0x20 ADD PUSH1 0x40 MLOAD DUP1 SWAP2 SUB SWAP1 RETURN JUMPDEST PUSH1 0x0 SLOAD PUSH1 0x47 JUMP JUMPDEST PUSH1 0x47 PUSH1 0x85 JUMP JUMPDEST PUSH1 0x0 PUSH1 0x1 PUSH1 0x0 DUP1 DUP3 DUP3 SLOAD PUSH1 0x78 SWAP2 SWAP1 PUSH1 0xAD JUMP JUMPDEST SWAP1 SWAP2 SSTORE POP POP PUSH1 0x0 SLOAD SWAP2 SWAP1 POP JUMP JUMPDEST PUSH1 0x0 PUSH1 0x1 PUSH1 0x0 DUP1 DUP3 DUP3 SLOAD PUSH1 0x78 SWAP2 SWAP1 PUSH1 0xC3 JUMP JUMPDEST PUSH4 0x4E487B71 PUSH1 0xE0 SHL PUSH1 0x0 MSTORE PUSH1 0x11 PUSH1 0x4 MSTORE PUSH1 0x24 PUSH1 0x0 REVERT JUMPDEST DUP1 DUP3 ADD DUP1 DUP3 GT ISZERO PUSH1 0xBD JUMPI PUSH1 0xBD PUSH1 0x97 JUMP JUMPDEST SWAP3 SWAP2 POP POP JUMP JUMPDEST DUP2 DUP2 SUB DUP2 DUP2 GT ISZERO PUSH1 0xBD JUMPI PUSH1 0xBD PUSH1 0x97 JUMP INVALID LOG2 PUSH5 0x6970667358 0x22 SLT KECCAK256 DELEGATECALL CODECOPY 0x2F 0xD2 LOG0 LOG3 0x25 SSTORE DUP5 PUSH24 0x989020B418A5C926A4EAACB7618D3CB703776A941EE76473 PUSH16 0x6C634300081A00330000000000000000 "},"methodIdentifiers":{"dec()":"b3bcfa82","get()":"6d4ce63c","inc()":"371303c0"}}}}}