{"contracts/004_enums.sol":{"LearnEnums":{"abi":[{"inputs":[],"stateMutability":"nonpayable","type":"constructor"},{"anonymous":false,"inputs":[{"indexed":true,"internalType":"address","name":"user","type":"address"},{"indexed":false,"internalType":"uint256","name":"orderId","type":"uint256"},{"indexed":false,"internalType":"enum LearnEnums.OrderState","name":"newState","type":"uint8"}],"name":"OrderStateChanged","type":"event"},{"inputs":[{"internalType":"enum LearnEnums.OrderState","name":"currState","type":"uint8"},{"internalType":"enum LearnEnums.OrderState","name":"nextState","type":"uint8"}],"name":"addOrderStateInTransitionMapping","outputs":[],"stateMutability":"nonpayable","type":"function"},{"inputs":[],"name":"debugGetOrderStates","outputs":[{"internalType":"enum LearnEnums.OrderState[]","name":"","type":"uint8[]"}],"stateMutability":"view","type":"function"},{"inputs":[{"internalType":"enum LearnEnums.OrderState","name":"state","type":"uint8"}],"name":"getStateTransitionMap","outputs":[{"internalType":"enum LearnEnums.OrderState[]","name":"","type":"uint8[]"}],"stateMutability":"view","type":"function"},{"inputs":[{"internalType":"enum LearnEnums.OrderState","name":"currState","type":"uint8"},{"internalType":"enum LearnEnums.OrderState","name":"removableState","type":"uint8"}],"name":"removeOrderStateTransitionMapping","outputs":[],"stateMutability":"nonpayable","type":"function"},{"inputs":[{"internalType":"enum LearnEnums.OrderState","name":"","type":"uint8"},{"internalType":"uint256","name":"","type":"uint256"}],"name":"stateTransitionMap","outputs":[{"internalType":"enum LearnEnums.OrderState","name":"","type":"uint8"}],"stateMutability":"view","type":"function"},{"inputs":[{"internalType":"enum LearnEnums.OrderState","name":"currState","type":"uint8"},{"internalType":"enum LearnEnums.OrderState[]","name":"nextStates","type":"uint8[]"}],"name":"updateStateTransitionMapping","outputs":[],"stateMutability":"nonpayable","type":"function"}],"evm":{"bytecode":{"linkReferences":{},"object":"608060405234801561001057600080fd5b5060408051602080820190925260018082526000805291829052610056917fa6eef7e35abe7026729641147f7915573c7e97b47efa546f5f6e3230263bcb4991906101cc565b50604080516060810190915280600381526020016002815260200160069052600160008181526020810191909152604001600020610095916003610280565b50604080518082019091526003815260066020808301919091526002600081905260019091526100e6917fd9d16d34ffb15ba3a3d852f0d403e2ce1d691fb54de27ac87cd2f993f3ec330f916102f5565b5060408051602080820190925260048152600360005260019182905261012e917f7dfe757ecd65cbd7922a9c0161e935dd7fdbcc0e999689c7d31633896b1fc60b91906101cc565b50604080516020808201909252600581526004600052600191829052610176917fedc95719e9a3b28dd8e80877cb5880a9be7de1a13fc8b05e7999683b6b56764391906101cc565b50604080518082019091526008815260076020808301919091526006600052600190526101c6907f8f331abe73332f95a25873e8b430885974c0409691f89d643119a11623a7924a9060026102f5565b50610395565b82805482825590600052602060002090601f016020900481019282156102705791602002820160005b8382111561024157835183826101000a81548160ff021916908360088111156102205761022061037f565b021790555092602001926001016020816000010492830192600103026101f5565b801561026e5782816101000a81549060ff0219169055600101602081600001049283019260010302610241565b505b5061027c92915061036a565b5090565b82805482825590600052602060002090601f016020900481019282156102705791602002820160005b8382111561024157835183826101000a81548160ff021916908360088111156102d4576102d461037f565b021790555092602001926001016020816000010492830192600103026102a9565b82805482825590600052602060002090601f016020900481019282156102705791602002820160005b8382111561024157835183826101000a81548160ff021916908360088111156103495761034961037f565b0217905550926020019260010160208160000104928301926001030261031e565b5b8082111561027c576000815560010161036b565b634e487b7160e01b600052602160045260246000fd5b610ca9806103a46000396000f3fe608060405234801561001057600080fd5b50600436106100625760003560e01c8063045e641314610067578063460811431461007c57806356e73ea6146100a55780639384c44d146100b8578063a0d10e8d146100cd578063ca954c2a146100e0575b600080fd5b61007a610075366004610a03565b6100f3565b005b61008f61008a366004610a36565b61023a565b60405161009c9190610a98565b60405180910390f35b61007a6100b3366004610aa6565b61027d565b6100c06103bb565b60405161009c9190610b2e565b6100c06100db366004610b79565b610443565b61007a6100ee366004610a03565b610500565b60006101b26001600085600881111561010e5761010e610a60565b600881111561011f5761011f610a60565b81526020019081526020016000208054806020026020016040519081016040528092919081815260200182805480156101a757602002820191906000526020600020906000905b82829054906101000a900460ff16600881111561018557610185610a60565b8152602060019283018181049485019490930390920291018084116101665790505b505050505083610608565b9150508061023557600160008460088111156101d0576101d0610a60565b60088111156101e1576101e1610a60565b8152602080820192909252604001600090812080546001810182559082529082902091810490910180548492601f166101000a60ff8102199091169083600881111561022f5761022f610a60565b02179055505b505050565b6001602052816000526040600020818154811061025657600080fd5b9060005260206000209060209182820401919006915091509054906101000a900460ff1681565b61036d6001600085600881111561029657610296610a60565b60088111156102a7576102a7610a60565b815260200190815260200160002080548060200260200160405190810160405280929190818152602001828054801561032f57602002820191906000526020600020906000905b82829054906101000a900460ff16600881111561030d5761030d610a60565b8152602060019283018181049485019490930390920291018084116102ee5790505b505050505083838080602002602001604051908101604052809392919081815260200183836020028082843760009201919091525061067c92505050565b6102355781816001600086600881111561038957610389610a60565b600881111561039a5761039a610a60565b815260200190815260200160002091906103b5929190610916565b50505050565b6060600080548060200260200160405190810160405280929190818152602001828054801561043957602002820191906000526020600020906000905b82829054906101000a900460ff16600881111561041757610417610a60565b8152602060019283018181049485019490930390920291018084116103f85790505b5050505050905090565b60606001600083600881111561045b5761045b610a60565b600881111561046c5761046c610a60565b81526020019081526020016000208054806020026020016040519081016040528092919081815260200182805480156104f457602002820191906000526020600020906000905b82829054906101000a900460ff1660088111156104d2576104d2610a60565b8152602060019283018181049485019490930390920291018084116104b35790505b50505050509050919050565b6000806105c06001600086600881111561051c5761051c610a60565b600881111561052d5761052d610a60565b81526020019081526020016000208054806020026020016040519081016040528092919081815260200182805480156105b557602002820191906000526020600020906000905b82829054906101000a900460ff16600881111561059357610593610a60565b8152602060019283018181049485019490930390920291018084116105745790505b505050505084610608565b9150915080156103b5576103b5600160008660088111156105e3576105e3610a60565b60088111156105f4576105f4610a60565b8152602001908152602001600020836106b3565b60008060005b845181101561066c5783600881111561062957610629610a60565b85828151811061063b5761063b610b9b565b6020026020010151600881111561065457610654610a60565b0361066457915060019050610675565b60010161060e565b50600080915091505b9250929050565b8051825160009114806106935760009150506106ad565b600061069e846107bf565b6106a7866107bf565b14925050505b92915050565b815481106106f75760405162461bcd60e51b815260206004820152600d60248201526c092dcecc2d8d2c840d2dcc8caf609b1b604482015260640160405180910390fd5b8154829061070790600190610bc7565b8154811061071757610717610b9b565b90600052602060002090602091828204019190069054906101000a900460ff1682828154811061074957610749610b9b565b90600052602060002090602091828204019190066101000a81548160ff0219169083600881111561077c5761077c610a60565b02179055508180548061079157610791610bda565b60019003818190600052602060002090602091828204019190066101000a81549060ff021916905590555050565b6000806107ce60086001610bf0565b905060008167ffffffffffffffff8111156107eb576107eb610c03565b604051908082528060200260200182016040528015610814578160200160208202803683370190505b50905060005b845181101561088e57600085828151811061083757610837610b9b565b6020026020010151600881111561085057610850610a60565b9050838160ff161015610885576001838260ff168151811061087457610874610b9b565b911515602092830291909101909101525b5060010161081a565b50604080516020810190915260008082525b83811015610905578281815181106108ba576108ba610b9b565b6020026020010151156108fd57818160088111156108da576108da610a60565b6040516020016108eb929190610c19565b60405160208183030381529060405291505b6001016108a0565b508051602090910120949350505050565b82805482825590600052602060002090601f016020900481019282156109ca5791602002820160005b8382111561099b57833560088111801561095857600080fd5b5083826101000a81548160ff0219169083600881111561097a5761097a610a60565b0217905550926020019260010160208160000104928301926001030261093f565b80156109c85782816101000a81549060ff021916905560010160208160000104928301926001030261099b565b505b506109d69291506109da565b5090565b5b808211156109d657600081556001016109db565b8035600981106109fe57600080fd5b919050565b60008060408385031215610a1657600080fd5b610a1f836109ef565b9150610a2d602084016109ef565b90509250929050565b60008060408385031215610a4957600080fd5b610a52836109ef565b946020939093013593505050565b634e487b7160e01b600052602160045260246000fd5b60098110610a9457634e487b7160e01b600052602160045260246000fd5b9052565b602081016106ad8284610a76565b600080600060408486031215610abb57600080fd5b610ac4846109ef565b9250602084013567ffffffffffffffff811115610ae057600080fd5b8401601f81018613610af157600080fd5b803567ffffffffffffffff811115610b0857600080fd5b8660208260051b8401011115610b1d57600080fd5b939660209190910195509293505050565b602080825282518282018190526000918401906040840190835b81811015610b6e57610b5b838551610a76565b6020938401939290920191600101610b48565b509095945050505050565b600060208284031215610b8b57600080fd5b610b94826109ef565b9392505050565b634e487b7160e01b600052603260045260246000fd5b634e487b7160e01b600052601160045260246000fd5b818103818111156106ad576106ad610bb1565b634e487b7160e01b600052603160045260246000fd5b808201808211156106ad576106ad610bb1565b634e487b7160e01b600052604160045260246000fd5b6000835160005b81811015610c3a5760208187018101518583015201610c20565b50600090830190815260098410610c6157634e487b7160e01b600052602160045260246000fd5b60f89390931b8352505060010191905056fea2646970667358221220e26aac5a04be12c5072e922139439f4ffba472b3a099b8dc18a46722d030d93a64736f6c634300081a0033","opcodes":"PUSH1 0x80 PUSH1 0x40 MSTORE CALLVALUE DUP1 ISZERO PUSH2 0x10 JUMPI PUSH1 0x0 DUP1 REVERT JUMPDEST POP PUSH1 0x40 DUP1 MLOAD PUSH1 0x20 DUP1 DUP3 ADD SWAP1 SWAP3 MSTORE PUSH1 0x1 DUP1 DUP3 MSTORE PUSH1 0x0 DUP1 MSTORE SWAP2 DUP3 SWAP1 MSTORE PUSH2 0x56 SWAP2 PUSH32 0xA6EEF7E35ABE7026729641147F7915573C7E97B47EFA546F5F6E3230263BCB49 SWAP2 SWAP1 PUSH2 0x1CC JUMP JUMPDEST POP PUSH1 0x40 DUP1 MLOAD PUSH1 0x60 DUP2 ADD SWAP1 SWAP2 MSTORE DUP1 PUSH1 0x3 DUP2 MSTORE PUSH1 0x20 ADD PUSH1 0x2 DUP2 MSTORE PUSH1 0x20 ADD PUSH1 0x6 SWAP1 MSTORE PUSH1 0x1 PUSH1 0x0 DUP2 DUP2 MSTORE PUSH1 0x20 DUP2 ADD SWAP2 SWAP1 SWAP2 MSTORE PUSH1 0x40 ADD PUSH1 0x0 KECCAK256 PUSH2 0x95 SWAP2 PUSH1 0x3 PUSH2 0x280 JUMP JUMPDEST POP PUSH1 0x40 DUP1 MLOAD DUP1 DUP3 ADD SWAP1 SWAP2 MSTORE PUSH1 0x3 DUP2 MSTORE PUSH1 0x6 PUSH1 0x20 DUP1 DUP4 ADD SWAP2 SWAP1 SWAP2 MSTORE PUSH1 0x2 PUSH1 0x0 DUP2 SWAP1 MSTORE PUSH1 0x1 SWAP1 SWAP2 MSTORE PUSH2 0xE6 SWAP2 PUSH32 0xD9D16D34FFB15BA3A3D852F0D403E2CE1D691FB54DE27AC87CD2F993F3EC330F SWAP2 PUSH2 0x2F5 JUMP JUMPDEST POP PUSH1 0x40 DUP1 MLOAD PUSH1 0x20 DUP1 DUP3 ADD SWAP1 SWAP3 MSTORE PUSH1 0x4 DUP2 MSTORE PUSH1 0x3 PUSH1 0x0 MSTORE PUSH1 0x1 SWAP2 DUP3 SWAP1 MSTORE PUSH2 0x12E SWAP2 PUSH32 0x7DFE757ECD65CBD7922A9C0161E935DD7FDBCC0E999689C7D31633896B1FC60B SWAP2 SWAP1 PUSH2 0x1CC JUMP JUMPDEST POP PUSH1 0x40 DUP1 MLOAD PUSH1 0x20 DUP1 DUP3 ADD SWAP1 SWAP3 MSTORE PUSH1 0x5 DUP2 MSTORE PUSH1 0x4 PUSH1 0x0 MSTORE PUSH1 0x1 SWAP2 DUP3 SWAP1 MSTORE PUSH2 0x176 SWAP2 PUSH32 0xEDC95719E9A3B28DD8E80877CB5880A9BE7DE1A13FC8B05E7999683B6B567643 SWAP2 SWAP1 PUSH2 0x1CC JUMP JUMPDEST POP PUSH1 0x40 DUP1 MLOAD DUP1 DUP3 ADD SWAP1 SWAP2 MSTORE PUSH1 0x8 DUP2 MSTORE PUSH1 0x7 PUSH1 0x20 DUP1 DUP4 ADD SWAP2 SWAP1 SWAP2 MSTORE PUSH1 0x6 PUSH1 0x0 MSTORE PUSH1 0x1 SWAP1 MSTORE PUSH2 0x1C6 SWAP1 PUSH32 0x8F331ABE73332F95A25873E8B430885974C0409691F89D643119A11623A7924A SWAP1 PUSH1 0x2 PUSH2 0x2F5 JUMP JUMPDEST POP PUSH2 0x395 JUMP JUMPDEST DUP3 DUP1 SLOAD DUP3 DUP3 SSTORE SWAP1 PUSH1 0x0 MSTORE PUSH1 0x20 PUSH1 0x0 KECCAK256 SWAP1 PUSH1 0x1F ADD PUSH1 0x20 SWAP1 DIV DUP2 ADD SWAP3 DUP3 ISZERO PUSH2 0x270 JUMPI SWAP2 PUSH1 0x20 MUL DUP3 ADD PUSH1 0x0 JUMPDEST DUP4 DUP3 GT ISZERO PUSH2 0x241 JUMPI DUP4 MLOAD DUP4 DUP3 PUSH2 0x100 EXP DUP2 SLOAD DUP2 PUSH1 0xFF MUL NOT AND SWAP1 DUP4 PUSH1 0x8 DUP2 GT ISZERO PUSH2 0x220 JUMPI PUSH2 0x220 PUSH2 0x37F JUMP JUMPDEST MUL OR SWAP1 SSTORE POP SWAP3 PUSH1 0x20 ADD SWAP3 PUSH1 0x1 ADD PUSH1 0x20 DUP2 PUSH1 0x0 ADD DIV SWAP3 DUP4 ADD SWAP3 PUSH1 0x1 SUB MUL PUSH2 0x1F5 JUMP JUMPDEST DUP1 ISZERO PUSH2 0x26E JUMPI DUP3 DUP2 PUSH2 0x100 EXP DUP2 SLOAD SWAP1 PUSH1 0xFF MUL NOT AND SWAP1 SSTORE PUSH1 0x1 ADD PUSH1 0x20 DUP2 PUSH1 0x0 ADD DIV SWAP3 DUP4 ADD SWAP3 PUSH1 0x1 SUB MUL PUSH2 0x241 JUMP JUMPDEST POP JUMPDEST POP PUSH2 0x27C SWAP3 SWAP2 POP PUSH2 0x36A JUMP JUMPDEST POP SWAP1 JUMP JUMPDEST DUP3 DUP1 SLOAD DUP3 DUP3 SSTORE SWAP1 PUSH1 0x0 MSTORE PUSH1 0x20 PUSH1 0x0 KECCAK256 SWAP1 PUSH1 0x1F ADD PUSH1 0x20 SWAP1 DIV DUP2 ADD SWAP3 DUP3 ISZERO PUSH2 0x270 JUMPI SWAP2 PUSH1 0x20 MUL DUP3 ADD PUSH1 0x0 JUMPDEST DUP4 DUP3 GT ISZERO PUSH2 0x241 JUMPI DUP4 MLOAD DUP4 DUP3 PUSH2 0x100 EXP DUP2 SLOAD DUP2 PUSH1 0xFF MUL NOT AND SWAP1 DUP4 PUSH1 0x8 DUP2 GT ISZERO PUSH2 0x2D4 JUMPI PUSH2 0x2D4 PUSH2 0x37F JUMP JUMPDEST MUL OR SWAP1 SSTORE POP SWAP3 PUSH1 0x20 ADD SWAP3 PUSH1 0x1 ADD PUSH1 0x20 DUP2 PUSH1 0x0 ADD DIV SWAP3 DUP4 ADD SWAP3 PUSH1 0x1 SUB MUL PUSH2 0x2A9 JUMP JUMPDEST DUP3 DUP1 SLOAD DUP3 DUP3 SSTORE SWAP1 PUSH1 0x0 MSTORE PUSH1 0x20 PUSH1 0x0 KECCAK256 SWAP1 PUSH1 0x1F ADD PUSH1 0x20 SWAP1 DIV DUP2 ADD SWAP3 DUP3 ISZERO PUSH2 0x270 JUMPI SWAP2 PUSH1 0x20 MUL DUP3 ADD PUSH1 0x0 JUMPDEST DUP4 DUP3 GT ISZERO PUSH2 0x241 JUMPI DUP4 MLOAD DUP4 DUP3 PUSH2 0x100 EXP DUP2 SLOAD DUP2 PUSH1 0xFF MUL NOT AND SWAP1 DUP4 PUSH1 0x8 DUP2 GT ISZERO PUSH2 0x349 JUMPI PUSH2 0x349 PUSH2 0x37F JUMP JUMPDEST MUL OR SWAP1 SSTORE POP SWAP3 PUSH1 0x20 ADD SWAP3 PUSH1 0x1 ADD PUSH1 0x20 DUP2 PUSH1 0x0 ADD DIV SWAP3 DUP4 ADD SWAP3 PUSH1 0x1 SUB MUL PUSH2 0x31E JUMP JUMPDEST JUMPDEST DUP1 DUP3 GT ISZERO PUSH2 0x27C JUMPI PUSH1 0x0 DUP2 SSTORE PUSH1 0x1 ADD PUSH2 0x36B JUMP JUMPDEST PUSH4 0x4E487B71 PUSH1 0xE0 SHL PUSH1 0x0 MSTORE PUSH1 0x21 PUSH1 0x4 MSTORE PUSH1 0x24 PUSH1 0x0 REVERT JUMPDEST PUSH2 0xCA9 DUP1 PUSH2 0x3A4 PUSH1 0x0 CODECOPY PUSH1 0x0 RETURN INVALID PUSH1 0x80 PUSH1 0x40 MSTORE CALLVALUE DUP1 ISZERO PUSH2 0x10 JUMPI PUSH1 0x0 DUP1 REVERT JUMPDEST POP PUSH1 0x4 CALLDATASIZE LT PUSH2 0x62 JUMPI PUSH1 0x0 CALLDATALOAD PUSH1 0xE0 SHR DUP1 PUSH4 0x45E6413 EQ PUSH2 0x67 JUMPI DUP1 PUSH4 0x46081143 EQ PUSH2 0x7C JUMPI DUP1 PUSH4 0x56E73EA6 EQ PUSH2 0xA5 JUMPI DUP1 PUSH4 0x9384C44D EQ PUSH2 0xB8 JUMPI DUP1 PUSH4 0xA0D10E8D EQ PUSH2 0xCD JUMPI DUP1 PUSH4 0xCA954C2A EQ PUSH2 0xE0 JUMPI JUMPDEST PUSH1 0x0 DUP1 REVERT JUMPDEST PUSH2 0x7A PUSH2 0x75 CALLDATASIZE PUSH1 0x4 PUSH2 0xA03 JUMP JUMPDEST PUSH2 0xF3 JUMP JUMPDEST STOP JUMPDEST PUSH2 0x8F PUSH2 0x8A CALLDATASIZE PUSH1 0x4 PUSH2 0xA36 JUMP JUMPDEST PUSH2 0x23A JUMP JUMPDEST PUSH1 0x40 MLOAD PUSH2 0x9C SWAP2 SWAP1 PUSH2 0xA98 JUMP JUMPDEST PUSH1 0x40 MLOAD DUP1 SWAP2 SUB SWAP1 RETURN JUMPDEST PUSH2 0x7A PUSH2 0xB3 CALLDATASIZE PUSH1 0x4 PUSH2 0xAA6 JUMP JUMPDEST PUSH2 0x27D JUMP JUMPDEST PUSH2 0xC0 PUSH2 0x3BB JUMP JUMPDEST PUSH1 0x40 MLOAD PUSH2 0x9C SWAP2 SWAP1 PUSH2 0xB2E JUMP JUMPDEST PUSH2 0xC0 PUSH2 0xDB CALLDATASIZE PUSH1 0x4 PUSH2 0xB79 JUMP JUMPDEST PUSH2 0x443 JUMP JUMPDEST PUSH2 0x7A PUSH2 0xEE CALLDATASIZE PUSH1 0x4 PUSH2 0xA03 JUMP JUMPDEST PUSH2 0x500 JUMP JUMPDEST PUSH1 0x0 PUSH2 0x1B2 PUSH1 0x1 PUSH1 0x0 DUP6 PUSH1 0x8 DUP2 GT ISZERO PUSH2 0x10E JUMPI PUSH2 0x10E PUSH2 0xA60 JUMP JUMPDEST PUSH1 0x8 DUP2 GT ISZERO PUSH2 0x11F JUMPI PUSH2 0x11F PUSH2 0xA60 JUMP JUMPDEST DUP2 MSTORE PUSH1 0x20 ADD SWAP1 DUP2 MSTORE PUSH1 0x20 ADD PUSH1 0x0 KECCAK256 DUP1 SLOAD DUP1 PUSH1 0x20 MUL PUSH1 0x20 ADD PUSH1 0x40 MLOAD SWAP1 DUP2 ADD PUSH1 0x40 MSTORE DUP1 SWAP3 SWAP2 SWAP1 DUP2 DUP2 MSTORE PUSH1 0x20 ADD DUP3 DUP1 SLOAD DUP1 ISZERO PUSH2 0x1A7 JUMPI PUSH1 0x20 MUL DUP3 ADD SWAP2 SWAP1 PUSH1 0x0 MSTORE PUSH1 0x20 PUSH1 0x0 KECCAK256 SWAP1 PUSH1 0x0 SWAP1 JUMPDEST DUP3 DUP3 SWAP1 SLOAD SWAP1 PUSH2 0x100 EXP SWAP1 DIV PUSH1 0xFF AND PUSH1 0x8 DUP2 GT ISZERO PUSH2 0x185 JUMPI PUSH2 0x185 PUSH2 0xA60 JUMP JUMPDEST DUP2 MSTORE PUSH1 0x20 PUSH1 0x1 SWAP3 DUP4 ADD DUP2 DUP2 DIV SWAP5 DUP6 ADD SWAP5 SWAP1 SWAP4 SUB SWAP1 SWAP3 MUL SWAP2 ADD DUP1 DUP5 GT PUSH2 0x166 JUMPI SWAP1 POP JUMPDEST POP POP POP POP POP DUP4 PUSH2 0x608 JUMP JUMPDEST SWAP2 POP POP DUP1 PUSH2 0x235 JUMPI PUSH1 0x1 PUSH1 0x0 DUP5 PUSH1 0x8 DUP2 GT ISZERO PUSH2 0x1D0 JUMPI PUSH2 0x1D0 PUSH2 0xA60 JUMP JUMPDEST PUSH1 0x8 DUP2 GT ISZERO PUSH2 0x1E1 JUMPI PUSH2 0x1E1 PUSH2 0xA60 JUMP JUMPDEST DUP2 MSTORE PUSH1 0x20 DUP1 DUP3 ADD SWAP3 SWAP1 SWAP3 MSTORE PUSH1 0x40 ADD PUSH1 0x0 SWAP1 DUP2 KECCAK256 DUP1 SLOAD PUSH1 0x1 DUP2 ADD DUP3 SSTORE SWAP1 DUP3 MSTORE SWAP1 DUP3 SWAP1 KECCAK256 SWAP2 DUP2 DIV SWAP1 SWAP2 ADD DUP1 SLOAD DUP5 SWAP3 PUSH1 0x1F AND PUSH2 0x100 EXP PUSH1 0xFF DUP2 MUL NOT SWAP1 SWAP2 AND SWAP1 DUP4 PUSH1 0x8 DUP2 GT ISZERO PUSH2 0x22F JUMPI PUSH2 0x22F PUSH2 0xA60 JUMP JUMPDEST MUL OR SWAP1 SSTORE POP JUMPDEST POP POP POP JUMP JUMPDEST PUSH1 0x1 PUSH1 0x20 MSTORE DUP2 PUSH1 0x0 MSTORE PUSH1 0x40 PUSH1 0x0 KECCAK256 DUP2 DUP2 SLOAD DUP2 LT PUSH2 0x256 JUMPI PUSH1 0x0 DUP1 REVERT JUMPDEST SWAP1 PUSH1 0x0 MSTORE PUSH1 0x20 PUSH1 0x0 KECCAK256 SWAP1 PUSH1 0x20 SWAP2 DUP3 DUP3 DIV ADD SWAP2 SWAP1 MOD SWAP2 POP SWAP2 POP SWAP1 SLOAD SWAP1 PUSH2 0x100 EXP SWAP1 DIV PUSH1 0xFF AND DUP2 JUMP JUMPDEST PUSH2 0x36D PUSH1 0x1 PUSH1 0x0 DUP6 PUSH1 0x8 DUP2 GT ISZERO PUSH2 0x296 JUMPI PUSH2 0x296 PUSH2 0xA60 JUMP JUMPDEST PUSH1 0x8 DUP2 GT ISZERO PUSH2 0x2A7 JUMPI PUSH2 0x2A7 PUSH2 0xA60 JUMP JUMPDEST DUP2 MSTORE PUSH1 0x20 ADD SWAP1 DUP2 MSTORE PUSH1 0x20 ADD PUSH1 0x0 KECCAK256 DUP1 SLOAD DUP1 PUSH1 0x20 MUL PUSH1 0x20 ADD PUSH1 0x40 MLOAD SWAP1 DUP2 ADD PUSH1 0x40 MSTORE DUP1 SWAP3 SWAP2 SWAP1 DUP2 DUP2 MSTORE PUSH1 0x20 ADD DUP3 DUP1 SLOAD DUP1 ISZERO PUSH2 0x32F JUMPI PUSH1 0x20 MUL DUP3 ADD SWAP2 SWAP1 PUSH1 0x0 MSTORE PUSH1 0x20 PUSH1 0x0 KECCAK256 SWAP1 PUSH1 0x0 SWAP1 JUMPDEST DUP3 DUP3 SWAP1 SLOAD SWAP1 PUSH2 0x100 EXP SWAP1 DIV PUSH1 0xFF AND PUSH1 0x8 DUP2 GT ISZERO PUSH2 0x30D JUMPI PUSH2 0x30D PUSH2 0xA60 JUMP JUMPDEST DUP2 MSTORE PUSH1 0x20 PUSH1 0x1 SWAP3 DUP4 ADD DUP2 DUP2 DIV SWAP5 DUP6 ADD SWAP5 SWAP1 SWAP4 SUB SWAP1 SWAP3 MUL SWAP2 ADD DUP1 DUP5 GT PUSH2 0x2EE JUMPI SWAP1 POP JUMPDEST POP POP POP POP POP DUP4 DUP4 DUP1 DUP1 PUSH1 0x20 MUL PUSH1 0x20 ADD PUSH1 0x40 MLOAD SWAP1 DUP2 ADD PUSH1 0x40 MSTORE DUP1 SWAP4 SWAP3 SWAP2 SWAP1 DUP2 DUP2 MSTORE PUSH1 0x20 ADD DUP4 DUP4 PUSH1 0x20 MUL DUP1 DUP3 DUP5 CALLDATACOPY PUSH1 0x0 SWAP3 ADD SWAP2 SWAP1 SWAP2 MSTORE POP PUSH2 0x67C SWAP3 POP POP POP JUMP JUMPDEST PUSH2 0x235 JUMPI DUP2 DUP2 PUSH1 0x1 PUSH1 0x0 DUP7 PUSH1 0x8 DUP2 GT ISZERO PUSH2 0x389 JUMPI PUSH2 0x389 PUSH2 0xA60 JUMP JUMPDEST PUSH1 0x8 DUP2 GT ISZERO PUSH2 0x39A JUMPI PUSH2 0x39A PUSH2 0xA60 JUMP JUMPDEST DUP2 MSTORE PUSH1 0x20 ADD SWAP1 DUP2 MSTORE PUSH1 0x20 ADD PUSH1 0x0 KECCAK256 SWAP2 SWAP1 PUSH2 0x3B5 SWAP3 SWAP2 SWAP1 PUSH2 0x916 JUMP JUMPDEST POP POP POP POP JUMP JUMPDEST PUSH1 0x60 PUSH1 0x0 DUP1 SLOAD DUP1 PUSH1 0x20 MUL PUSH1 0x20 ADD PUSH1 0x40 MLOAD SWAP1 DUP2 ADD PUSH1 0x40 MSTORE DUP1 SWAP3 SWAP2 SWAP1 DUP2 DUP2 MSTORE PUSH1 0x20 ADD DUP3 DUP1 SLOAD DUP1 ISZERO PUSH2 0x439 JUMPI PUSH1 0x20 MUL DUP3 ADD SWAP2 SWAP1 PUSH1 0x0 MSTORE PUSH1 0x20 PUSH1 0x0 KECCAK256 SWAP1 PUSH1 0x0 SWAP1 JUMPDEST DUP3 DUP3 SWAP1 SLOAD SWAP1 PUSH2 0x100 EXP SWAP1 DIV PUSH1 0xFF AND PUSH1 0x8 DUP2 GT ISZERO PUSH2 0x417 JUMPI PUSH2 0x417 PUSH2 0xA60 JUMP JUMPDEST DUP2 MSTORE PUSH1 0x20 PUSH1 0x1 SWAP3 DUP4 ADD DUP2 DUP2 DIV SWAP5 DUP6 ADD SWAP5 SWAP1 SWAP4 SUB SWAP1 SWAP3 MUL SWAP2 ADD DUP1 DUP5 GT PUSH2 0x3F8 JUMPI SWAP1 POP JUMPDEST POP POP POP POP POP SWAP1 POP SWAP1 JUMP JUMPDEST PUSH1 0x60 PUSH1 0x1 PUSH1 0x0 DUP4 PUSH1 0x8 DUP2 GT ISZERO PUSH2 0x45B JUMPI PUSH2 0x45B PUSH2 0xA60 JUMP JUMPDEST PUSH1 0x8 DUP2 GT ISZERO PUSH2 0x46C JUMPI PUSH2 0x46C PUSH2 0xA60 JUMP JUMPDEST DUP2 MSTORE PUSH1 0x20 ADD SWAP1 DUP2 MSTORE PUSH1 0x20 ADD PUSH1 0x0 KECCAK256 DUP1 SLOAD DUP1 PUSH1 0x20 MUL PUSH1 0x20 ADD PUSH1 0x40 MLOAD SWAP1 DUP2 ADD PUSH1 0x40 MSTORE DUP1 SWAP3 SWAP2 SWAP1 DUP2 DUP2 MSTORE PUSH1 0x20 ADD DUP3 DUP1 SLOAD DUP1 ISZERO PUSH2 0x4F4 JUMPI PUSH1 0x20 MUL DUP3 ADD SWAP2 SWAP1 PUSH1 0x0 MSTORE PUSH1 0x20 PUSH1 0x0 KECCAK256 SWAP1 PUSH1 0x0 SWAP1 JUMPDEST DUP3 DUP3 SWAP1 SLOAD SWAP1 PUSH2 0x100 EXP SWAP1 DIV PUSH1 0xFF AND PUSH1 0x8 DUP2 GT ISZERO PUSH2 0x4D2 JUMPI PUSH2 0x4D2 PUSH2 0xA60 JUMP JUMPDEST DUP2 MSTORE PUSH1 0x20 PUSH1 0x1 SWAP3 DUP4 ADD DUP2 DUP2 DIV SWAP5 DUP6 ADD SWAP5 SWAP1 SWAP4 SUB SWAP1 SWAP3 MUL SWAP2 ADD DUP1 DUP5 GT PUSH2 0x4B3 JUMPI SWAP1 POP JUMPDEST POP POP POP POP POP SWAP1 POP SWAP2 SWAP1 POP JUMP JUMPDEST PUSH1 0x0 DUP1 PUSH2 0x5C0 PUSH1 0x1 PUSH1 0x0 DUP7 PUSH1 0x8 DUP2 GT ISZERO PUSH2 0x51C JUMPI PUSH2 0x51C PUSH2 0xA60 JUMP JUMPDEST PUSH1 0x8 DUP2 GT ISZERO PUSH2 0x52D JUMPI PUSH2 0x52D PUSH2 0xA60 JUMP JUMPDEST DUP2 MSTORE PUSH1 0x20 ADD SWAP1 DUP2 MSTORE PUSH1 0x20 ADD PUSH1 0x0 KECCAK256 DUP1 SLOAD DUP1 PUSH1 0x20 MUL PUSH1 0x20 ADD PUSH1 0x40 MLOAD SWAP1 DUP2 ADD PUSH1 0x40 MSTORE DUP1 SWAP3 SWAP2 SWAP1 DUP2 DUP2 MSTORE PUSH1 0x20 ADD DUP3 DUP1 SLOAD DUP1 ISZERO PUSH2 0x5B5 JUMPI PUSH1 0x20 MUL DUP3 ADD SWAP2 SWAP1 PUSH1 0x0 MSTORE PUSH1 0x20 PUSH1 0x0 KECCAK256 SWAP1 PUSH1 0x0 SWAP1 JUMPDEST DUP3 DUP3 SWAP1 SLOAD SWAP1 PUSH2 0x100 EXP SWAP1 DIV PUSH1 0xFF AND PUSH1 0x8 DUP2 GT ISZERO PUSH2 0x593 JUMPI PUSH2 0x593 PUSH2 0xA60 JUMP JUMPDEST DUP2 MSTORE PUSH1 0x20 PUSH1 0x1 SWAP3 DUP4 ADD DUP2 DUP2 DIV SWAP5 DUP6 ADD SWAP5 SWAP1 SWAP4 SUB SWAP1 SWAP3 MUL SWAP2 ADD DUP1 DUP5 GT PUSH2 0x574 JUMPI SWAP1 POP JUMPDEST POP POP POP POP POP DUP5 PUSH2 0x608 JUMP JUMPDEST SWAP2 POP SWAP2 POP DUP1 ISZERO PUSH2 0x3B5 JUMPI PUSH2 0x3B5 PUSH1 0x1 PUSH1 0x0 DUP7 PUSH1 0x8 DUP2 GT ISZERO PUSH2 0x5E3 JUMPI PUSH2 0x5E3 PUSH2 0xA60 JUMP JUMPDEST PUSH1 0x8 DUP2 GT ISZERO PUSH2 0x5F4 JUMPI PUSH2 0x5F4 PUSH2 0xA60 JUMP JUMPDEST DUP2 MSTORE PUSH1 0x20 ADD SWAP1 DUP2 MSTORE PUSH1 0x20 ADD PUSH1 0x0 KECCAK256 DUP4 PUSH2 0x6B3 JUMP JUMPDEST PUSH1 0x0 DUP1 PUSH1 0x0 JUMPDEST DUP5 MLOAD DUP2 LT ISZERO PUSH2 0x66C JUMPI DUP4 PUSH1 0x8 DUP2 GT ISZERO PUSH2 0x629 JUMPI PUSH2 0x629 PUSH2 0xA60 JUMP JUMPDEST DUP6 DUP3 DUP2 MLOAD DUP2 LT PUSH2 0x63B JUMPI PUSH2 0x63B PUSH2 0xB9B JUMP JUMPDEST PUSH1 0x20 MUL PUSH1 0x20 ADD ADD MLOAD PUSH1 0x8 DUP2 GT ISZERO PUSH2 0x654 JUMPI PUSH2 0x654 PUSH2 0xA60 JUMP JUMPDEST SUB PUSH2 0x664 JUMPI SWAP2 POP PUSH1 0x1 SWAP1 POP PUSH2 0x675 JUMP JUMPDEST PUSH1 0x1 ADD PUSH2 0x60E JUMP JUMPDEST POP PUSH1 0x0 DUP1 SWAP2 POP SWAP2 POP JUMPDEST SWAP3 POP SWAP3 SWAP1 POP JUMP JUMPDEST DUP1 MLOAD DUP3 MLOAD PUSH1 0x0 SWAP2 EQ DUP1 PUSH2 0x693 JUMPI PUSH1 0x0 SWAP2 POP POP PUSH2 0x6AD JUMP JUMPDEST PUSH1 0x0 PUSH2 0x69E DUP5 PUSH2 0x7BF JUMP JUMPDEST PUSH2 0x6A7 DUP7 PUSH2 0x7BF JUMP JUMPDEST EQ SWAP3 POP POP POP JUMPDEST SWAP3 SWAP2 POP POP JUMP JUMPDEST DUP2 SLOAD DUP2 LT PUSH2 0x6F7 JUMPI PUSH1 0x40 MLOAD PUSH3 0x461BCD PUSH1 0xE5 SHL DUP2 MSTORE PUSH1 0x20 PUSH1 0x4 DUP3 ADD MSTORE PUSH1 0xD PUSH1 0x24 DUP3 ADD MSTORE PUSH13 0x92DCECC2D8D2C840D2DCC8CAF PUSH1 0x9B SHL PUSH1 0x44 DUP3 ADD MSTORE PUSH1 0x64 ADD PUSH1 0x40 MLOAD DUP1 SWAP2 SUB SWAP1 REVERT JUMPDEST DUP2 SLOAD DUP3 SWAP1 PUSH2 0x707 SWAP1 PUSH1 0x1 SWAP1 PUSH2 0xBC7 JUMP JUMPDEST DUP2 SLOAD DUP2 LT PUSH2 0x717 JUMPI PUSH2 0x717 PUSH2 0xB9B JUMP JUMPDEST SWAP1 PUSH1 0x0 MSTORE PUSH1 0x20 PUSH1 0x0 KECCAK256 SWAP1 PUSH1 0x20 SWAP2 DUP3 DUP3 DIV ADD SWAP2 SWAP1 MOD SWAP1 SLOAD SWAP1 PUSH2 0x100 EXP SWAP1 DIV PUSH1 0xFF AND DUP3 DUP3 DUP2 SLOAD DUP2 LT PUSH2 0x749 JUMPI PUSH2 0x749 PUSH2 0xB9B JUMP JUMPDEST SWAP1 PUSH1 0x0 MSTORE PUSH1 0x20 PUSH1 0x0 KECCAK256 SWAP1 PUSH1 0x20 SWAP2 DUP3 DUP3 DIV ADD SWAP2 SWAP1 MOD PUSH2 0x100 EXP DUP2 SLOAD DUP2 PUSH1 0xFF MUL NOT AND SWAP1 DUP4 PUSH1 0x8 DUP2 GT ISZERO PUSH2 0x77C JUMPI PUSH2 0x77C PUSH2 0xA60 JUMP JUMPDEST MUL OR SWAP1 SSTORE POP DUP2 DUP1 SLOAD DUP1 PUSH2 0x791 JUMPI PUSH2 0x791 PUSH2 0xBDA JUMP JUMPDEST PUSH1 0x1 SWAP1 SUB DUP2 DUP2 SWAP1 PUSH1 0x0 MSTORE PUSH1 0x20 PUSH1 0x0 KECCAK256 SWAP1 PUSH1 0x20 SWAP2 DUP3 DUP3 DIV ADD SWAP2 SWAP1 MOD PUSH2 0x100 EXP DUP2 SLOAD SWAP1 PUSH1 0xFF MUL NOT AND SWAP1 SSTORE SWAP1 SSTORE POP POP JUMP JUMPDEST PUSH1 0x0 DUP1 PUSH2 0x7CE PUSH1 0x8 PUSH1 0x1 PUSH2 0xBF0 JUMP JUMPDEST SWAP1 POP PUSH1 0x0 DUP2 PUSH8 0xFFFFFFFFFFFFFFFF DUP2 GT ISZERO PUSH2 0x7EB JUMPI PUSH2 0x7EB PUSH2 0xC03 JUMP JUMPDEST PUSH1 0x40 MLOAD SWAP1 DUP1 DUP3 MSTORE DUP1 PUSH1 0x20 MUL PUSH1 0x20 ADD DUP3 ADD PUSH1 0x40 MSTORE DUP1 ISZERO PUSH2 0x814 JUMPI DUP2 PUSH1 0x20 ADD PUSH1 0x20 DUP3 MUL DUP1 CALLDATASIZE DUP4 CALLDATACOPY ADD SWAP1 POP JUMPDEST POP SWAP1 POP PUSH1 0x0 JUMPDEST DUP5 MLOAD DUP2 LT ISZERO PUSH2 0x88E JUMPI PUSH1 0x0 DUP6 DUP3 DUP2 MLOAD DUP2 LT PUSH2 0x837 JUMPI PUSH2 0x837 PUSH2 0xB9B JUMP JUMPDEST PUSH1 0x20 MUL PUSH1 0x20 ADD ADD MLOAD PUSH1 0x8 DUP2 GT ISZERO PUSH2 0x850 JUMPI PUSH2 0x850 PUSH2 0xA60 JUMP JUMPDEST SWAP1 POP DUP4 DUP2 PUSH1 0xFF AND LT ISZERO PUSH2 0x885 JUMPI PUSH1 0x1 DUP4 DUP3 PUSH1 0xFF AND DUP2 MLOAD DUP2 LT PUSH2 0x874 JUMPI PUSH2 0x874 PUSH2 0xB9B JUMP JUMPDEST SWAP2 ISZERO ISZERO PUSH1 0x20 SWAP3 DUP4 MUL SWAP2 SWAP1 SWAP2 ADD SWAP1 SWAP2 ADD MSTORE JUMPDEST POP PUSH1 0x1 ADD PUSH2 0x81A JUMP JUMPDEST POP PUSH1 0x40 DUP1 MLOAD PUSH1 0x20 DUP2 ADD SWAP1 SWAP2 MSTORE PUSH1 0x0 DUP1 DUP3 MSTORE JUMPDEST DUP4 DUP2 LT ISZERO PUSH2 0x905 JUMPI DUP3 DUP2 DUP2 MLOAD DUP2 LT PUSH2 0x8BA JUMPI PUSH2 0x8BA PUSH2 0xB9B JUMP JUMPDEST PUSH1 0x20 MUL PUSH1 0x20 ADD ADD MLOAD ISZERO PUSH2 0x8FD JUMPI DUP2 DUP2 PUSH1 0x8 DUP2 GT ISZERO PUSH2 0x8DA JUMPI PUSH2 0x8DA PUSH2 0xA60 JUMP JUMPDEST PUSH1 0x40 MLOAD PUSH1 0x20 ADD PUSH2 0x8EB SWAP3 SWAP2 SWAP1 PUSH2 0xC19 JUMP JUMPDEST PUSH1 0x40 MLOAD PUSH1 0x20 DUP2 DUP4 SUB SUB DUP2 MSTORE SWAP1 PUSH1 0x40 MSTORE SWAP2 POP JUMPDEST PUSH1 0x1 ADD PUSH2 0x8A0 JUMP JUMPDEST POP DUP1 MLOAD PUSH1 0x20 SWAP1 SWAP2 ADD KECCAK256 SWAP5 SWAP4 POP POP POP POP JUMP JUMPDEST DUP3 DUP1 SLOAD DUP3 DUP3 SSTORE SWAP1 PUSH1 0x0 MSTORE PUSH1 0x20 PUSH1 0x0 KECCAK256 SWAP1 PUSH1 0x1F ADD PUSH1 0x20 SWAP1 DIV DUP2 ADD SWAP3 DUP3 ISZERO PUSH2 0x9CA JUMPI SWAP2 PUSH1 0x20 MUL DUP3 ADD PUSH1 0x0 JUMPDEST DUP4 DUP3 GT ISZERO PUSH2 0x99B JUMPI DUP4 CALLDATALOAD PUSH1 0x8 DUP2 GT DUP1 ISZERO PUSH2 0x958 JUMPI PUSH1 0x0 DUP1 REVERT JUMPDEST POP DUP4 DUP3 PUSH2 0x100 EXP DUP2 SLOAD DUP2 PUSH1 0xFF MUL NOT AND SWAP1 DUP4 PUSH1 0x8 DUP2 GT ISZERO PUSH2 0x97A JUMPI PUSH2 0x97A PUSH2 0xA60 JUMP JUMPDEST MUL OR SWAP1 SSTORE POP SWAP3 PUSH1 0x20 ADD SWAP3 PUSH1 0x1 ADD PUSH1 0x20 DUP2 PUSH1 0x0 ADD DIV SWAP3 DUP4 ADD SWAP3 PUSH1 0x1 SUB MUL PUSH2 0x93F JUMP JUMPDEST DUP1 ISZERO PUSH2 0x9C8 JUMPI DUP3 DUP2 PUSH2 0x100 EXP DUP2 SLOAD SWAP1 PUSH1 0xFF MUL NOT AND SWAP1 SSTORE PUSH1 0x1 ADD PUSH1 0x20 DUP2 PUSH1 0x0 ADD DIV SWAP3 DUP4 ADD SWAP3 PUSH1 0x1 SUB MUL PUSH2 0x99B JUMP JUMPDEST POP JUMPDEST POP PUSH2 0x9D6 SWAP3 SWAP2 POP PUSH2 0x9DA JUMP JUMPDEST POP SWAP1 JUMP JUMPDEST JUMPDEST DUP1 DUP3 GT ISZERO PUSH2 0x9D6 JUMPI PUSH1 0x0 DUP2 SSTORE PUSH1 0x1 ADD PUSH2 0x9DB JUMP JUMPDEST DUP1 CALLDATALOAD PUSH1 0x9 DUP2 LT PUSH2 0x9FE JUMPI PUSH1 0x0 DUP1 REVERT JUMPDEST SWAP2 SWAP1 POP JUMP JUMPDEST PUSH1 0x0 DUP1 PUSH1 0x40 DUP4 DUP6 SUB SLT ISZERO PUSH2 0xA16 JUMPI PUSH1 0x0 DUP1 REVERT JUMPDEST PUSH2 0xA1F DUP4 PUSH2 0x9EF JUMP JUMPDEST SWAP2 POP PUSH2 0xA2D PUSH1 0x20 DUP5 ADD PUSH2 0x9EF JUMP JUMPDEST SWAP1 POP SWAP3 POP SWAP3 SWAP1 POP JUMP JUMPDEST PUSH1 0x0 DUP1 PUSH1 0x40 DUP4 DUP6 SUB SLT ISZERO PUSH2 0xA49 JUMPI PUSH1 0x0 DUP1 REVERT JUMPDEST PUSH2 0xA52 DUP4 PUSH2 0x9EF JUMP JUMPDEST SWAP5 PUSH1 0x20 SWAP4 SWAP1 SWAP4 ADD CALLDATALOAD SWAP4 POP POP POP JUMP JUMPDEST PUSH4 0x4E487B71 PUSH1 0xE0 SHL PUSH1 0x0 MSTORE PUSH1 0x21 PUSH1 0x4 MSTORE PUSH1 0x24 PUSH1 0x0 REVERT JUMPDEST PUSH1 0x9 DUP2 LT PUSH2 0xA94 JUMPI PUSH4 0x4E487B71 PUSH1 0xE0 SHL PUSH1 0x0 MSTORE PUSH1 0x21 PUSH1 0x4 MSTORE PUSH1 0x24 PUSH1 0x0 REVERT JUMPDEST SWAP1 MSTORE JUMP JUMPDEST PUSH1 0x20 DUP2 ADD PUSH2 0x6AD DUP3 DUP5 PUSH2 0xA76 JUMP JUMPDEST PUSH1 0x0 DUP1 PUSH1 0x0 PUSH1 0x40 DUP5 DUP7 SUB SLT ISZERO PUSH2 0xABB JUMPI PUSH1 0x0 DUP1 REVERT JUMPDEST PUSH2 0xAC4 DUP5 PUSH2 0x9EF JUMP JUMPDEST SWAP3 POP PUSH1 0x20 DUP5 ADD CALLDATALOAD PUSH8 0xFFFFFFFFFFFFFFFF DUP2 GT ISZERO PUSH2 0xAE0 JUMPI PUSH1 0x0 DUP1 REVERT JUMPDEST DUP5 ADD PUSH1 0x1F DUP2 ADD DUP7 SGT PUSH2 0xAF1 JUMPI PUSH1 0x0 DUP1 REVERT JUMPDEST DUP1 CALLDATALOAD PUSH8 0xFFFFFFFFFFFFFFFF DUP2 GT ISZERO PUSH2 0xB08 JUMPI PUSH1 0x0 DUP1 REVERT JUMPDEST DUP7 PUSH1 0x20 DUP3 PUSH1 0x5 SHL DUP5 ADD ADD GT ISZERO PUSH2 0xB1D JUMPI PUSH1 0x0 DUP1 REVERT JUMPDEST SWAP4 SWAP7 PUSH1 0x20 SWAP2 SWAP1 SWAP2 ADD SWAP6 POP SWAP3 SWAP4 POP POP POP JUMP JUMPDEST PUSH1 0x20 DUP1 DUP3 MSTORE DUP3 MLOAD DUP3 DUP3 ADD DUP2 SWAP1 MSTORE PUSH1 0x0 SWAP2 DUP5 ADD SWAP1 PUSH1 0x40 DUP5 ADD SWAP1 DUP4 JUMPDEST DUP2 DUP2 LT ISZERO PUSH2 0xB6E JUMPI PUSH2 0xB5B DUP4 DUP6 MLOAD PUSH2 0xA76 JUMP JUMPDEST PUSH1 0x20 SWAP4 DUP5 ADD SWAP4 SWAP3 SWAP1 SWAP3 ADD SWAP2 PUSH1 0x1 ADD PUSH2 0xB48 JUMP JUMPDEST POP SWAP1 SWAP6 SWAP5 POP POP POP POP POP JUMP JUMPDEST PUSH1 0x0 PUSH1 0x20 DUP3 DUP5 SUB SLT ISZERO PUSH2 0xB8B JUMPI PUSH1 0x0 DUP1 REVERT JUMPDEST PUSH2 0xB94 DUP3 PUSH2 0x9EF JUMP JUMPDEST SWAP4 SWAP3 POP POP POP JUMP JUMPDEST PUSH4 0x4E487B71 PUSH1 0xE0 SHL PUSH1 0x0 MSTORE PUSH1 0x32 PUSH1 0x4 MSTORE PUSH1 0x24 PUSH1 0x0 REVERT JUMPDEST PUSH4 0x4E487B71 PUSH1 0xE0 SHL PUSH1 0x0 MSTORE PUSH1 0x11 PUSH1 0x4 MSTORE PUSH1 0x24 PUSH1 0x0 REVERT JUMPDEST DUP2 DUP2 SUB DUP2 DUP2 GT ISZERO PUSH2 0x6AD JUMPI PUSH2 0x6AD PUSH2 0xBB1 JUMP JUMPDEST PUSH4 0x4E487B71 PUSH1 0xE0 SHL PUSH1 0x0 MSTORE PUSH1 0x31 PUSH1 0x4 MSTORE PUSH1 0x24 PUSH1 0x0 REVERT JUMPDEST DUP1 DUP3 ADD DUP1 DUP3 GT ISZERO PUSH2 0x6AD JUMPI PUSH2 0x6AD PUSH2 0xBB1 JUMP JUMPDEST PUSH4 0x4E487B71 PUSH1 0xE0 SHL PUSH1 0x0 MSTORE PUSH1 0x41 PUSH1 0x4 MSTORE PUSH1 0x24 PUSH1 0x0 REVERT JUMPDEST PUSH1 0x0 DUP4 MLOAD PUSH1 0x0 JUMPDEST DUP2 DUP2 LT ISZERO PUSH2 0xC3A JUMPI PUSH1 0x20 DUP2 DUP8 ADD DUP2 ADD MLOAD DUP6 DUP4 ADD MSTORE ADD PUSH2 0xC20 JUMP JUMPDEST POP PUSH1 0x0 SWAP1 DUP4 ADD SWAP1 DUP2 MSTORE PUSH1 0x9 DUP5 LT PUSH2 0xC61 JUMPI PUSH4 0x4E487B71 PUSH1 0xE0 SHL PUSH1 0x0 MSTORE PUSH1 0x21 PUSH1 0x4 MSTORE PUSH1 0x24 PUSH1 0x0 REVERT JUMPDEST PUSH1 0xF8 SWAP4 SWAP1 SWAP4 SHL DUP4 MSTORE POP POP PUSH1 0x1 ADD SWAP2 SWAP1 POP JUMP INVALID LOG2 PUSH5 0x6970667358 0x22 SLT KECCAK256 0xE2 PUSH11 0xAC5A04BE12C5072E922139 NUMBER SWAP16 0x4F 0xFB LOG4 PUSH19 0xB3A099B8DC18A46722D030D93A64736F6C6343 STOP ADDMOD BYTE STOP CALLER "},"methodIdentifiers":{"addOrderStateInTransitionMapping(uint8,uint8)":"045e6413","debugGetOrderStates()":"9384c44d","getStateTransitionMap(uint8)":"a0d10e8d","removeOrderStateTransitionMapping(uint8,uint8)":"ca954c2a","stateTransitionMap(uint8,uint256)":"46081143","updateStateTransitionMapping(uint8,uint8[])":"56e73ea6"}}}}}