{"contracts/003_operations.sol":{"Operations":{"abi":[{"inputs":[],"stateMutability":"nonpayable","type":"constructor"},{"inputs":[{"internalType":"uint256","name":"_value","type":"uint256"}],"name":"addToArray","outputs":[],"stateMutability":"nonpayable","type":"function"},{"inputs":[{"internalType":"uint256","name":"_key","type":"uint256"},{"internalType":"uint256","name":"_value","type":"uint256"}],"name":"addToMapping","outputs":[],"stateMutability":"nonpayable","type":"function"},{"inputs":[{"internalType":"uint256","name":"_num","type":"uint256"}],"name":"checkArrayOperations","outputs":[],"stateMutability":"nonpayable","type":"function"},{"inputs":[],"name":"checkConditionals","outputs":[{"internalType":"string","name":"","type":"string"}],"stateMutability":"view","type":"function"},{"inputs":[{"internalType":"uint8","name":"_num","type":"uint8"}],"name":"checkLoops","outputs":[{"internalType":"uint256","name":"","type":"uint256"},{"internalType":"bool","name":"","type":"bool"}],"stateMutability":"pure","type":"function"},{"inputs":[{"internalType":"uint256","name":"_key","type":"uint256"}],"name":"getMappingValue","outputs":[{"internalType":"uint256","name":"","type":"uint256"}],"stateMutability":"view","type":"function"},{"inputs":[],"name":"getMyArray","outputs":[{"internalType":"uint256[]","name":"","type":"uint256[]"}],"stateMutability":"view","type":"function"},{"inputs":[],"name":"myAddress","outputs":[{"internalType":"address","name":"","type":"address"}],"stateMutability":"view","type":"function"},{"inputs":[{"internalType":"uint256","name":"","type":"uint256"}],"name":"myArray","outputs":[{"internalType":"uint256","name":"","type":"uint256"}],"stateMutability":"view","type":"function"},{"inputs":[{"internalType":"uint256","name":"","type":"uint256"}],"name":"myMapping","outputs":[{"internalType":"uint256","name":"","type":"uint256"}],"stateMutability":"view","type":"function"},{"inputs":[],"name":"myNumber","outputs":[{"internalType":"uint256","name":"","type":"uint256"}],"stateMutability":"view","type":"function"},{"inputs":[],"name":"print","outputs":[],"stateMutability":"view","type":"function"},{"inputs":[{"internalType":"uint256","name":"_key","type":"uint256"}],"name":"removeKV","outputs":[],"stateMutability":"nonpayable","type":"function"}],"evm":{"bytecode":{"linkReferences":{},"object":"6080604052607b600055600180546001600160a01b03191633179055348015602657600080fd5b506002805460018181018355600a7f405787fa12a823e0f2b7631cc41b3ba8828b3321ca811111fa75cd3aa3bb5ace92830155825480820190935560149290910191909155600052600360205260647fa15bc60c955c405d20d9149c709e2460f1c2d9a497496a7f46004d1772c3054c55611239806100a66000396000f3fe608060405234801561001057600080fd5b50600436106100cf5760003560e01c806392dda6491161008c578063bba50db211610066578063bba50db2146101d6578063be38d94e146101f6578063cc3e57d914610209578063d15ec8511461021c57600080fd5b806392dda6491461016f578063a29f697714610197578063b3c8bc06146101b757600080fd5b806313bdfacd146100d457806323fd0e40146100de57806326b85ee1146100fa5780634e43600e146101255780637c6688441461013a57806390f187191461015a575b600080fd5b6100dc61025f565b005b6100e760005481565b6040519081526020015b60405180910390f35b60015461010d906001600160a01b031681565b6040516001600160a01b0390911681526020016100f1565b61012d610368565b6040516100f19190610df5565b6100e7610148366004610e38565b60036020526000908152604090205481565b6101626103c0565b6040516100f19190610e97565b61018261017d366004610eb1565b610403565b604080519283529015156020830152016100f1565b6100dc6101a5366004610ed4565b60009182526003602052604090912055565b6100dc6101c5366004610e38565b600090815260036020526040812055565b6100e76101e4366004610e38565b60009081526003602052604090205490565b6100dc610204366004610e38565b61042c565b6100e7610217366004610e38565b6108ae565b6100dc61022a366004610e38565b600280546001810182556000919091527f405787fa12a823e0f2b7631cc41b3ba8828b3321ca811111fa75cd3aa3bb5ace0155565b61029d6040518060400160405280601d81526020017f2d2d2d204c6f6767696e672066726f6d20536f6c6964697479202d2d2d0000008152506108cf565b6102ca6040518060400160405280600981526020016836bca73ab6b132b91d60b91b815250600054610915565b60408051808201909152600a81526936bca0b2323932b9b99d60b11b602082015260015461030191906001600160a01b031661095e565b6103096109a3565b60408051808201909152600d81526c36bca6b0b83834b733ad98ae9d60991b6020808301919091526001600052600390527fa15bc60c955c405d20d9149c709e2460f1c2d9a497496a7f46004d1772c3054c546103669190610915565b565b606060028054806020026020016040519081016040528092919081815260200182805480156103b657602002820191906000526020600020905b8154815260200190600101908083116103a2575b5050505050905090565b60606103ca6109fa565b60006103d4610a64565b90506103fe6040518060400160405280600681526020016503932b9901d160d51b81525082610aab565b919050565b600080600061041184610af0565b9050600061041e85610b21565b919591861494509092505050565b61046a6040518060400160405280601f81526020017f2d2d2d2d2d2d2d2d2d2d707573682d2d2d2d2d2d2d2d2d2d2d2d2d2d2d2d2d008152506108cf565b60005b8181101561049c5760026104818282610f0c565b8154600181810184556000938452602090932001550161046d565b506104a56109a3565b6104c6604051806060016040528060228152602001611142602291396108cf565b60028054806104d7576104d7610f29565b600190038181906000526020600020016000905590556104f56109a3565b6000600290506105656040518060400160405280601d81526020017f2d2d2d2d2d2d2d2d2d2d72656d6f76616c20617420696e646578203a20000000815250826040518060400160405280601281526020017101696969696969696969696969696969696960751b815250610b4f565b61056f6002610b9b565b6105776109a3565b6105986040518060600160405280603e81526020016110cb603e91396108cf565b60606105a381610ba6565b6105dc604051806040016040528060168152602001754c656e677468206f6620636f7069656420617272617960501b8152508251610915565b6105e581610bfb565b6105ee81610bfb565b61060f604051806060016040528060398152602001611109603991396108cf565b6106176109a3565b6000610621610368565b905061065c604051806040016040528060168152602001754c656e677468206f6620636f7069656420617272617960501b8152508251610915565b61066581610bfb565b600280548061067657610676610f29565b600190038181906000526020600020016000905590556106ad6040518060600160405280602e81526020016111d6602e91396108cf565b6106e6604051806040016040528060168152602001754c656e677468206f6620636f7069656420617272617960501b8152508251610915565b610707604051806080016040528060508152602001611186605091396108cf565b61071081610bfb565b610731604051806060016040528060278152602001611069602791396108cf565b6107396109a3565b6040805180820190915260168152754c656e677468206f6620636f7069656420617272617960501b602082015260028054909161077591610915565b6107cd818054806020026020016040519081016040528092919081815260200182805480156107c357602002820191906000526020600020905b8154815260200190600101908083116107af575b5050505050610bfb565b60028054806107de576107de610f29565b60019003818190600052602060002001600090559055610830604051806040016040528060168152602001754c656e677468206f6620636f7069656420617272617960501b8152508280549050610915565b610886818054806020026020016040519081016040528092919081815260200182805480156107c357602002820191906000526020600020908154815260200190600101908083116107af575050505050610bfb565b6108a76040518060600160405280603b8152602001611090603b91396108cf565b5050505050565b600281815481106108be57600080fd5b600091825260209091200154905081565b610912816040516024016108e39190610e97565b60408051601f198184030181529190526020810180516001600160e01b031663104c13eb60e21b179052610c95565b50565b61095a828260405160240161092b929190610f3f565b60408051601f198184030181529190526020810180516001600160e01b0316632d839cb360e21b179052610c95565b5050565b61095a8282604051602401610974929190610f61565b60408051601f198184030181529190526020810180516001600160e01b031663319af33360e01b179052610c95565b61036660028054806020026020016040519081016040528092919081815260200182805480156107c357602002820191906000526020600020908154815260200190600101908083116107af575050505050610bfb565b600a6000541115610a43576103666040518060400160405280601b81526020017f6d794e756d6265722069732067726561746572207468616e20313000000000008152506108cf565b610366604051806060016040528060228152602001611164602291396108cf565b6060606460005411610a8d57506040805180820190915260028152614e6f60f01b602082015290565b5060408051808201909152600381526259657360e81b602082015290565b61095a8282604051602401610ac1929190610f8b565b60408051601f198184030181529190526020810180516001600160e01b0316634b5c427760e01b179052610c95565b600080805b8360ff168160ff161015610b1a57610b1060ff821683610fb9565b9150600101610af5565b5092915050565b600080805b8360ff16811015610b1a57610b3b8183610fb9565b915080610b4781610fcc565b915050610b26565b610b96838383604051602401610b6793929190610fe5565b60408051601f198184030181529190526020810180516001600160e01b0316635970e08960e01b179052610c95565b505050565b610912600282610c9e565b6002805480602002602001604051908101604052809291908181526020018280548015610bf257602002820191906000526020600020905b815481526020019060010190808311610bde575b50505050505050565b610c396040518060400160405280601e81526020017f2d2d2d204c6f6767696e6720417272617920436f6e74656e7473202d2d2d00008152506108cf565b60005b815181101561095a57610c8d6040518060400160405280600c81526020016b36bca0b93930bcad92b22e9d60a11b81525082848481518110610c8057610c8061101a565b6020026020010151610d8d565b600101610c3c565b61091281610dd4565b81548110610cfe5760405162461bcd60e51b8152602060048201526024808201527f696e64657820676976656e206973206f7574206f6620626f756e64206f6620616044820152637272617960e01b606482015260840160405180910390fd5b805b8254610d0e90600190611030565b811015610d625782610d21826001610fb9565b81548110610d3157610d3161101a565b9060005260206000200154838281548110610d4e57610d4e61101a565b600091825260209091200155600101610d00565b5081805480610d7357610d73610f29565b600190038181906000526020600020016000905590555050565b610b96838383604051602401610da593929190611043565b60408051601f198184030181529190526020810180516001600160e01b031663ca47c4eb60e01b179052610c95565b60006a636f6e736f6c652e6c6f679050600080835160208501845afa505050565b602080825282518282018190526000918401906040840190835b81811015610e2d578351835260209384019390920191600101610e0f565b509095945050505050565b600060208284031215610e4a57600080fd5b5035919050565b6000815180845260005b81811015610e7757602081850181015186830182015201610e5b565b506000602082860101526020601f19601f83011685010191505092915050565b602081526000610eaa6020830184610e51565b9392505050565b600060208284031215610ec357600080fd5b813560ff81168114610eaa57600080fd5b60008060408385031215610ee757600080fd5b50508035926020909101359150565b634e487b7160e01b600052601160045260246000fd5b8082028115828204841417610f2357610f23610ef6565b92915050565b634e487b7160e01b600052603160045260246000fd5b604081526000610f526040830185610e51565b90508260208301529392505050565b604081526000610f746040830185610e51565b905060018060a01b03831660208301529392505050565b604081526000610f9e6040830185610e51565b8281036020840152610fb08185610e51565b95945050505050565b80820180821115610f2357610f23610ef6565b600060018201610fde57610fde610ef6565b5060010190565b606081526000610ff86060830186610e51565b84602084015282810360408401526110108185610e51565b9695505050505050565b634e487b7160e01b600052603260045260246000fd5b81810381811115610f2357610f23610ef6565b6060815260006110566060830186610e51565b6020830194909452506040015291905056fe2d2d2d2d2d2d2d2d2d636f70792062792073746f72616765202d2d2d2d2d2d2d2d2d2d2d2d2d2d656666656374206f66206f726967696e616c206172726179206368616e67652068617070656e73206f6e2074686520636f706965642061727261792d2d2d2d2d2d2d2d2d2d2d2d636f70794172726179206279205265662d2d2d2d2d2d2d2d2d2d2d2d2d2d2d2d2d2d203a20446f6573204e4f5420574f524b2d2d2d2d2d2d2d2d2d2d2d2d20636f707941727261792062792076616c7565204d656d6f7279202d2d2d2d2d2d2d2d2d2d2d2d2d2d2d2d2d2d2d2d2d2d2d2d2d2d2d2d72656d6f76616c2d2d2d2d2d2d2d2d2d2d2d2d2d2d2d2d2d6d79206e756d626572206973206c657373207468616e206f7220657175616c203130426f7468206c656e677468206172652073616d65203d3e2074686520636f6965642061727261792069732061206e657720736570657261746520617272617920636f7079206f66206f726967696e616c416674657220736f6d6520656c656d656e742072656d6f76616c2066726f6d206f726967696e616c206172726179a2646970667358221220b2b64bc56d691b60617312daba385c727046f1f49cb49c445397135b68d2dcf664736f6c634300081a0033","opcodes":"PUSH1 0x80 PUSH1 0x40 MSTORE PUSH1 0x7B PUSH1 0x0 SSTORE PUSH1 0x1 DUP1 SLOAD PUSH1 0x1 PUSH1 0x1 PUSH1 0xA0 SHL SUB NOT AND CALLER OR SWAP1 SSTORE CALLVALUE DUP1 ISZERO PUSH1 0x26 JUMPI PUSH1 0x0 DUP1 REVERT JUMPDEST POP PUSH1 0x2 DUP1 SLOAD PUSH1 0x1 DUP2 DUP2 ADD DUP4 SSTORE PUSH1 0xA PUSH32 0x405787FA12A823E0F2B7631CC41B3BA8828B3321CA811111FA75CD3AA3BB5ACE SWAP3 DUP4 ADD SSTORE DUP3 SLOAD DUP1 DUP3 ADD SWAP1 SWAP4 SSTORE PUSH1 0x14 SWAP3 SWAP1 SWAP2 ADD SWAP2 SWAP1 SWAP2 SSTORE PUSH1 0x0 MSTORE PUSH1 0x3 PUSH1 0x20 MSTORE PUSH1 0x64 PUSH32 0xA15BC60C955C405D20D9149C709E2460F1C2D9A497496A7F46004D1772C3054C SSTORE PUSH2 0x1239 DUP1 PUSH2 0xA6 PUSH1 0x0 CODECOPY PUSH1 0x0 RETURN INVALID PUSH1 0x80 PUSH1 0x40 MSTORE CALLVALUE DUP1 ISZERO PUSH2 0x10 JUMPI PUSH1 0x0 DUP1 REVERT JUMPDEST POP PUSH1 0x4 CALLDATASIZE LT PUSH2 0xCF JUMPI PUSH1 0x0 CALLDATALOAD PUSH1 0xE0 SHR DUP1 PUSH4 0x92DDA649 GT PUSH2 0x8C JUMPI DUP1 PUSH4 0xBBA50DB2 GT PUSH2 0x66 JUMPI DUP1 PUSH4 0xBBA50DB2 EQ PUSH2 0x1D6 JUMPI DUP1 PUSH4 0xBE38D94E EQ PUSH2 0x1F6 JUMPI DUP1 PUSH4 0xCC3E57D9 EQ PUSH2 0x209 JUMPI DUP1 PUSH4 0xD15EC851 EQ PUSH2 0x21C JUMPI PUSH1 0x0 DUP1 REVERT JUMPDEST DUP1 PUSH4 0x92DDA649 EQ PUSH2 0x16F JUMPI DUP1 PUSH4 0xA29F6977 EQ PUSH2 0x197 JUMPI DUP1 PUSH4 0xB3C8BC06 EQ PUSH2 0x1B7 JUMPI PUSH1 0x0 DUP1 REVERT JUMPDEST DUP1 PUSH4 0x13BDFACD EQ PUSH2 0xD4 JUMPI DUP1 PUSH4 0x23FD0E40 EQ PUSH2 0xDE JUMPI DUP1 PUSH4 0x26B85EE1 EQ PUSH2 0xFA JUMPI DUP1 PUSH4 0x4E43600E EQ PUSH2 0x125 JUMPI DUP1 PUSH4 0x7C668844 EQ PUSH2 0x13A JUMPI DUP1 PUSH4 0x90F18719 EQ PUSH2 0x15A JUMPI JUMPDEST PUSH1 0x0 DUP1 REVERT JUMPDEST PUSH2 0xDC PUSH2 0x25F JUMP JUMPDEST STOP JUMPDEST PUSH2 0xE7 PUSH1 0x0 SLOAD DUP2 JUMP JUMPDEST PUSH1 0x40 MLOAD SWAP1 DUP2 MSTORE PUSH1 0x20 ADD JUMPDEST PUSH1 0x40 MLOAD DUP1 SWAP2 SUB SWAP1 RETURN JUMPDEST PUSH1 0x1 SLOAD PUSH2 0x10D SWAP1 PUSH1 0x1 PUSH1 0x1 PUSH1 0xA0 SHL SUB AND DUP2 JUMP JUMPDEST PUSH1 0x40 MLOAD PUSH1 0x1 PUSH1 0x1 PUSH1 0xA0 SHL SUB SWAP1 SWAP2 AND DUP2 MSTORE PUSH1 0x20 ADD PUSH2 0xF1 JUMP JUMPDEST PUSH2 0x12D PUSH2 0x368 JUMP JUMPDEST PUSH1 0x40 MLOAD PUSH2 0xF1 SWAP2 SWAP1 PUSH2 0xDF5 JUMP JUMPDEST PUSH2 0xE7 PUSH2 0x148 CALLDATASIZE PUSH1 0x4 PUSH2 0xE38 JUMP JUMPDEST PUSH1 0x3 PUSH1 0x20 MSTORE PUSH1 0x0 SWAP1 DUP2 MSTORE PUSH1 0x40 SWAP1 KECCAK256 SLOAD DUP2 JUMP JUMPDEST PUSH2 0x162 PUSH2 0x3C0 JUMP JUMPDEST PUSH1 0x40 MLOAD PUSH2 0xF1 SWAP2 SWAP1 PUSH2 0xE97 JUMP JUMPDEST PUSH2 0x182 PUSH2 0x17D CALLDATASIZE PUSH1 0x4 PUSH2 0xEB1 JUMP JUMPDEST PUSH2 0x403 JUMP JUMPDEST PUSH1 0x40 DUP1 MLOAD SWAP3 DUP4 MSTORE SWAP1 ISZERO ISZERO PUSH1 0x20 DUP4 ADD MSTORE ADD PUSH2 0xF1 JUMP JUMPDEST PUSH2 0xDC PUSH2 0x1A5 CALLDATASIZE PUSH1 0x4 PUSH2 0xED4 JUMP JUMPDEST PUSH1 0x0 SWAP2 DUP3 MSTORE PUSH1 0x3 PUSH1 0x20 MSTORE PUSH1 0x40 SWAP1 SWAP2 KECCAK256 SSTORE JUMP JUMPDEST PUSH2 0xDC PUSH2 0x1C5 CALLDATASIZE PUSH1 0x4 PUSH2 0xE38 JUMP JUMPDEST PUSH1 0x0 SWAP1 DUP2 MSTORE PUSH1 0x3 PUSH1 0x20 MSTORE PUSH1 0x40 DUP2 KECCAK256 SSTORE JUMP JUMPDEST PUSH2 0xE7 PUSH2 0x1E4 CALLDATASIZE PUSH1 0x4 PUSH2 0xE38 JUMP JUMPDEST PUSH1 0x0 SWAP1 DUP2 MSTORE PUSH1 0x3 PUSH1 0x20 MSTORE PUSH1 0x40 SWAP1 KECCAK256 SLOAD SWAP1 JUMP JUMPDEST PUSH2 0xDC PUSH2 0x204 CALLDATASIZE PUSH1 0x4 PUSH2 0xE38 JUMP JUMPDEST PUSH2 0x42C JUMP JUMPDEST PUSH2 0xE7 PUSH2 0x217 CALLDATASIZE PUSH1 0x4 PUSH2 0xE38 JUMP JUMPDEST PUSH2 0x8AE JUMP JUMPDEST PUSH2 0xDC PUSH2 0x22A CALLDATASIZE PUSH1 0x4 PUSH2 0xE38 JUMP JUMPDEST PUSH1 0x2 DUP1 SLOAD PUSH1 0x1 DUP2 ADD DUP3 SSTORE PUSH1 0x0 SWAP2 SWAP1 SWAP2 MSTORE PUSH32 0x405787FA12A823E0F2B7631CC41B3BA8828B3321CA811111FA75CD3AA3BB5ACE ADD SSTORE JUMP JUMPDEST PUSH2 0x29D PUSH1 0x40 MLOAD DUP1 PUSH1 0x40 ADD PUSH1 0x40 MSTORE DUP1 PUSH1 0x1D DUP2 MSTORE PUSH1 0x20 ADD PUSH32 0x2D2D2D204C6F6767696E672066726F6D20536F6C6964697479202D2D2D000000 DUP2 MSTORE POP PUSH2 0x8CF JUMP JUMPDEST PUSH2 0x2CA PUSH1 0x40 MLOAD DUP1 PUSH1 0x40 ADD PUSH1 0x40 MSTORE DUP1 PUSH1 0x9 DUP2 MSTORE PUSH1 0x20 ADD PUSH9 0x36BCA73AB6B132B91D PUSH1 0xB9 SHL DUP2 MSTORE POP PUSH1 0x0 SLOAD PUSH2 0x915 JUMP JUMPDEST PUSH1 0x40 DUP1 MLOAD DUP1 DUP3 ADD SWAP1 SWAP2 MSTORE PUSH1 0xA DUP2 MSTORE PUSH10 0x36BCA0B2323932B9B99D PUSH1 0xB1 SHL PUSH1 0x20 DUP3 ADD MSTORE PUSH1 0x1 SLOAD PUSH2 0x301 SWAP2 SWAP1 PUSH1 0x1 PUSH1 0x1 PUSH1 0xA0 SHL SUB AND PUSH2 0x95E JUMP JUMPDEST PUSH2 0x309 PUSH2 0x9A3 JUMP JUMPDEST PUSH1 0x40 DUP1 MLOAD DUP1 DUP3 ADD SWAP1 SWAP2 MSTORE PUSH1 0xD DUP2 MSTORE PUSH13 0x36BCA6B0B83834B733AD98AE9D PUSH1 0x99 SHL PUSH1 0x20 DUP1 DUP4 ADD SWAP2 SWAP1 SWAP2 MSTORE PUSH1 0x1 PUSH1 0x0 MSTORE PUSH1 0x3 SWAP1 MSTORE PUSH32 0xA15BC60C955C405D20D9149C709E2460F1C2D9A497496A7F46004D1772C3054C SLOAD PUSH2 0x366 SWAP2 SWAP1 PUSH2 0x915 JUMP JUMPDEST JUMP JUMPDEST PUSH1 0x60 PUSH1 0x2 DUP1 SLOAD DUP1 PUSH1 0x20 MUL PUSH1 0x20 ADD PUSH1 0x40 MLOAD SWAP1 DUP2 ADD PUSH1 0x40 MSTORE DUP1 SWAP3 SWAP2 SWAP1 DUP2 DUP2 MSTORE PUSH1 0x20 ADD DUP3 DUP1 SLOAD DUP1 ISZERO PUSH2 0x3B6 JUMPI PUSH1 0x20 MUL DUP3 ADD SWAP2 SWAP1 PUSH1 0x0 MSTORE PUSH1 0x20 PUSH1 0x0 KECCAK256 SWAP1 JUMPDEST DUP2 SLOAD DUP2 MSTORE PUSH1 0x20 ADD SWAP1 PUSH1 0x1 ADD SWAP1 DUP1 DUP4 GT PUSH2 0x3A2 JUMPI JUMPDEST POP POP POP POP POP SWAP1 POP SWAP1 JUMP JUMPDEST PUSH1 0x60 PUSH2 0x3CA PUSH2 0x9FA JUMP JUMPDEST PUSH1 0x0 PUSH2 0x3D4 PUSH2 0xA64 JUMP JUMPDEST SWAP1 POP PUSH2 0x3FE PUSH1 0x40 MLOAD DUP1 PUSH1 0x40 ADD PUSH1 0x40 MSTORE DUP1 PUSH1 0x6 DUP2 MSTORE PUSH1 0x20 ADD PUSH6 0x3932B9901D1 PUSH1 0xD5 SHL DUP2 MSTORE POP DUP3 PUSH2 0xAAB JUMP JUMPDEST SWAP2 SWAP1 POP JUMP JUMPDEST PUSH1 0x0 DUP1 PUSH1 0x0 PUSH2 0x411 DUP5 PUSH2 0xAF0 JUMP JUMPDEST SWAP1 POP PUSH1 0x0 PUSH2 0x41E DUP6 PUSH2 0xB21 JUMP JUMPDEST SWAP2 SWAP6 SWAP2 DUP7 EQ SWAP5 POP SWAP1 SWAP3 POP POP POP JUMP JUMPDEST PUSH2 0x46A PUSH1 0x40 MLOAD DUP1 PUSH1 0x40 ADD PUSH1 0x40 MSTORE DUP1 PUSH1 0x1F DUP2 MSTORE PUSH1 0x20 ADD PUSH32 0x2D2D2D2D2D2D2D2D2D2D707573682D2D2D2D2D2D2D2D2D2D2D2D2D2D2D2D2D00 DUP2 MSTORE POP PUSH2 0x8CF JUMP JUMPDEST PUSH1 0x0 JUMPDEST DUP2 DUP2 LT ISZERO PUSH2 0x49C JUMPI PUSH1 0x2 PUSH2 0x481 DUP3 DUP3 PUSH2 0xF0C JUMP JUMPDEST DUP2 SLOAD PUSH1 0x1 DUP2 DUP2 ADD DUP5 SSTORE PUSH1 0x0 SWAP4 DUP5 MSTORE PUSH1 0x20 SWAP1 SWAP4 KECCAK256 ADD SSTORE ADD PUSH2 0x46D JUMP JUMPDEST POP PUSH2 0x4A5 PUSH2 0x9A3 JUMP JUMPDEST PUSH2 0x4C6 PUSH1 0x40 MLOAD DUP1 PUSH1 0x60 ADD PUSH1 0x40 MSTORE DUP1 PUSH1 0x22 DUP2 MSTORE PUSH1 0x20 ADD PUSH2 0x1142 PUSH1 0x22 SWAP2 CODECOPY PUSH2 0x8CF JUMP JUMPDEST PUSH1 0x2 DUP1 SLOAD DUP1 PUSH2 0x4D7 JUMPI PUSH2 0x4D7 PUSH2 0xF29 JUMP JUMPDEST PUSH1 0x1 SWAP1 SUB DUP2 DUP2 SWAP1 PUSH1 0x0 MSTORE PUSH1 0x20 PUSH1 0x0 KECCAK256 ADD PUSH1 0x0 SWAP1 SSTORE SWAP1 SSTORE PUSH2 0x4F5 PUSH2 0x9A3 JUMP JUMPDEST PUSH1 0x0 PUSH1 0x2 SWAP1 POP PUSH2 0x565 PUSH1 0x40 MLOAD DUP1 PUSH1 0x40 ADD PUSH1 0x40 MSTORE DUP1 PUSH1 0x1D DUP2 MSTORE PUSH1 0x20 ADD PUSH32 0x2D2D2D2D2D2D2D2D2D2D72656D6F76616C20617420696E646578203A20000000 DUP2 MSTORE POP DUP3 PUSH1 0x40 MLOAD DUP1 PUSH1 0x40 ADD PUSH1 0x40 MSTORE DUP1 PUSH1 0x12 DUP2 MSTORE PUSH1 0x20 ADD PUSH18 0x16969696969696969696969696969696969 PUSH1 0x75 SHL DUP2 MSTORE POP PUSH2 0xB4F JUMP JUMPDEST PUSH2 0x56F PUSH1 0x2 PUSH2 0xB9B JUMP JUMPDEST PUSH2 0x577 PUSH2 0x9A3 JUMP JUMPDEST PUSH2 0x598 PUSH1 0x40 MLOAD DUP1 PUSH1 0x60 ADD PUSH1 0x40 MSTORE DUP1 PUSH1 0x3E DUP2 MSTORE PUSH1 0x20 ADD PUSH2 0x10CB PUSH1 0x3E SWAP2 CODECOPY PUSH2 0x8CF JUMP JUMPDEST PUSH1 0x60 PUSH2 0x5A3 DUP2 PUSH2 0xBA6 JUMP JUMPDEST PUSH2 0x5DC PUSH1 0x40 MLOAD DUP1 PUSH1 0x40 ADD PUSH1 0x40 MSTORE DUP1 PUSH1 0x16 DUP2 MSTORE PUSH1 0x20 ADD PUSH22 0x4C656E677468206F6620636F70696564206172726179 PUSH1 0x50 SHL DUP2 MSTORE POP DUP3 MLOAD PUSH2 0x915 JUMP JUMPDEST PUSH2 0x5E5 DUP2 PUSH2 0xBFB JUMP JUMPDEST PUSH2 0x5EE DUP2 PUSH2 0xBFB JUMP JUMPDEST PUSH2 0x60F PUSH1 0x40 MLOAD DUP1 PUSH1 0x60 ADD PUSH1 0x40 MSTORE DUP1 PUSH1 0x39 DUP2 MSTORE PUSH1 0x20 ADD PUSH2 0x1109 PUSH1 0x39 SWAP2 CODECOPY PUSH2 0x8CF JUMP JUMPDEST PUSH2 0x617 PUSH2 0x9A3 JUMP JUMPDEST PUSH1 0x0 PUSH2 0x621 PUSH2 0x368 JUMP JUMPDEST SWAP1 POP PUSH2 0x65C PUSH1 0x40 MLOAD DUP1 PUSH1 0x40 ADD PUSH1 0x40 MSTORE DUP1 PUSH1 0x16 DUP2 MSTORE PUSH1 0x20 ADD PUSH22 0x4C656E677468206F6620636F70696564206172726179 PUSH1 0x50 SHL DUP2 MSTORE POP DUP3 MLOAD PUSH2 0x915 JUMP JUMPDEST PUSH2 0x665 DUP2 PUSH2 0xBFB JUMP JUMPDEST PUSH1 0x2 DUP1 SLOAD DUP1 PUSH2 0x676 JUMPI PUSH2 0x676 PUSH2 0xF29 JUMP JUMPDEST PUSH1 0x1 SWAP1 SUB DUP2 DUP2 SWAP1 PUSH1 0x0 MSTORE PUSH1 0x20 PUSH1 0x0 KECCAK256 ADD PUSH1 0x0 SWAP1 SSTORE SWAP1 SSTORE PUSH2 0x6AD PUSH1 0x40 MLOAD DUP1 PUSH1 0x60 ADD PUSH1 0x40 MSTORE DUP1 PUSH1 0x2E DUP2 MSTORE PUSH1 0x20 ADD PUSH2 0x11D6 PUSH1 0x2E SWAP2 CODECOPY PUSH2 0x8CF JUMP JUMPDEST PUSH2 0x6E6 PUSH1 0x40 MLOAD DUP1 PUSH1 0x40 ADD PUSH1 0x40 MSTORE DUP1 PUSH1 0x16 DUP2 MSTORE PUSH1 0x20 ADD PUSH22 0x4C656E677468206F6620636F70696564206172726179 PUSH1 0x50 SHL DUP2 MSTORE POP DUP3 MLOAD PUSH2 0x915 JUMP JUMPDEST PUSH2 0x707 PUSH1 0x40 MLOAD DUP1 PUSH1 0x80 ADD PUSH1 0x40 MSTORE DUP1 PUSH1 0x50 DUP2 MSTORE PUSH1 0x20 ADD PUSH2 0x1186 PUSH1 0x50 SWAP2 CODECOPY PUSH2 0x8CF JUMP JUMPDEST PUSH2 0x710 DUP2 PUSH2 0xBFB JUMP JUMPDEST PUSH2 0x731 PUSH1 0x40 MLOAD DUP1 PUSH1 0x60 ADD PUSH1 0x40 MSTORE DUP1 PUSH1 0x27 DUP2 MSTORE PUSH1 0x20 ADD PUSH2 0x1069 PUSH1 0x27 SWAP2 CODECOPY PUSH2 0x8CF JUMP JUMPDEST PUSH2 0x739 PUSH2 0x9A3 JUMP JUMPDEST PUSH1 0x40 DUP1 MLOAD DUP1 DUP3 ADD SWAP1 SWAP2 MSTORE PUSH1 0x16 DUP2 MSTORE PUSH22 0x4C656E677468206F6620636F70696564206172726179 PUSH1 0x50 SHL PUSH1 0x20 DUP3 ADD MSTORE PUSH1 0x2 DUP1 SLOAD SWAP1 SWAP2 PUSH2 0x775 SWAP2 PUSH2 0x915 JUMP JUMPDEST PUSH2 0x7CD DUP2 DUP1 SLOAD DUP1 PUSH1 0x20 MUL PUSH1 0x20 ADD PUSH1 0x40 MLOAD SWAP1 DUP2 ADD PUSH1 0x40 MSTORE DUP1 SWAP3 SWAP2 SWAP1 DUP2 DUP2 MSTORE PUSH1 0x20 ADD DUP3 DUP1 SLOAD DUP1 ISZERO PUSH2 0x7C3 JUMPI PUSH1 0x20 MUL DUP3 ADD SWAP2 SWAP1 PUSH1 0x0 MSTORE PUSH1 0x20 PUSH1 0x0 KECCAK256 SWAP1 JUMPDEST DUP2 SLOAD DUP2 MSTORE PUSH1 0x20 ADD SWAP1 PUSH1 0x1 ADD SWAP1 DUP1 DUP4 GT PUSH2 0x7AF JUMPI JUMPDEST POP POP POP POP POP PUSH2 0xBFB JUMP JUMPDEST PUSH1 0x2 DUP1 SLOAD DUP1 PUSH2 0x7DE JUMPI PUSH2 0x7DE PUSH2 0xF29 JUMP JUMPDEST PUSH1 0x1 SWAP1 SUB DUP2 DUP2 SWAP1 PUSH1 0x0 MSTORE PUSH1 0x20 PUSH1 0x0 KECCAK256 ADD PUSH1 0x0 SWAP1 SSTORE SWAP1 SSTORE PUSH2 0x830 PUSH1 0x40 MLOAD DUP1 PUSH1 0x40 ADD PUSH1 0x40 MSTORE DUP1 PUSH1 0x16 DUP2 MSTORE PUSH1 0x20 ADD PUSH22 0x4C656E677468206F6620636F70696564206172726179 PUSH1 0x50 SHL DUP2 MSTORE POP DUP3 DUP1 SLOAD SWAP1 POP PUSH2 0x915 JUMP JUMPDEST PUSH2 0x886 DUP2 DUP1 SLOAD DUP1 PUSH1 0x20 MUL PUSH1 0x20 ADD PUSH1 0x40 MLOAD SWAP1 DUP2 ADD PUSH1 0x40 MSTORE DUP1 SWAP3 SWAP2 SWAP1 DUP2 DUP2 MSTORE PUSH1 0x20 ADD DUP3 DUP1 SLOAD DUP1 ISZERO PUSH2 0x7C3 JUMPI PUSH1 0x20 MUL DUP3 ADD SWAP2 SWAP1 PUSH1 0x0 MSTORE PUSH1 0x20 PUSH1 0x0 KECCAK256 SWAP1 DUP2 SLOAD DUP2 MSTORE PUSH1 0x20 ADD SWAP1 PUSH1 0x1 ADD SWAP1 DUP1 DUP4 GT PUSH2 0x7AF JUMPI POP POP POP POP POP PUSH2 0xBFB JUMP JUMPDEST PUSH2 0x8A7 PUSH1 0x40 MLOAD DUP1 PUSH1 0x60 ADD PUSH1 0x40 MSTORE DUP1 PUSH1 0x3B DUP2 MSTORE PUSH1 0x20 ADD PUSH2 0x1090 PUSH1 0x3B SWAP2 CODECOPY PUSH2 0x8CF JUMP JUMPDEST POP POP POP POP POP JUMP JUMPDEST PUSH1 0x2 DUP2 DUP2 SLOAD DUP2 LT PUSH2 0x8BE JUMPI PUSH1 0x0 DUP1 REVERT JUMPDEST PUSH1 0x0 SWAP2 DUP3 MSTORE PUSH1 0x20 SWAP1 SWAP2 KECCAK256 ADD SLOAD SWAP1 POP DUP2 JUMP JUMPDEST PUSH2 0x912 DUP2 PUSH1 0x40 MLOAD PUSH1 0x24 ADD PUSH2 0x8E3 SWAP2 SWAP1 PUSH2 0xE97 JUMP JUMPDEST PUSH1 0x40 DUP1 MLOAD PUSH1 0x1F NOT DUP2 DUP5 SUB ADD DUP2 MSTORE SWAP2 SWAP1 MSTORE PUSH1 0x20 DUP2 ADD DUP1 MLOAD PUSH1 0x1 PUSH1 0x1 PUSH1 0xE0 SHL SUB AND PUSH4 0x104C13EB PUSH1 0xE2 SHL OR SWAP1 MSTORE PUSH2 0xC95 JUMP JUMPDEST POP JUMP JUMPDEST PUSH2 0x95A DUP3 DUP3 PUSH1 0x40 MLOAD PUSH1 0x24 ADD PUSH2 0x92B SWAP3 SWAP2 SWAP1 PUSH2 0xF3F JUMP JUMPDEST PUSH1 0x40 DUP1 MLOAD PUSH1 0x1F NOT DUP2 DUP5 SUB ADD DUP2 MSTORE SWAP2 SWAP1 MSTORE PUSH1 0x20 DUP2 ADD DUP1 MLOAD PUSH1 0x1 PUSH1 0x1 PUSH1 0xE0 SHL SUB AND PUSH4 0x2D839CB3 PUSH1 0xE2 SHL OR SWAP1 MSTORE PUSH2 0xC95 JUMP JUMPDEST POP POP JUMP JUMPDEST PUSH2 0x95A DUP3 DUP3 PUSH1 0x40 MLOAD PUSH1 0x24 ADD PUSH2 0x974 SWAP3 SWAP2 SWAP1 PUSH2 0xF61 JUMP JUMPDEST PUSH1 0x40 DUP1 MLOAD PUSH1 0x1F NOT DUP2 DUP5 SUB ADD DUP2 MSTORE SWAP2 SWAP1 MSTORE PUSH1 0x20 DUP2 ADD DUP1 MLOAD PUSH1 0x1 PUSH1 0x1 PUSH1 0xE0 SHL SUB AND PUSH4 0x319AF333 PUSH1 0xE0 SHL OR SWAP1 MSTORE PUSH2 0xC95 JUMP JUMPDEST PUSH2 0x366 PUSH1 0x2 DUP1 SLOAD DUP1 PUSH1 0x20 MUL PUSH1 0x20 ADD PUSH1 0x40 MLOAD SWAP1 DUP2 ADD PUSH1 0x40 MSTORE DUP1 SWAP3 SWAP2 SWAP1 DUP2 DUP2 MSTORE PUSH1 0x20 ADD DUP3 DUP1 SLOAD DUP1 ISZERO PUSH2 0x7C3 JUMPI PUSH1 0x20 MUL DUP3 ADD SWAP2 SWAP1 PUSH1 0x0 MSTORE PUSH1 0x20 PUSH1 0x0 KECCAK256 SWAP1 DUP2 SLOAD DUP2 MSTORE PUSH1 0x20 ADD SWAP1 PUSH1 0x1 ADD SWAP1 DUP1 DUP4 GT PUSH2 0x7AF JUMPI POP POP POP POP POP PUSH2 0xBFB JUMP JUMPDEST PUSH1 0xA PUSH1 0x0 SLOAD GT ISZERO PUSH2 0xA43 JUMPI PUSH2 0x366 PUSH1 0x40 MLOAD DUP1 PUSH1 0x40 ADD PUSH1 0x40 MSTORE DUP1 PUSH1 0x1B DUP2 MSTORE PUSH1 0x20 ADD PUSH32 0x6D794E756D6265722069732067726561746572207468616E2031300000000000 DUP2 MSTORE POP PUSH2 0x8CF JUMP JUMPDEST PUSH2 0x366 PUSH1 0x40 MLOAD DUP1 PUSH1 0x60 ADD PUSH1 0x40 MSTORE DUP1 PUSH1 0x22 DUP2 MSTORE PUSH1 0x20 ADD PUSH2 0x1164 PUSH1 0x22 SWAP2 CODECOPY PUSH2 0x8CF JUMP JUMPDEST PUSH1 0x60 PUSH1 0x64 PUSH1 0x0 SLOAD GT PUSH2 0xA8D JUMPI POP PUSH1 0x40 DUP1 MLOAD DUP1 DUP3 ADD SWAP1 SWAP2 MSTORE PUSH1 0x2 DUP2 MSTORE PUSH2 0x4E6F PUSH1 0xF0 SHL PUSH1 0x20 DUP3 ADD MSTORE SWAP1 JUMP JUMPDEST POP PUSH1 0x40 DUP1 MLOAD DUP1 DUP3 ADD SWAP1 SWAP2 MSTORE PUSH1 0x3 DUP2 MSTORE PUSH3 0x596573 PUSH1 0xE8 SHL PUSH1 0x20 DUP3 ADD MSTORE SWAP1 JUMP JUMPDEST PUSH2 0x95A DUP3 DUP3 PUSH1 0x40 MLOAD PUSH1 0x24 ADD PUSH2 0xAC1 SWAP3 SWAP2 SWAP1 PUSH2 0xF8B JUMP JUMPDEST PUSH1 0x40 DUP1 MLOAD PUSH1 0x1F NOT DUP2 DUP5 SUB ADD DUP2 MSTORE SWAP2 SWAP1 MSTORE PUSH1 0x20 DUP2 ADD DUP1 MLOAD PUSH1 0x1 PUSH1 0x1 PUSH1 0xE0 SHL SUB AND PUSH4 0x4B5C4277 PUSH1 0xE0 SHL OR SWAP1 MSTORE PUSH2 0xC95 JUMP JUMPDEST PUSH1 0x0 DUP1 DUP1 JUMPDEST DUP4 PUSH1 0xFF AND DUP2 PUSH1 0xFF AND LT ISZERO PUSH2 0xB1A JUMPI PUSH2 0xB10 PUSH1 0xFF DUP3 AND DUP4 PUSH2 0xFB9 JUMP JUMPDEST SWAP2 POP PUSH1 0x1 ADD PUSH2 0xAF5 JUMP JUMPDEST POP SWAP3 SWAP2 POP POP JUMP JUMPDEST PUSH1 0x0 DUP1 DUP1 JUMPDEST DUP4 PUSH1 0xFF AND DUP2 LT ISZERO PUSH2 0xB1A JUMPI PUSH2 0xB3B DUP2 DUP4 PUSH2 0xFB9 JUMP JUMPDEST SWAP2 POP DUP1 PUSH2 0xB47 DUP2 PUSH2 0xFCC JUMP JUMPDEST SWAP2 POP POP PUSH2 0xB26 JUMP JUMPDEST PUSH2 0xB96 DUP4 DUP4 DUP4 PUSH1 0x40 MLOAD PUSH1 0x24 ADD PUSH2 0xB67 SWAP4 SWAP3 SWAP2 SWAP1 PUSH2 0xFE5 JUMP JUMPDEST PUSH1 0x40 DUP1 MLOAD PUSH1 0x1F NOT DUP2 DUP5 SUB ADD DUP2 MSTORE SWAP2 SWAP1 MSTORE PUSH1 0x20 DUP2 ADD DUP1 MLOAD PUSH1 0x1 PUSH1 0x1 PUSH1 0xE0 SHL SUB AND PUSH4 0x5970E089 PUSH1 0xE0 SHL OR SWAP1 MSTORE PUSH2 0xC95 JUMP JUMPDEST POP POP POP JUMP JUMPDEST PUSH2 0x912 PUSH1 0x2 DUP3 PUSH2 0xC9E JUMP JUMPDEST PUSH1 0x2 DUP1 SLOAD DUP1 PUSH1 0x20 MUL PUSH1 0x20 ADD PUSH1 0x40 MLOAD SWAP1 DUP2 ADD PUSH1 0x40 MSTORE DUP1 SWAP3 SWAP2 SWAP1 DUP2 DUP2 MSTORE PUSH1 0x20 ADD DUP3 DUP1 SLOAD DUP1 ISZERO PUSH2 0xBF2 JUMPI PUSH1 0x20 MUL DUP3 ADD SWAP2 SWAP1 PUSH1 0x0 MSTORE PUSH1 0x20 PUSH1 0x0 KECCAK256 SWAP1 JUMPDEST DUP2 SLOAD DUP2 MSTORE PUSH1 0x20 ADD SWAP1 PUSH1 0x1 ADD SWAP1 DUP1 DUP4 GT PUSH2 0xBDE JUMPI JUMPDEST POP POP POP POP POP POP POP JUMP JUMPDEST PUSH2 0xC39 PUSH1 0x40 MLOAD DUP1 PUSH1 0x40 ADD PUSH1 0x40 MSTORE DUP1 PUSH1 0x1E DUP2 MSTORE PUSH1 0x20 ADD PUSH32 0x2D2D2D204C6F6767696E6720417272617920436F6E74656E7473202D2D2D0000 DUP2 MSTORE POP PUSH2 0x8CF JUMP JUMPDEST PUSH1 0x0 JUMPDEST DUP2 MLOAD DUP2 LT ISZERO PUSH2 0x95A JUMPI PUSH2 0xC8D PUSH1 0x40 MLOAD DUP1 PUSH1 0x40 ADD PUSH1 0x40 MSTORE DUP1 PUSH1 0xC DUP2 MSTORE PUSH1 0x20 ADD PUSH12 0x36BCA0B93930BCAD92B22E9D PUSH1 0xA1 SHL DUP2 MSTORE POP DUP3 DUP5 DUP5 DUP2 MLOAD DUP2 LT PUSH2 0xC80 JUMPI PUSH2 0xC80 PUSH2 0x101A JUMP JUMPDEST PUSH1 0x20 MUL PUSH1 0x20 ADD ADD MLOAD PUSH2 0xD8D JUMP JUMPDEST PUSH1 0x1 ADD PUSH2 0xC3C JUMP JUMPDEST PUSH2 0x912 DUP2 PUSH2 0xDD4 JUMP JUMPDEST DUP2 SLOAD DUP2 LT PUSH2 0xCFE JUMPI PUSH1 0x40 MLOAD PUSH3 0x461BCD PUSH1 0xE5 SHL DUP2 MSTORE PUSH1 0x20 PUSH1 0x4 DUP3 ADD MSTORE PUSH1 0x24 DUP1 DUP3 ADD MSTORE PUSH32 0x696E64657820676976656E206973206F7574206F6620626F756E64206F662061 PUSH1 0x44 DUP3 ADD MSTORE PUSH4 0x72726179 PUSH1 0xE0 SHL PUSH1 0x64 DUP3 ADD MSTORE PUSH1 0x84 ADD PUSH1 0x40 MLOAD DUP1 SWAP2 SUB SWAP1 REVERT JUMPDEST DUP1 JUMPDEST DUP3 SLOAD PUSH2 0xD0E SWAP1 PUSH1 0x1 SWAP1 PUSH2 0x1030 JUMP JUMPDEST DUP2 LT ISZERO PUSH2 0xD62 JUMPI DUP3 PUSH2 0xD21 DUP3 PUSH1 0x1 PUSH2 0xFB9 JUMP JUMPDEST DUP2 SLOAD DUP2 LT PUSH2 0xD31 JUMPI PUSH2 0xD31 PUSH2 0x101A JUMP JUMPDEST SWAP1 PUSH1 0x0 MSTORE PUSH1 0x20 PUSH1 0x0 KECCAK256 ADD SLOAD DUP4 DUP3 DUP2 SLOAD DUP2 LT PUSH2 0xD4E JUMPI PUSH2 0xD4E PUSH2 0x101A JUMP JUMPDEST PUSH1 0x0 SWAP2 DUP3 MSTORE PUSH1 0x20 SWAP1 SWAP2 KECCAK256 ADD SSTORE PUSH1 0x1 ADD PUSH2 0xD00 JUMP JUMPDEST POP DUP2 DUP1 SLOAD DUP1 PUSH2 0xD73 JUMPI PUSH2 0xD73 PUSH2 0xF29 JUMP JUMPDEST PUSH1 0x1 SWAP1 SUB DUP2 DUP2 SWAP1 PUSH1 0x0 MSTORE PUSH1 0x20 PUSH1 0x0 KECCAK256 ADD PUSH1 0x0 SWAP1 SSTORE SWAP1 SSTORE POP POP JUMP JUMPDEST PUSH2 0xB96 DUP4 DUP4 DUP4 PUSH1 0x40 MLOAD PUSH1 0x24 ADD PUSH2 0xDA5 SWAP4 SWAP3 SWAP2 SWAP1 PUSH2 0x1043 JUMP JUMPDEST PUSH1 0x40 DUP1 MLOAD PUSH1 0x1F NOT DUP2 DUP5 SUB ADD DUP2 MSTORE SWAP2 SWAP1 MSTORE PUSH1 0x20 DUP2 ADD DUP1 MLOAD PUSH1 0x1 PUSH1 0x1 PUSH1 0xE0 SHL SUB AND PUSH4 0xCA47C4EB PUSH1 0xE0 SHL OR SWAP1 MSTORE PUSH2 0xC95 JUMP JUMPDEST PUSH1 0x0 PUSH11 0x636F6E736F6C652E6C6F67 SWAP1 POP PUSH1 0x0 DUP1 DUP4 MLOAD PUSH1 0x20 DUP6 ADD DUP5 GAS STATICCALL POP POP POP JUMP JUMPDEST PUSH1 0x20 DUP1 DUP3 MSTORE DUP3 MLOAD DUP3 DUP3 ADD DUP2 SWAP1 MSTORE PUSH1 0x0 SWAP2 DUP5 ADD SWAP1 PUSH1 0x40 DUP5 ADD SWAP1 DUP4 JUMPDEST DUP2 DUP2 LT ISZERO PUSH2 0xE2D JUMPI DUP4 MLOAD DUP4 MSTORE PUSH1 0x20 SWAP4 DUP5 ADD SWAP4 SWAP1 SWAP3 ADD SWAP2 PUSH1 0x1 ADD PUSH2 0xE0F JUMP JUMPDEST POP SWAP1 SWAP6 SWAP5 POP POP POP POP POP JUMP JUMPDEST PUSH1 0x0 PUSH1 0x20 DUP3 DUP5 SUB SLT ISZERO PUSH2 0xE4A JUMPI PUSH1 0x0 DUP1 REVERT JUMPDEST POP CALLDATALOAD SWAP2 SWAP1 POP JUMP JUMPDEST PUSH1 0x0 DUP2 MLOAD DUP1 DUP5 MSTORE PUSH1 0x0 JUMPDEST DUP2 DUP2 LT ISZERO PUSH2 0xE77 JUMPI PUSH1 0x20 DUP2 DUP6 ADD DUP2 ADD MLOAD DUP7 DUP4 ADD DUP3 ADD MSTORE ADD PUSH2 0xE5B JUMP JUMPDEST POP PUSH1 0x0 PUSH1 0x20 DUP3 DUP7 ADD ADD MSTORE PUSH1 0x20 PUSH1 0x1F NOT PUSH1 0x1F DUP4 ADD AND DUP6 ADD ADD SWAP2 POP POP SWAP3 SWAP2 POP POP JUMP JUMPDEST PUSH1 0x20 DUP2 MSTORE PUSH1 0x0 PUSH2 0xEAA PUSH1 0x20 DUP4 ADD DUP5 PUSH2 0xE51 JUMP JUMPDEST SWAP4 SWAP3 POP POP POP JUMP JUMPDEST PUSH1 0x0 PUSH1 0x20 DUP3 DUP5 SUB SLT ISZERO PUSH2 0xEC3 JUMPI PUSH1 0x0 DUP1 REVERT JUMPDEST DUP2 CALLDATALOAD PUSH1 0xFF DUP2 AND DUP2 EQ PUSH2 0xEAA JUMPI PUSH1 0x0 DUP1 REVERT JUMPDEST PUSH1 0x0 DUP1 PUSH1 0x40 DUP4 DUP6 SUB SLT ISZERO PUSH2 0xEE7 JUMPI PUSH1 0x0 DUP1 REVERT JUMPDEST POP POP DUP1 CALLDATALOAD SWAP3 PUSH1 0x20 SWAP1 SWAP2 ADD CALLDATALOAD SWAP2 POP JUMP JUMPDEST PUSH4 0x4E487B71 PUSH1 0xE0 SHL PUSH1 0x0 MSTORE PUSH1 0x11 PUSH1 0x4 MSTORE PUSH1 0x24 PUSH1 0x0 REVERT JUMPDEST DUP1 DUP3 MUL DUP2 ISZERO DUP3 DUP3 DIV DUP5 EQ OR PUSH2 0xF23 JUMPI PUSH2 0xF23 PUSH2 0xEF6 JUMP JUMPDEST SWAP3 SWAP2 POP POP JUMP JUMPDEST PUSH4 0x4E487B71 PUSH1 0xE0 SHL PUSH1 0x0 MSTORE PUSH1 0x31 PUSH1 0x4 MSTORE PUSH1 0x24 PUSH1 0x0 REVERT JUMPDEST PUSH1 0x40 DUP2 MSTORE PUSH1 0x0 PUSH2 0xF52 PUSH1 0x40 DUP4 ADD DUP6 PUSH2 0xE51 JUMP JUMPDEST SWAP1 POP DUP3 PUSH1 0x20 DUP4 ADD MSTORE SWAP4 SWAP3 POP POP POP JUMP JUMPDEST PUSH1 0x40 DUP2 MSTORE PUSH1 0x0 PUSH2 0xF74 PUSH1 0x40 DUP4 ADD DUP6 PUSH2 0xE51 JUMP JUMPDEST SWAP1 POP PUSH1 0x1 DUP1 PUSH1 0xA0 SHL SUB DUP4 AND PUSH1 0x20 DUP4 ADD MSTORE SWAP4 SWAP3 POP POP POP JUMP JUMPDEST PUSH1 0x40 DUP2 MSTORE PUSH1 0x0 PUSH2 0xF9E PUSH1 0x40 DUP4 ADD DUP6 PUSH2 0xE51 JUMP JUMPDEST DUP3 DUP2 SUB PUSH1 0x20 DUP5 ADD MSTORE PUSH2 0xFB0 DUP2 DUP6 PUSH2 0xE51 JUMP JUMPDEST SWAP6 SWAP5 POP POP POP POP POP JUMP JUMPDEST DUP1 DUP3 ADD DUP1 DUP3 GT ISZERO PUSH2 0xF23 JUMPI PUSH2 0xF23 PUSH2 0xEF6 JUMP JUMPDEST PUSH1 0x0 PUSH1 0x1 DUP3 ADD PUSH2 0xFDE JUMPI PUSH2 0xFDE PUSH2 0xEF6 JUMP JUMPDEST POP PUSH1 0x1 ADD SWAP1 JUMP JUMPDEST PUSH1 0x60 DUP2 MSTORE PUSH1 0x0 PUSH2 0xFF8 PUSH1 0x60 DUP4 ADD DUP7 PUSH2 0xE51 JUMP JUMPDEST DUP5 PUSH1 0x20 DUP5 ADD MSTORE DUP3 DUP2 SUB PUSH1 0x40 DUP5 ADD MSTORE PUSH2 0x1010 DUP2 DUP6 PUSH2 0xE51 JUMP JUMPDEST SWAP7 SWAP6 POP POP POP POP POP POP JUMP JUMPDEST PUSH4 0x4E487B71 PUSH1 0xE0 SHL PUSH1 0x0 MSTORE PUSH1 0x32 PUSH1 0x4 MSTORE PUSH1 0x24 PUSH1 0x0 REVERT JUMPDEST DUP2 DUP2 SUB DUP2 DUP2 GT ISZERO PUSH2 0xF23 JUMPI PUSH2 0xF23 PUSH2 0xEF6 JUMP JUMPDEST PUSH1 0x60 DUP2 MSTORE PUSH1 0x0 PUSH2 0x1056 PUSH1 0x60 DUP4 ADD DUP7 PUSH2 0xE51 JUMP JUMPDEST PUSH1 0x20 DUP4 ADD SWAP5 SWAP1 SWAP5 MSTORE POP PUSH1 0x40 ADD MSTORE SWAP2 SWAP1 POP JUMP INVALID 0x2D 0x2D 0x2D 0x2D 0x2D 0x2D 0x2D 0x2D 0x2D PUSH4 0x6F707920 PUSH3 0x792073 PUSH21 0x6F72616765202D2D2D2D2D2D2D2D2D2D2D2D2D2D65 PUSH7 0x66656374206F66 KECCAK256 PUSH16 0x726967696E616C206172726179206368 PUSH2 0x6E67 PUSH6 0x206861707065 PUSH15 0x73206F6E2074686520636F70696564 KECCAK256 PUSH2 0x7272 PUSH2 0x792D 0x2D 0x2D 0x2D 0x2D 0x2D 0x2D 0x2D 0x2D 0x2D 0x2D 0x2D PUSH4 0x6F707941 PUSH19 0x726179206279205265662D2D2D2D2D2D2D2D2D 0x2D 0x2D 0x2D 0x2D 0x2D 0x2D 0x2D 0x2D 0x2D KECCAK256 GASPRICE KECCAK256 PREVRANDAO PUSH16 0x6573204E4F5420574F524B2D2D2D2D2D 0x2D 0x2D 0x2D 0x2D 0x2D 0x2D 0x2D KECCAK256 PUSH4 0x6F707941 PUSH19 0x7261792062792076616C7565204D656D6F7279 KECCAK256 0x2D 0x2D 0x2D 0x2D 0x2D 0x2D 0x2D 0x2D 0x2D 0x2D 0x2D 0x2D 0x2D 0x2D 0x2D 0x2D 0x2D 0x2D 0x2D 0x2D 0x2D 0x2D 0x2D 0x2D 0x2D 0x2D 0x2D 0x2D PUSH19 0x656D6F76616C2D2D2D2D2D2D2D2D2D2D2D2D2D 0x2D 0x2D 0x2D 0x2D PUSH14 0x79206E756D626572206973206C65 PUSH20 0x73207468616E206F7220657175616C203130426F PUSH21 0x68206C656E677468206172652073616D65203D3E20 PUSH21 0x686520636F6965642061727261792069732061206E PUSH6 0x772073657065 PUSH19 0x61746520617272617920636F7079206F66206F PUSH19 0x6967696E616C416674657220736F6D6520656C PUSH6 0x6D656E742072 PUSH6 0x6D6F76616C20 PUSH7 0x726F6D206F7269 PUSH8 0x696E616C20617272 PUSH2 0x79A2 PUSH5 0x6970667358 0x22 SLT KECCAK256 0xB2 0xB6 0x4B 0xC5 PUSH14 0x691B60617312DABA385C727046F1 DELEGATECALL SWAP13 0xB4 SWAP13 PREVRANDAO MSTORE8 SWAP8 SGT JUMPDEST PUSH9 0xD2DCF664736F6C6343 STOP ADDMOD BYTE STOP CALLER "},"methodIdentifiers":{"addToArray(uint256)":"d15ec851","addToMapping(uint256,uint256)":"a29f6977","checkArrayOperations(uint256)":"be38d94e","checkConditionals()":"90f18719","checkLoops(uint8)":"92dda649","getMappingValue(uint256)":"bba50db2","getMyArray()":"4e43600e","myAddress()":"26b85ee1","myArray(uint256)":"cc3e57d9","myMapping(uint256)":"7c668844","myNumber()":"23fd0e40","print()":"13bdfacd","removeKV(uint256)":"b3c8bc06"}}}}}