{"contracts/004_enums_test.sol":{"TestLearningEnums":{"abi":[{"anonymous":false,"inputs":[{"indexed":true,"internalType":"address","name":"user","type":"address"},{"indexed":false,"internalType":"uint256","name":"orderId","type":"uint256"},{"indexed":false,"internalType":"enum LearnEnums.OrderState","name":"newState","type":"uint8"}],"name":"OrderStateChanged","type":"event"},{"inputs":[{"internalType":"enum LearnEnums.OrderState","name":"currState","type":"uint8"},{"internalType":"enum LearnEnums.OrderState","name":"nextState","type":"uint8"}],"name":"addOrderStateInTransitionMapping","outputs":[],"stateMutability":"nonpayable","type":"function"},{"inputs":[],"name":"debugGetOrderStates","outputs":[{"internalType":"enum LearnEnums.OrderState[]","name":"","type":"uint8[]"}],"stateMutability":"view","type":"function"},{"inputs":[{"internalType":"enum LearnEnums.OrderState","name":"state","type":"uint8"}],"name":"getStateTransitionMap","outputs":[{"internalType":"enum LearnEnums.OrderState[]","name":"","type":"uint8[]"}],"stateMutability":"view","type":"function"},{"inputs":[{"internalType":"enum LearnEnums.OrderState","name":"currState","type":"uint8"},{"internalType":"enum LearnEnums.OrderState","name":"removableState","type":"uint8"}],"name":"removeOrderStateTransitionMapping","outputs":[],"stateMutability":"nonpayable","type":"function"},{"inputs":[{"internalType":"enum LearnEnums.OrderState","name":"","type":"uint8"},{"internalType":"uint256","name":"","type":"uint256"}],"name":"stateTransitionMap","outputs":[{"internalType":"enum LearnEnums.OrderState","name":"","type":"uint8"}],"stateMutability":"view","type":"function"},{"inputs":[{"internalType":"enum LearnEnums.OrderState[]","name":"currNextStates","type":"uint8[]"},{"internalType":"enum LearnEnums.OrderState[]","name":"nextStates","type":"uint8[]"}],"name":"testAreSameNextStates","outputs":[{"internalType":"bool","name":"","type":"bool"}],"stateMutability":"pure","type":"function"},{"inputs":[{"internalType":"enum LearnEnums.OrderState[]","name":"arr","type":"uint8[]"}],"name":"testComputeArrayHash","outputs":[{"internalType":"bytes32","name":"","type":"bytes32"}],"stateMutability":"pure","type":"function"},{"inputs":[{"internalType":"enum LearnEnums.OrderState[]","name":"arr","type":"uint8[]"},{"internalType":"enum LearnEnums.OrderState","name":"state","type":"uint8"}],"name":"testContainsOrderState","outputs":[{"internalType":"uint256","name":"","type":"uint256"},{"internalType":"bool","name":"","type":"bool"}],"stateMutability":"pure","type":"function"},{"inputs":[{"internalType":"enum LearnEnums.OrderState[]","name":"_inputOrderStates","type":"uint8[]"},{"internalType":"uint256","name":"_index","type":"uint256"}],"name":"testRemoveOrderState","outputs":[{"internalType":"enum LearnEnums.OrderState[]","name":"","type":"uint8[]"}],"stateMutability":"nonpayable","type":"function"},{"inputs":[{"internalType":"enum LearnEnums.OrderState","name":"currState","type":"uint8"},{"internalType":"enum LearnEnums.OrderState[]","name":"nextStates","type":"uint8[]"}],"name":"updateStateTransitionMapping","outputs":[],"stateMutability":"nonpayable","type":"function"}],"evm":{"bytecode":{"linkReferences":{},"object":"608060405234801561001057600080fd5b5060408051602080820190925260018082526000805291829052610056917fa6eef7e35abe7026729641147f7915573c7e97b47efa546f5f6e3230263bcb4991906101cc565b50604080516060810190915280600381526020016002815260200160069052600160008181526020810191909152604001600020610095916003610280565b50604080518082019091526003815260066020808301919091526002600081905260019091526100e6917fd9d16d34ffb15ba3a3d852f0d403e2ce1d691fb54de27ac87cd2f993f3ec330f916102f5565b5060408051602080820190925260048152600360005260019182905261012e917f7dfe757ecd65cbd7922a9c0161e935dd7fdbcc0e999689c7d31633896b1fc60b91906101cc565b50604080516020808201909252600581526004600052600191829052610176917fedc95719e9a3b28dd8e80877cb5880a9be7de1a13fc8b05e7999683b6b56764391906101cc565b50604080518082019091526008815260076020808301919091526006600052600190526101c6907f8f331abe73332f95a25873e8b430885974c0409691f89d643119a11623a7924a9060026102f5565b50610395565b82805482825590600052602060002090601f016020900481019282156102705791602002820160005b8382111561024157835183826101000a81548160ff021916908360088111156102205761022061037f565b021790555092602001926001016020816000010492830192600103026101f5565b801561026e5782816101000a81549060ff0219169055600101602081600001049283019260010302610241565b505b5061027c92915061036a565b5090565b82805482825590600052602060002090601f016020900481019282156102705791602002820160005b8382111561024157835183826101000a81548160ff021916908360088111156102d4576102d461037f565b021790555092602001926001016020816000010492830192600103026102a9565b82805482825590600052602060002090601f016020900481019282156102705791602002820160005b8382111561024157835183826101000a81548160ff021916908360088111156103495761034961037f565b0217905550926020019260010160208160000104928301926001030261031e565b5b8082111561027c576000815560010161036b565b634e487b7160e01b600052602160045260246000fd5b6110a0806103a46000396000f3fe608060405234801561001057600080fd5b506004361061009e5760003560e01c80636e8fd601116100665780636e8fd6011461013d578063921e28e21461015d5780639384c44d14610180578063a0d10e8d14610188578063ca954c2a1461019b57600080fd5b8063045e6413146100a357806346081143146100b857806356e73ea6146100e1578063647adb31146100f45780636c38f2a11461011c575b600080fd5b6100b66100b1366004610c00565b6101ae565b005b6100cb6100c6366004610c33565b6102f5565b6040516100d89190610c95565b60405180910390f35b6100b66100ef366004610ce8565b610338565b610107610102366004610d3b565b610476565b604080519283529015156020830152016100d8565b61012f61012a366004610d8f565b6104c3565b6040519081526020016100d8565b61015061014b366004610dd1565b61050a565b6040516100d89190610e1d565b61017061016b366004610f24565b6105ae565b60405190151581526020016100d8565b6101506105ba565b610150610196366004610f8d565b610642565b6100b66101a9366004610c00565b6106ff565b600061026d600160008560088111156101c9576101c9610c5d565b60088111156101da576101da610c5d565b815260200190815260200160002080548060200260200160405190810160405280929190818152602001828054801561026257602002820191906000526020600020906000905b82829054906101000a900460ff16600881111561024057610240610c5d565b8152602060019283018181049485019490930390920291018084116102215790505b505050505083610807565b915050806102f0576001600084600881111561028b5761028b610c5d565b600881111561029c5761029c610c5d565b8152602080820192909252604001600090812080546001810182559082529082902091810490910180548492601f166101000a60ff810219909116908360088111156102ea576102ea610c5d565b02179055505b505050565b6001602052816000526040600020818154811061031157600080fd5b9060005260206000209060209182820401919006915091509054906101000a900460ff1681565b6104286001600085600881111561035157610351610c5d565b600881111561036257610362610c5d565b81526020019081526020016000208054806020026020016040519081016040528092919081815260200182805480156103ea57602002820191906000526020600020906000905b82829054906101000a900460ff1660088111156103c8576103c8610c5d565b8152602060019283018181049485019490930390920291018084116103a95790505b505050505083838080602002602001604051908101604052809392919081815260200183836020028082843760009201919091525061087b92505050565b6102f05781816001600086600881111561044457610444610c5d565b600881111561045557610455610c5d565b81526020019081526020016000209190610470929190610b13565b50505050565b6000806104b7858580806020026020016040519081016040528093929190818152602001838360200280828437600092019190915250879250610807915050565b91509150935093915050565b60006105018383808060200260200160405190810160405280939291908181526020018383602002808284376000920191909152506108b092505050565b90505b92915050565b606061051860008585610b13565b50610524600083610a07565b60008054806020026020016040519081016040528092919081815260200182805480156105a057602002820191906000526020600020906000905b82829054906101000a900460ff16600881111561057e5761057e610c5d565b81526020600192830181810494850194909303909202910180841161055f5790505b505050505090509392505050565b6000610501838361087b565b6060600080548060200260200160405190810160405280929190818152602001828054801561063857602002820191906000526020600020906000905b82829054906101000a900460ff16600881111561061657610616610c5d565b8152602060019283018181049485019490930390920291018084116105f75790505b5050505050905090565b60606001600083600881111561065a5761065a610c5d565b600881111561066b5761066b610c5d565b81526020019081526020016000208054806020026020016040519081016040528092919081815260200182805480156106f357602002820191906000526020600020906000905b82829054906101000a900460ff1660088111156106d1576106d1610c5d565b8152602060019283018181049485019490930390920291018084116106b25790505b50505050509050919050565b6000806107bf6001600086600881111561071b5761071b610c5d565b600881111561072c5761072c610c5d565b81526020019081526020016000208054806020026020016040519081016040528092919081815260200182805480156107b457602002820191906000526020600020906000905b82829054906101000a900460ff16600881111561079257610792610c5d565b8152602060019283018181049485019490930390920291018084116107735790505b505050505084610807565b91509150801561047057610470600160008660088111156107e2576107e2610c5d565b60088111156107f3576107f3610c5d565b815260200190815260200160002083610a07565b60008060005b845181101561086b5783600881111561082857610828610c5d565b85828151811061083a5761083a610fa8565b6020026020010151600881111561085357610853610c5d565b0361086357915060019050610874565b60010161080d565b50600080915091505b9250929050565b805182516000911480610892576000915050610504565b600061089d846108b0565b6108a6866108b0565b1495945050505050565b6000806108bf60086001610fd4565b905060008167ffffffffffffffff8111156108dc576108dc610e68565b604051908082528060200260200182016040528015610905578160200160208202803683370190505b50905060005b845181101561097f57600085828151811061092857610928610fa8565b6020026020010151600881111561094157610941610c5d565b9050838160ff161015610976576001838260ff168151811061096557610965610fa8565b911515602092830291909101909101525b5060010161090b565b50604080516020810190915260008082525b838110156109f6578281815181106109ab576109ab610fa8565b6020026020010151156109ee57818160088111156109cb576109cb610c5d565b6040516020016109dc929190610fe7565b60405160208183030381529060405291505b600101610991565b508051602090910120949350505050565b81548110610a4b5760405162461bcd60e51b815260206004820152600d60248201526c092dcecc2d8d2c840d2dcc8caf609b1b604482015260640160405180910390fd5b81548290610a5b90600190611041565b81548110610a6b57610a6b610fa8565b90600052602060002090602091828204019190069054906101000a900460ff16828281548110610a9d57610a9d610fa8565b90600052602060002090602091828204019190066101000a81548160ff02191690836008811115610ad057610ad0610c5d565b021790555081805480610ae557610ae5611054565b60019003818190600052602060002090602091828204019190066101000a81549060ff021916905590555050565b82805482825590600052602060002090601f01602090048101928215610bc75791602002820160005b83821115610b98578335600881118015610b5557600080fd5b5083826101000a81548160ff02191690836008811115610b7757610b77610c5d565b02179055509260200192600101602081600001049283019260010302610b3c565b8015610bc55782816101000a81549060ff0219169055600101602081600001049283019260010302610b98565b505b50610bd3929150610bd7565b5090565b5b80821115610bd35760008155600101610bd8565b803560098110610bfb57600080fd5b919050565b60008060408385031215610c1357600080fd5b610c1c83610bec565b9150610c2a60208401610bec565b90509250929050565b60008060408385031215610c4657600080fd5b610c4f83610bec565b946020939093013593505050565b634e487b7160e01b600052602160045260246000fd5b60098110610c9157634e487b7160e01b600052602160045260246000fd5b9052565b602081016105048284610c73565b60008083601f840112610cb557600080fd5b50813567ffffffffffffffff811115610ccd57600080fd5b6020830191508360208260051b850101111561087457600080fd5b600080600060408486031215610cfd57600080fd5b610d0684610bec565b9250602084013567ffffffffffffffff811115610d2257600080fd5b610d2e86828701610ca3565b9497909650939450505050565b600080600060408486031215610d5057600080fd5b833567ffffffffffffffff811115610d6757600080fd5b610d7386828701610ca3565b9094509250610d86905060208501610bec565b90509250925092565b60008060208385031215610da257600080fd5b823567ffffffffffffffff811115610db957600080fd5b610dc585828601610ca3565b90969095509350505050565b600080600060408486031215610de657600080fd5b833567ffffffffffffffff811115610dfd57600080fd5b610e0986828701610ca3565b909790965060209590950135949350505050565b602080825282518282018190526000918401906040840190835b81811015610e5d57610e4a838551610c73565b6020938401939290920191600101610e37565b509095945050505050565b634e487b7160e01b600052604160045260246000fd5b600082601f830112610e8f57600080fd5b813567ffffffffffffffff811115610ea957610ea9610e68565b8060051b604051601f19603f830116810181811067ffffffffffffffff82111715610ed657610ed6610e68565b604052918252602081850181019290810186841115610ef457600080fd5b6020860192505b83831015610f1a57610f0c83610bec565b815260209283019201610efb565b5095945050505050565b60008060408385031215610f3757600080fd5b823567ffffffffffffffff811115610f4e57600080fd5b610f5a85828601610e7e565b925050602083013567ffffffffffffffff811115610f7757600080fd5b610f8385828601610e7e565b9150509250929050565b600060208284031215610f9f57600080fd5b61050182610bec565b634e487b7160e01b600052603260045260246000fd5b634e487b7160e01b600052601160045260246000fd5b8082018082111561050457610504610fbe565b6000835160005b818110156110085760208187018101518583015201610fee565b5060009083019081526009841061102f57634e487b7160e01b600052602160045260246000fd5b60f89390931b83525050600101919050565b8181038181111561050457610504610fbe565b634e487b7160e01b600052603160045260246000fdfea26469706673582212200b8d15ff5c81bef3eaf69d6cc567cc05cc0859f9d8c9df89a501528a5402935464736f6c634300081a0033","opcodes":"PUSH1 0x80 PUSH1 0x40 MSTORE CALLVALUE DUP1 ISZERO PUSH2 0x10 JUMPI PUSH1 0x0 DUP1 REVERT JUMPDEST POP PUSH1 0x40 DUP1 MLOAD PUSH1 0x20 DUP1 DUP3 ADD SWAP1 SWAP3 MSTORE PUSH1 0x1 DUP1 DUP3 MSTORE PUSH1 0x0 DUP1 MSTORE SWAP2 DUP3 SWAP1 MSTORE PUSH2 0x56 SWAP2 PUSH32 0xA6EEF7E35ABE7026729641147F7915573C7E97B47EFA546F5F6E3230263BCB49 SWAP2 SWAP1 PUSH2 0x1CC JUMP JUMPDEST POP PUSH1 0x40 DUP1 MLOAD PUSH1 0x60 DUP2 ADD SWAP1 SWAP2 MSTORE DUP1 PUSH1 0x3 DUP2 MSTORE PUSH1 0x20 ADD PUSH1 0x2 DUP2 MSTORE PUSH1 0x20 ADD PUSH1 0x6 SWAP1 MSTORE PUSH1 0x1 PUSH1 0x0 DUP2 DUP2 MSTORE PUSH1 0x20 DUP2 ADD SWAP2 SWAP1 SWAP2 MSTORE PUSH1 0x40 ADD PUSH1 0x0 KECCAK256 PUSH2 0x95 SWAP2 PUSH1 0x3 PUSH2 0x280 JUMP JUMPDEST POP PUSH1 0x40 DUP1 MLOAD DUP1 DUP3 ADD SWAP1 SWAP2 MSTORE PUSH1 0x3 DUP2 MSTORE PUSH1 0x6 PUSH1 0x20 DUP1 DUP4 ADD SWAP2 SWAP1 SWAP2 MSTORE PUSH1 0x2 PUSH1 0x0 DUP2 SWAP1 MSTORE PUSH1 0x1 SWAP1 SWAP2 MSTORE PUSH2 0xE6 SWAP2 PUSH32 0xD9D16D34FFB15BA3A3D852F0D403E2CE1D691FB54DE27AC87CD2F993F3EC330F SWAP2 PUSH2 0x2F5 JUMP JUMPDEST POP PUSH1 0x40 DUP1 MLOAD PUSH1 0x20 DUP1 DUP3 ADD SWAP1 SWAP3 MSTORE PUSH1 0x4 DUP2 MSTORE PUSH1 0x3 PUSH1 0x0 MSTORE PUSH1 0x1 SWAP2 DUP3 SWAP1 MSTORE PUSH2 0x12E SWAP2 PUSH32 0x7DFE757ECD65CBD7922A9C0161E935DD7FDBCC0E999689C7D31633896B1FC60B SWAP2 SWAP1 PUSH2 0x1CC JUMP JUMPDEST POP PUSH1 0x40 DUP1 MLOAD PUSH1 0x20 DUP1 DUP3 ADD SWAP1 SWAP3 MSTORE PUSH1 0x5 DUP2 MSTORE PUSH1 0x4 PUSH1 0x0 MSTORE PUSH1 0x1 SWAP2 DUP3 SWAP1 MSTORE PUSH2 0x176 SWAP2 PUSH32 0xEDC95719E9A3B28DD8E80877CB5880A9BE7DE1A13FC8B05E7999683B6B567643 SWAP2 SWAP1 PUSH2 0x1CC JUMP JUMPDEST POP PUSH1 0x40 DUP1 MLOAD DUP1 DUP3 ADD SWAP1 SWAP2 MSTORE PUSH1 0x8 DUP2 MSTORE PUSH1 0x7 PUSH1 0x20 DUP1 DUP4 ADD SWAP2 SWAP1 SWAP2 MSTORE PUSH1 0x6 PUSH1 0x0 MSTORE PUSH1 0x1 SWAP1 MSTORE PUSH2 0x1C6 SWAP1 PUSH32 0x8F331ABE73332F95A25873E8B430885974C0409691F89D643119A11623A7924A SWAP1 PUSH1 0x2 PUSH2 0x2F5 JUMP JUMPDEST POP PUSH2 0x395 JUMP JUMPDEST DUP3 DUP1 SLOAD DUP3 DUP3 SSTORE SWAP1 PUSH1 0x0 MSTORE PUSH1 0x20 PUSH1 0x0 KECCAK256 SWAP1 PUSH1 0x1F ADD PUSH1 0x20 SWAP1 DIV DUP2 ADD SWAP3 DUP3 ISZERO PUSH2 0x270 JUMPI SWAP2 PUSH1 0x20 MUL DUP3 ADD PUSH1 0x0 JUMPDEST DUP4 DUP3 GT ISZERO PUSH2 0x241 JUMPI DUP4 MLOAD DUP4 DUP3 PUSH2 0x100 EXP DUP2 SLOAD DUP2 PUSH1 0xFF MUL NOT AND SWAP1 DUP4 PUSH1 0x8 DUP2 GT ISZERO PUSH2 0x220 JUMPI PUSH2 0x220 PUSH2 0x37F JUMP JUMPDEST MUL OR SWAP1 SSTORE POP SWAP3 PUSH1 0x20 ADD SWAP3 PUSH1 0x1 ADD PUSH1 0x20 DUP2 PUSH1 0x0 ADD DIV SWAP3 DUP4 ADD SWAP3 PUSH1 0x1 SUB MUL PUSH2 0x1F5 JUMP JUMPDEST DUP1 ISZERO PUSH2 0x26E JUMPI DUP3 DUP2 PUSH2 0x100 EXP DUP2 SLOAD SWAP1 PUSH1 0xFF MUL NOT AND SWAP1 SSTORE PUSH1 0x1 ADD PUSH1 0x20 DUP2 PUSH1 0x0 ADD DIV SWAP3 DUP4 ADD SWAP3 PUSH1 0x1 SUB MUL PUSH2 0x241 JUMP JUMPDEST POP JUMPDEST POP PUSH2 0x27C SWAP3 SWAP2 POP PUSH2 0x36A JUMP JUMPDEST POP SWAP1 JUMP JUMPDEST DUP3 DUP1 SLOAD DUP3 DUP3 SSTORE SWAP1 PUSH1 0x0 MSTORE PUSH1 0x20 PUSH1 0x0 KECCAK256 SWAP1 PUSH1 0x1F ADD PUSH1 0x20 SWAP1 DIV DUP2 ADD SWAP3 DUP3 ISZERO PUSH2 0x270 JUMPI SWAP2 PUSH1 0x20 MUL DUP3 ADD PUSH1 0x0 JUMPDEST DUP4 DUP3 GT ISZERO PUSH2 0x241 JUMPI DUP4 MLOAD DUP4 DUP3 PUSH2 0x100 EXP DUP2 SLOAD DUP2 PUSH1 0xFF MUL NOT AND SWAP1 DUP4 PUSH1 0x8 DUP2 GT ISZERO PUSH2 0x2D4 JUMPI PUSH2 0x2D4 PUSH2 0x37F JUMP JUMPDEST MUL OR SWAP1 SSTORE POP SWAP3 PUSH1 0x20 ADD SWAP3 PUSH1 0x1 ADD PUSH1 0x20 DUP2 PUSH1 0x0 ADD DIV SWAP3 DUP4 ADD SWAP3 PUSH1 0x1 SUB MUL PUSH2 0x2A9 JUMP JUMPDEST DUP3 DUP1 SLOAD DUP3 DUP3 SSTORE SWAP1 PUSH1 0x0 MSTORE PUSH1 0x20 PUSH1 0x0 KECCAK256 SWAP1 PUSH1 0x1F ADD PUSH1 0x20 SWAP1 DIV DUP2 ADD SWAP3 DUP3 ISZERO PUSH2 0x270 JUMPI SWAP2 PUSH1 0x20 MUL DUP3 ADD PUSH1 0x0 JUMPDEST DUP4 DUP3 GT ISZERO PUSH2 0x241 JUMPI DUP4 MLOAD DUP4 DUP3 PUSH2 0x100 EXP DUP2 SLOAD DUP2 PUSH1 0xFF MUL NOT AND SWAP1 DUP4 PUSH1 0x8 DUP2 GT ISZERO PUSH2 0x349 JUMPI PUSH2 0x349 PUSH2 0x37F JUMP JUMPDEST MUL OR SWAP1 SSTORE POP SWAP3 PUSH1 0x20 ADD SWAP3 PUSH1 0x1 ADD PUSH1 0x20 DUP2 PUSH1 0x0 ADD DIV SWAP3 DUP4 ADD SWAP3 PUSH1 0x1 SUB MUL PUSH2 0x31E JUMP JUMPDEST JUMPDEST DUP1 DUP3 GT ISZERO PUSH2 0x27C JUMPI PUSH1 0x0 DUP2 SSTORE PUSH1 0x1 ADD PUSH2 0x36B JUMP JUMPDEST PUSH4 0x4E487B71 PUSH1 0xE0 SHL PUSH1 0x0 MSTORE PUSH1 0x21 PUSH1 0x4 MSTORE PUSH1 0x24 PUSH1 0x0 REVERT JUMPDEST PUSH2 0x10A0 DUP1 PUSH2 0x3A4 PUSH1 0x0 CODECOPY PUSH1 0x0 RETURN INVALID PUSH1 0x80 PUSH1 0x40 MSTORE CALLVALUE DUP1 ISZERO PUSH2 0x10 JUMPI PUSH1 0x0 DUP1 REVERT JUMPDEST POP PUSH1 0x4 CALLDATASIZE LT PUSH2 0x9E JUMPI PUSH1 0x0 CALLDATALOAD PUSH1 0xE0 SHR DUP1 PUSH4 0x6E8FD601 GT PUSH2 0x66 JUMPI DUP1 PUSH4 0x6E8FD601 EQ PUSH2 0x13D JUMPI DUP1 PUSH4 0x921E28E2 EQ PUSH2 0x15D JUMPI DUP1 PUSH4 0x9384C44D EQ PUSH2 0x180 JUMPI DUP1 PUSH4 0xA0D10E8D EQ PUSH2 0x188 JUMPI DUP1 PUSH4 0xCA954C2A EQ PUSH2 0x19B JUMPI PUSH1 0x0 DUP1 REVERT JUMPDEST DUP1 PUSH4 0x45E6413 EQ PUSH2 0xA3 JUMPI DUP1 PUSH4 0x46081143 EQ PUSH2 0xB8 JUMPI DUP1 PUSH4 0x56E73EA6 EQ PUSH2 0xE1 JUMPI DUP1 PUSH4 0x647ADB31 EQ PUSH2 0xF4 JUMPI DUP1 PUSH4 0x6C38F2A1 EQ PUSH2 0x11C JUMPI JUMPDEST PUSH1 0x0 DUP1 REVERT JUMPDEST PUSH2 0xB6 PUSH2 0xB1 CALLDATASIZE PUSH1 0x4 PUSH2 0xC00 JUMP JUMPDEST PUSH2 0x1AE JUMP JUMPDEST STOP JUMPDEST PUSH2 0xCB PUSH2 0xC6 CALLDATASIZE PUSH1 0x4 PUSH2 0xC33 JUMP JUMPDEST PUSH2 0x2F5 JUMP JUMPDEST PUSH1 0x40 MLOAD PUSH2 0xD8 SWAP2 SWAP1 PUSH2 0xC95 JUMP JUMPDEST PUSH1 0x40 MLOAD DUP1 SWAP2 SUB SWAP1 RETURN JUMPDEST PUSH2 0xB6 PUSH2 0xEF CALLDATASIZE PUSH1 0x4 PUSH2 0xCE8 JUMP JUMPDEST PUSH2 0x338 JUMP JUMPDEST PUSH2 0x107 PUSH2 0x102 CALLDATASIZE PUSH1 0x4 PUSH2 0xD3B JUMP JUMPDEST PUSH2 0x476 JUMP JUMPDEST PUSH1 0x40 DUP1 MLOAD SWAP3 DUP4 MSTORE SWAP1 ISZERO ISZERO PUSH1 0x20 DUP4 ADD MSTORE ADD PUSH2 0xD8 JUMP JUMPDEST PUSH2 0x12F PUSH2 0x12A CALLDATASIZE PUSH1 0x4 PUSH2 0xD8F JUMP JUMPDEST PUSH2 0x4C3 JUMP JUMPDEST PUSH1 0x40 MLOAD SWAP1 DUP2 MSTORE PUSH1 0x20 ADD PUSH2 0xD8 JUMP JUMPDEST PUSH2 0x150 PUSH2 0x14B CALLDATASIZE PUSH1 0x4 PUSH2 0xDD1 JUMP JUMPDEST PUSH2 0x50A JUMP JUMPDEST PUSH1 0x40 MLOAD PUSH2 0xD8 SWAP2 SWAP1 PUSH2 0xE1D JUMP JUMPDEST PUSH2 0x170 PUSH2 0x16B CALLDATASIZE PUSH1 0x4 PUSH2 0xF24 JUMP JUMPDEST PUSH2 0x5AE JUMP JUMPDEST PUSH1 0x40 MLOAD SWAP1 ISZERO ISZERO DUP2 MSTORE PUSH1 0x20 ADD PUSH2 0xD8 JUMP JUMPDEST PUSH2 0x150 PUSH2 0x5BA JUMP JUMPDEST PUSH2 0x150 PUSH2 0x196 CALLDATASIZE PUSH1 0x4 PUSH2 0xF8D JUMP JUMPDEST PUSH2 0x642 JUMP JUMPDEST PUSH2 0xB6 PUSH2 0x1A9 CALLDATASIZE PUSH1 0x4 PUSH2 0xC00 JUMP JUMPDEST PUSH2 0x6FF JUMP JUMPDEST PUSH1 0x0 PUSH2 0x26D PUSH1 0x1 PUSH1 0x0 DUP6 PUSH1 0x8 DUP2 GT ISZERO PUSH2 0x1C9 JUMPI PUSH2 0x1C9 PUSH2 0xC5D JUMP JUMPDEST PUSH1 0x8 DUP2 GT ISZERO PUSH2 0x1DA JUMPI PUSH2 0x1DA PUSH2 0xC5D JUMP JUMPDEST DUP2 MSTORE PUSH1 0x20 ADD SWAP1 DUP2 MSTORE PUSH1 0x20 ADD PUSH1 0x0 KECCAK256 DUP1 SLOAD DUP1 PUSH1 0x20 MUL PUSH1 0x20 ADD PUSH1 0x40 MLOAD SWAP1 DUP2 ADD PUSH1 0x40 MSTORE DUP1 SWAP3 SWAP2 SWAP1 DUP2 DUP2 MSTORE PUSH1 0x20 ADD DUP3 DUP1 SLOAD DUP1 ISZERO PUSH2 0x262 JUMPI PUSH1 0x20 MUL DUP3 ADD SWAP2 SWAP1 PUSH1 0x0 MSTORE PUSH1 0x20 PUSH1 0x0 KECCAK256 SWAP1 PUSH1 0x0 SWAP1 JUMPDEST DUP3 DUP3 SWAP1 SLOAD SWAP1 PUSH2 0x100 EXP SWAP1 DIV PUSH1 0xFF AND PUSH1 0x8 DUP2 GT ISZERO PUSH2 0x240 JUMPI PUSH2 0x240 PUSH2 0xC5D JUMP JUMPDEST DUP2 MSTORE PUSH1 0x20 PUSH1 0x1 SWAP3 DUP4 ADD DUP2 DUP2 DIV SWAP5 DUP6 ADD SWAP5 SWAP1 SWAP4 SUB SWAP1 SWAP3 MUL SWAP2 ADD DUP1 DUP5 GT PUSH2 0x221 JUMPI SWAP1 POP JUMPDEST POP POP POP POP POP DUP4 PUSH2 0x807 JUMP JUMPDEST SWAP2 POP POP DUP1 PUSH2 0x2F0 JUMPI PUSH1 0x1 PUSH1 0x0 DUP5 PUSH1 0x8 DUP2 GT ISZERO PUSH2 0x28B JUMPI PUSH2 0x28B PUSH2 0xC5D JUMP JUMPDEST PUSH1 0x8 DUP2 GT ISZERO PUSH2 0x29C JUMPI PUSH2 0x29C PUSH2 0xC5D JUMP JUMPDEST DUP2 MSTORE PUSH1 0x20 DUP1 DUP3 ADD SWAP3 SWAP1 SWAP3 MSTORE PUSH1 0x40 ADD PUSH1 0x0 SWAP1 DUP2 KECCAK256 DUP1 SLOAD PUSH1 0x1 DUP2 ADD DUP3 SSTORE SWAP1 DUP3 MSTORE SWAP1 DUP3 SWAP1 KECCAK256 SWAP2 DUP2 DIV SWAP1 SWAP2 ADD DUP1 SLOAD DUP5 SWAP3 PUSH1 0x1F AND PUSH2 0x100 EXP PUSH1 0xFF DUP2 MUL NOT SWAP1 SWAP2 AND SWAP1 DUP4 PUSH1 0x8 DUP2 GT ISZERO PUSH2 0x2EA JUMPI PUSH2 0x2EA PUSH2 0xC5D JUMP JUMPDEST MUL OR SWAP1 SSTORE POP JUMPDEST POP POP POP JUMP JUMPDEST PUSH1 0x1 PUSH1 0x20 MSTORE DUP2 PUSH1 0x0 MSTORE PUSH1 0x40 PUSH1 0x0 KECCAK256 DUP2 DUP2 SLOAD DUP2 LT PUSH2 0x311 JUMPI PUSH1 0x0 DUP1 REVERT JUMPDEST SWAP1 PUSH1 0x0 MSTORE PUSH1 0x20 PUSH1 0x0 KECCAK256 SWAP1 PUSH1 0x20 SWAP2 DUP3 DUP3 DIV ADD SWAP2 SWAP1 MOD SWAP2 POP SWAP2 POP SWAP1 SLOAD SWAP1 PUSH2 0x100 EXP SWAP1 DIV PUSH1 0xFF AND DUP2 JUMP JUMPDEST PUSH2 0x428 PUSH1 0x1 PUSH1 0x0 DUP6 PUSH1 0x8 DUP2 GT ISZERO PUSH2 0x351 JUMPI PUSH2 0x351 PUSH2 0xC5D JUMP JUMPDEST PUSH1 0x8 DUP2 GT ISZERO PUSH2 0x362 JUMPI PUSH2 0x362 PUSH2 0xC5D JUMP JUMPDEST DUP2 MSTORE PUSH1 0x20 ADD SWAP1 DUP2 MSTORE PUSH1 0x20 ADD PUSH1 0x0 KECCAK256 DUP1 SLOAD DUP1 PUSH1 0x20 MUL PUSH1 0x20 ADD PUSH1 0x40 MLOAD SWAP1 DUP2 ADD PUSH1 0x40 MSTORE DUP1 SWAP3 SWAP2 SWAP1 DUP2 DUP2 MSTORE PUSH1 0x20 ADD DUP3 DUP1 SLOAD DUP1 ISZERO PUSH2 0x3EA JUMPI PUSH1 0x20 MUL DUP3 ADD SWAP2 SWAP1 PUSH1 0x0 MSTORE PUSH1 0x20 PUSH1 0x0 KECCAK256 SWAP1 PUSH1 0x0 SWAP1 JUMPDEST DUP3 DUP3 SWAP1 SLOAD SWAP1 PUSH2 0x100 EXP SWAP1 DIV PUSH1 0xFF AND PUSH1 0x8 DUP2 GT ISZERO PUSH2 0x3C8 JUMPI PUSH2 0x3C8 PUSH2 0xC5D JUMP JUMPDEST DUP2 MSTORE PUSH1 0x20 PUSH1 0x1 SWAP3 DUP4 ADD DUP2 DUP2 DIV SWAP5 DUP6 ADD SWAP5 SWAP1 SWAP4 SUB SWAP1 SWAP3 MUL SWAP2 ADD DUP1 DUP5 GT PUSH2 0x3A9 JUMPI SWAP1 POP JUMPDEST POP POP POP POP POP DUP4 DUP4 DUP1 DUP1 PUSH1 0x20 MUL PUSH1 0x20 ADD PUSH1 0x40 MLOAD SWAP1 DUP2 ADD PUSH1 0x40 MSTORE DUP1 SWAP4 SWAP3 SWAP2 SWAP1 DUP2 DUP2 MSTORE PUSH1 0x20 ADD DUP4 DUP4 PUSH1 0x20 MUL DUP1 DUP3 DUP5 CALLDATACOPY PUSH1 0x0 SWAP3 ADD SWAP2 SWAP1 SWAP2 MSTORE POP PUSH2 0x87B SWAP3 POP POP POP JUMP JUMPDEST PUSH2 0x2F0 JUMPI DUP2 DUP2 PUSH1 0x1 PUSH1 0x0 DUP7 PUSH1 0x8 DUP2 GT ISZERO PUSH2 0x444 JUMPI PUSH2 0x444 PUSH2 0xC5D JUMP JUMPDEST PUSH1 0x8 DUP2 GT ISZERO PUSH2 0x455 JUMPI PUSH2 0x455 PUSH2 0xC5D JUMP JUMPDEST DUP2 MSTORE PUSH1 0x20 ADD SWAP1 DUP2 MSTORE PUSH1 0x20 ADD PUSH1 0x0 KECCAK256 SWAP2 SWAP1 PUSH2 0x470 SWAP3 SWAP2 SWAP1 PUSH2 0xB13 JUMP JUMPDEST POP POP POP POP JUMP JUMPDEST PUSH1 0x0 DUP1 PUSH2 0x4B7 DUP6 DUP6 DUP1 DUP1 PUSH1 0x20 MUL PUSH1 0x20 ADD PUSH1 0x40 MLOAD SWAP1 DUP2 ADD PUSH1 0x40 MSTORE DUP1 SWAP4 SWAP3 SWAP2 SWAP1 DUP2 DUP2 MSTORE PUSH1 0x20 ADD DUP4 DUP4 PUSH1 0x20 MUL DUP1 DUP3 DUP5 CALLDATACOPY PUSH1 0x0 SWAP3 ADD SWAP2 SWAP1 SWAP2 MSTORE POP DUP8 SWAP3 POP PUSH2 0x807 SWAP2 POP POP JUMP JUMPDEST SWAP2 POP SWAP2 POP SWAP4 POP SWAP4 SWAP2 POP POP JUMP JUMPDEST PUSH1 0x0 PUSH2 0x501 DUP4 DUP4 DUP1 DUP1 PUSH1 0x20 MUL PUSH1 0x20 ADD PUSH1 0x40 MLOAD SWAP1 DUP2 ADD PUSH1 0x40 MSTORE DUP1 SWAP4 SWAP3 SWAP2 SWAP1 DUP2 DUP2 MSTORE PUSH1 0x20 ADD DUP4 DUP4 PUSH1 0x20 MUL DUP1 DUP3 DUP5 CALLDATACOPY PUSH1 0x0 SWAP3 ADD SWAP2 SWAP1 SWAP2 MSTORE POP PUSH2 0x8B0 SWAP3 POP POP POP JUMP JUMPDEST SWAP1 POP JUMPDEST SWAP3 SWAP2 POP POP JUMP JUMPDEST PUSH1 0x60 PUSH2 0x518 PUSH1 0x0 DUP6 DUP6 PUSH2 0xB13 JUMP JUMPDEST POP PUSH2 0x524 PUSH1 0x0 DUP4 PUSH2 0xA07 JUMP JUMPDEST PUSH1 0x0 DUP1 SLOAD DUP1 PUSH1 0x20 MUL PUSH1 0x20 ADD PUSH1 0x40 MLOAD SWAP1 DUP2 ADD PUSH1 0x40 MSTORE DUP1 SWAP3 SWAP2 SWAP1 DUP2 DUP2 MSTORE PUSH1 0x20 ADD DUP3 DUP1 SLOAD DUP1 ISZERO PUSH2 0x5A0 JUMPI PUSH1 0x20 MUL DUP3 ADD SWAP2 SWAP1 PUSH1 0x0 MSTORE PUSH1 0x20 PUSH1 0x0 KECCAK256 SWAP1 PUSH1 0x0 SWAP1 JUMPDEST DUP3 DUP3 SWAP1 SLOAD SWAP1 PUSH2 0x100 EXP SWAP1 DIV PUSH1 0xFF AND PUSH1 0x8 DUP2 GT ISZERO PUSH2 0x57E JUMPI PUSH2 0x57E PUSH2 0xC5D JUMP JUMPDEST DUP2 MSTORE PUSH1 0x20 PUSH1 0x1 SWAP3 DUP4 ADD DUP2 DUP2 DIV SWAP5 DUP6 ADD SWAP5 SWAP1 SWAP4 SUB SWAP1 SWAP3 MUL SWAP2 ADD DUP1 DUP5 GT PUSH2 0x55F JUMPI SWAP1 POP JUMPDEST POP POP POP POP POP SWAP1 POP SWAP4 SWAP3 POP POP POP JUMP JUMPDEST PUSH1 0x0 PUSH2 0x501 DUP4 DUP4 PUSH2 0x87B JUMP JUMPDEST PUSH1 0x60 PUSH1 0x0 DUP1 SLOAD DUP1 PUSH1 0x20 MUL PUSH1 0x20 ADD PUSH1 0x40 MLOAD SWAP1 DUP2 ADD PUSH1 0x40 MSTORE DUP1 SWAP3 SWAP2 SWAP1 DUP2 DUP2 MSTORE PUSH1 0x20 ADD DUP3 DUP1 SLOAD DUP1 ISZERO PUSH2 0x638 JUMPI PUSH1 0x20 MUL DUP3 ADD SWAP2 SWAP1 PUSH1 0x0 MSTORE PUSH1 0x20 PUSH1 0x0 KECCAK256 SWAP1 PUSH1 0x0 SWAP1 JUMPDEST DUP3 DUP3 SWAP1 SLOAD SWAP1 PUSH2 0x100 EXP SWAP1 DIV PUSH1 0xFF AND PUSH1 0x8 DUP2 GT ISZERO PUSH2 0x616 JUMPI PUSH2 0x616 PUSH2 0xC5D JUMP JUMPDEST DUP2 MSTORE PUSH1 0x20 PUSH1 0x1 SWAP3 DUP4 ADD DUP2 DUP2 DIV SWAP5 DUP6 ADD SWAP5 SWAP1 SWAP4 SUB SWAP1 SWAP3 MUL SWAP2 ADD DUP1 DUP5 GT PUSH2 0x5F7 JUMPI SWAP1 POP JUMPDEST POP POP POP POP POP SWAP1 POP SWAP1 JUMP JUMPDEST PUSH1 0x60 PUSH1 0x1 PUSH1 0x0 DUP4 PUSH1 0x8 DUP2 GT ISZERO PUSH2 0x65A JUMPI PUSH2 0x65A PUSH2 0xC5D JUMP JUMPDEST PUSH1 0x8 DUP2 GT ISZERO PUSH2 0x66B JUMPI PUSH2 0x66B PUSH2 0xC5D JUMP JUMPDEST DUP2 MSTORE PUSH1 0x20 ADD SWAP1 DUP2 MSTORE PUSH1 0x20 ADD PUSH1 0x0 KECCAK256 DUP1 SLOAD DUP1 PUSH1 0x20 MUL PUSH1 0x20 ADD PUSH1 0x40 MLOAD SWAP1 DUP2 ADD PUSH1 0x40 MSTORE DUP1 SWAP3 SWAP2 SWAP1 DUP2 DUP2 MSTORE PUSH1 0x20 ADD DUP3 DUP1 SLOAD DUP1 ISZERO PUSH2 0x6F3 JUMPI PUSH1 0x20 MUL DUP3 ADD SWAP2 SWAP1 PUSH1 0x0 MSTORE PUSH1 0x20 PUSH1 0x0 KECCAK256 SWAP1 PUSH1 0x0 SWAP1 JUMPDEST DUP3 DUP3 SWAP1 SLOAD SWAP1 PUSH2 0x100 EXP SWAP1 DIV PUSH1 0xFF AND PUSH1 0x8 DUP2 GT ISZERO PUSH2 0x6D1 JUMPI PUSH2 0x6D1 PUSH2 0xC5D JUMP JUMPDEST DUP2 MSTORE PUSH1 0x20 PUSH1 0x1 SWAP3 DUP4 ADD DUP2 DUP2 DIV SWAP5 DUP6 ADD SWAP5 SWAP1 SWAP4 SUB SWAP1 SWAP3 MUL SWAP2 ADD DUP1 DUP5 GT PUSH2 0x6B2 JUMPI SWAP1 POP JUMPDEST POP POP POP POP POP SWAP1 POP SWAP2 SWAP1 POP JUMP JUMPDEST PUSH1 0x0 DUP1 PUSH2 0x7BF PUSH1 0x1 PUSH1 0x0 DUP7 PUSH1 0x8 DUP2 GT ISZERO PUSH2 0x71B JUMPI PUSH2 0x71B PUSH2 0xC5D JUMP JUMPDEST PUSH1 0x8 DUP2 GT ISZERO PUSH2 0x72C JUMPI PUSH2 0x72C PUSH2 0xC5D JUMP JUMPDEST DUP2 MSTORE PUSH1 0x20 ADD SWAP1 DUP2 MSTORE PUSH1 0x20 ADD PUSH1 0x0 KECCAK256 DUP1 SLOAD DUP1 PUSH1 0x20 MUL PUSH1 0x20 ADD PUSH1 0x40 MLOAD SWAP1 DUP2 ADD PUSH1 0x40 MSTORE DUP1 SWAP3 SWAP2 SWAP1 DUP2 DUP2 MSTORE PUSH1 0x20 ADD DUP3 DUP1 SLOAD DUP1 ISZERO PUSH2 0x7B4 JUMPI PUSH1 0x20 MUL DUP3 ADD SWAP2 SWAP1 PUSH1 0x0 MSTORE PUSH1 0x20 PUSH1 0x0 KECCAK256 SWAP1 PUSH1 0x0 SWAP1 JUMPDEST DUP3 DUP3 SWAP1 SLOAD SWAP1 PUSH2 0x100 EXP SWAP1 DIV PUSH1 0xFF AND PUSH1 0x8 DUP2 GT ISZERO PUSH2 0x792 JUMPI PUSH2 0x792 PUSH2 0xC5D JUMP JUMPDEST DUP2 MSTORE PUSH1 0x20 PUSH1 0x1 SWAP3 DUP4 ADD DUP2 DUP2 DIV SWAP5 DUP6 ADD SWAP5 SWAP1 SWAP4 SUB SWAP1 SWAP3 MUL SWAP2 ADD DUP1 DUP5 GT PUSH2 0x773 JUMPI SWAP1 POP JUMPDEST POP POP POP POP POP DUP5 PUSH2 0x807 JUMP JUMPDEST SWAP2 POP SWAP2 POP DUP1 ISZERO PUSH2 0x470 JUMPI PUSH2 0x470 PUSH1 0x1 PUSH1 0x0 DUP7 PUSH1 0x8 DUP2 GT ISZERO PUSH2 0x7E2 JUMPI PUSH2 0x7E2 PUSH2 0xC5D JUMP JUMPDEST PUSH1 0x8 DUP2 GT ISZERO PUSH2 0x7F3 JUMPI PUSH2 0x7F3 PUSH2 0xC5D JUMP JUMPDEST DUP2 MSTORE PUSH1 0x20 ADD SWAP1 DUP2 MSTORE PUSH1 0x20 ADD PUSH1 0x0 KECCAK256 DUP4 PUSH2 0xA07 JUMP JUMPDEST PUSH1 0x0 DUP1 PUSH1 0x0 JUMPDEST DUP5 MLOAD DUP2 LT ISZERO PUSH2 0x86B JUMPI DUP4 PUSH1 0x8 DUP2 GT ISZERO PUSH2 0x828 JUMPI PUSH2 0x828 PUSH2 0xC5D JUMP JUMPDEST DUP6 DUP3 DUP2 MLOAD DUP2 LT PUSH2 0x83A JUMPI PUSH2 0x83A PUSH2 0xFA8 JUMP JUMPDEST PUSH1 0x20 MUL PUSH1 0x20 ADD ADD MLOAD PUSH1 0x8 DUP2 GT ISZERO PUSH2 0x853 JUMPI PUSH2 0x853 PUSH2 0xC5D JUMP JUMPDEST SUB PUSH2 0x863 JUMPI SWAP2 POP PUSH1 0x1 SWAP1 POP PUSH2 0x874 JUMP JUMPDEST PUSH1 0x1 ADD PUSH2 0x80D JUMP JUMPDEST POP PUSH1 0x0 DUP1 SWAP2 POP SWAP2 POP JUMPDEST SWAP3 POP SWAP3 SWAP1 POP JUMP JUMPDEST DUP1 MLOAD DUP3 MLOAD PUSH1 0x0 SWAP2 EQ DUP1 PUSH2 0x892 JUMPI PUSH1 0x0 SWAP2 POP POP PUSH2 0x504 JUMP JUMPDEST PUSH1 0x0 PUSH2 0x89D DUP5 PUSH2 0x8B0 JUMP JUMPDEST PUSH2 0x8A6 DUP7 PUSH2 0x8B0 JUMP JUMPDEST EQ SWAP6 SWAP5 POP POP POP POP POP JUMP JUMPDEST PUSH1 0x0 DUP1 PUSH2 0x8BF PUSH1 0x8 PUSH1 0x1 PUSH2 0xFD4 JUMP JUMPDEST SWAP1 POP PUSH1 0x0 DUP2 PUSH8 0xFFFFFFFFFFFFFFFF DUP2 GT ISZERO PUSH2 0x8DC JUMPI PUSH2 0x8DC PUSH2 0xE68 JUMP JUMPDEST PUSH1 0x40 MLOAD SWAP1 DUP1 DUP3 MSTORE DUP1 PUSH1 0x20 MUL PUSH1 0x20 ADD DUP3 ADD PUSH1 0x40 MSTORE DUP1 ISZERO PUSH2 0x905 JUMPI DUP2 PUSH1 0x20 ADD PUSH1 0x20 DUP3 MUL DUP1 CALLDATASIZE DUP4 CALLDATACOPY ADD SWAP1 POP JUMPDEST POP SWAP1 POP PUSH1 0x0 JUMPDEST DUP5 MLOAD DUP2 LT ISZERO PUSH2 0x97F JUMPI PUSH1 0x0 DUP6 DUP3 DUP2 MLOAD DUP2 LT PUSH2 0x928 JUMPI PUSH2 0x928 PUSH2 0xFA8 JUMP JUMPDEST PUSH1 0x20 MUL PUSH1 0x20 ADD ADD MLOAD PUSH1 0x8 DUP2 GT ISZERO PUSH2 0x941 JUMPI PUSH2 0x941 PUSH2 0xC5D JUMP JUMPDEST SWAP1 POP DUP4 DUP2 PUSH1 0xFF AND LT ISZERO PUSH2 0x976 JUMPI PUSH1 0x1 DUP4 DUP3 PUSH1 0xFF AND DUP2 MLOAD DUP2 LT PUSH2 0x965 JUMPI PUSH2 0x965 PUSH2 0xFA8 JUMP JUMPDEST SWAP2 ISZERO ISZERO PUSH1 0x20 SWAP3 DUP4 MUL SWAP2 SWAP1 SWAP2 ADD SWAP1 SWAP2 ADD MSTORE JUMPDEST POP PUSH1 0x1 ADD PUSH2 0x90B JUMP JUMPDEST POP PUSH1 0x40 DUP1 MLOAD PUSH1 0x20 DUP2 ADD SWAP1 SWAP2 MSTORE PUSH1 0x0 DUP1 DUP3 MSTORE JUMPDEST DUP4 DUP2 LT ISZERO PUSH2 0x9F6 JUMPI DUP3 DUP2 DUP2 MLOAD DUP2 LT PUSH2 0x9AB JUMPI PUSH2 0x9AB PUSH2 0xFA8 JUMP JUMPDEST PUSH1 0x20 MUL PUSH1 0x20 ADD ADD MLOAD ISZERO PUSH2 0x9EE JUMPI DUP2 DUP2 PUSH1 0x8 DUP2 GT ISZERO PUSH2 0x9CB JUMPI PUSH2 0x9CB PUSH2 0xC5D JUMP JUMPDEST PUSH1 0x40 MLOAD PUSH1 0x20 ADD PUSH2 0x9DC SWAP3 SWAP2 SWAP1 PUSH2 0xFE7 JUMP JUMPDEST PUSH1 0x40 MLOAD PUSH1 0x20 DUP2 DUP4 SUB SUB DUP2 MSTORE SWAP1 PUSH1 0x40 MSTORE SWAP2 POP JUMPDEST PUSH1 0x1 ADD PUSH2 0x991 JUMP JUMPDEST POP DUP1 MLOAD PUSH1 0x20 SWAP1 SWAP2 ADD KECCAK256 SWAP5 SWAP4 POP POP POP POP JUMP JUMPDEST DUP2 SLOAD DUP2 LT PUSH2 0xA4B JUMPI PUSH1 0x40 MLOAD PUSH3 0x461BCD PUSH1 0xE5 SHL DUP2 MSTORE PUSH1 0x20 PUSH1 0x4 DUP3 ADD MSTORE PUSH1 0xD PUSH1 0x24 DUP3 ADD MSTORE PUSH13 0x92DCECC2D8D2C840D2DCC8CAF PUSH1 0x9B SHL PUSH1 0x44 DUP3 ADD MSTORE PUSH1 0x64 ADD PUSH1 0x40 MLOAD DUP1 SWAP2 SUB SWAP1 REVERT JUMPDEST DUP2 SLOAD DUP3 SWAP1 PUSH2 0xA5B SWAP1 PUSH1 0x1 SWAP1 PUSH2 0x1041 JUMP JUMPDEST DUP2 SLOAD DUP2 LT PUSH2 0xA6B JUMPI PUSH2 0xA6B PUSH2 0xFA8 JUMP JUMPDEST SWAP1 PUSH1 0x0 MSTORE PUSH1 0x20 PUSH1 0x0 KECCAK256 SWAP1 PUSH1 0x20 SWAP2 DUP3 DUP3 DIV ADD SWAP2 SWAP1 MOD SWAP1 SLOAD SWAP1 PUSH2 0x100 EXP SWAP1 DIV PUSH1 0xFF AND DUP3 DUP3 DUP2 SLOAD DUP2 LT PUSH2 0xA9D JUMPI PUSH2 0xA9D PUSH2 0xFA8 JUMP JUMPDEST SWAP1 PUSH1 0x0 MSTORE PUSH1 0x20 PUSH1 0x0 KECCAK256 SWAP1 PUSH1 0x20 SWAP2 DUP3 DUP3 DIV ADD SWAP2 SWAP1 MOD PUSH2 0x100 EXP DUP2 SLOAD DUP2 PUSH1 0xFF MUL NOT AND SWAP1 DUP4 PUSH1 0x8 DUP2 GT ISZERO PUSH2 0xAD0 JUMPI PUSH2 0xAD0 PUSH2 0xC5D JUMP JUMPDEST MUL OR SWAP1 SSTORE POP DUP2 DUP1 SLOAD DUP1 PUSH2 0xAE5 JUMPI PUSH2 0xAE5 PUSH2 0x1054 JUMP JUMPDEST PUSH1 0x1 SWAP1 SUB DUP2 DUP2 SWAP1 PUSH1 0x0 MSTORE PUSH1 0x20 PUSH1 0x0 KECCAK256 SWAP1 PUSH1 0x20 SWAP2 DUP3 DUP3 DIV ADD SWAP2 SWAP1 MOD PUSH2 0x100 EXP DUP2 SLOAD SWAP1 PUSH1 0xFF MUL NOT AND SWAP1 SSTORE SWAP1 SSTORE POP POP JUMP JUMPDEST DUP3 DUP1 SLOAD DUP3 DUP3 SSTORE SWAP1 PUSH1 0x0 MSTORE PUSH1 0x20 PUSH1 0x0 KECCAK256 SWAP1 PUSH1 0x1F ADD PUSH1 0x20 SWAP1 DIV DUP2 ADD SWAP3 DUP3 ISZERO PUSH2 0xBC7 JUMPI SWAP2 PUSH1 0x20 MUL DUP3 ADD PUSH1 0x0 JUMPDEST DUP4 DUP3 GT ISZERO PUSH2 0xB98 JUMPI DUP4 CALLDATALOAD PUSH1 0x8 DUP2 GT DUP1 ISZERO PUSH2 0xB55 JUMPI PUSH1 0x0 DUP1 REVERT JUMPDEST POP DUP4 DUP3 PUSH2 0x100 EXP DUP2 SLOAD DUP2 PUSH1 0xFF MUL NOT AND SWAP1 DUP4 PUSH1 0x8 DUP2 GT ISZERO PUSH2 0xB77 JUMPI PUSH2 0xB77 PUSH2 0xC5D JUMP JUMPDEST MUL OR SWAP1 SSTORE POP SWAP3 PUSH1 0x20 ADD SWAP3 PUSH1 0x1 ADD PUSH1 0x20 DUP2 PUSH1 0x0 ADD DIV SWAP3 DUP4 ADD SWAP3 PUSH1 0x1 SUB MUL PUSH2 0xB3C JUMP JUMPDEST DUP1 ISZERO PUSH2 0xBC5 JUMPI DUP3 DUP2 PUSH2 0x100 EXP DUP2 SLOAD SWAP1 PUSH1 0xFF MUL NOT AND SWAP1 SSTORE PUSH1 0x1 ADD PUSH1 0x20 DUP2 PUSH1 0x0 ADD DIV SWAP3 DUP4 ADD SWAP3 PUSH1 0x1 SUB MUL PUSH2 0xB98 JUMP JUMPDEST POP JUMPDEST POP PUSH2 0xBD3 SWAP3 SWAP2 POP PUSH2 0xBD7 JUMP JUMPDEST POP SWAP1 JUMP JUMPDEST JUMPDEST DUP1 DUP3 GT ISZERO PUSH2 0xBD3 JUMPI PUSH1 0x0 DUP2 SSTORE PUSH1 0x1 ADD PUSH2 0xBD8 JUMP JUMPDEST DUP1 CALLDATALOAD PUSH1 0x9 DUP2 LT PUSH2 0xBFB JUMPI PUSH1 0x0 DUP1 REVERT JUMPDEST SWAP2 SWAP1 POP JUMP JUMPDEST PUSH1 0x0 DUP1 PUSH1 0x40 DUP4 DUP6 SUB SLT ISZERO PUSH2 0xC13 JUMPI PUSH1 0x0 DUP1 REVERT JUMPDEST PUSH2 0xC1C DUP4 PUSH2 0xBEC JUMP JUMPDEST SWAP2 POP PUSH2 0xC2A PUSH1 0x20 DUP5 ADD PUSH2 0xBEC JUMP JUMPDEST SWAP1 POP SWAP3 POP SWAP3 SWAP1 POP JUMP JUMPDEST PUSH1 0x0 DUP1 PUSH1 0x40 DUP4 DUP6 SUB SLT ISZERO PUSH2 0xC46 JUMPI PUSH1 0x0 DUP1 REVERT JUMPDEST PUSH2 0xC4F DUP4 PUSH2 0xBEC JUMP JUMPDEST SWAP5 PUSH1 0x20 SWAP4 SWAP1 SWAP4 ADD CALLDATALOAD SWAP4 POP POP POP JUMP JUMPDEST PUSH4 0x4E487B71 PUSH1 0xE0 SHL PUSH1 0x0 MSTORE PUSH1 0x21 PUSH1 0x4 MSTORE PUSH1 0x24 PUSH1 0x0 REVERT JUMPDEST PUSH1 0x9 DUP2 LT PUSH2 0xC91 JUMPI PUSH4 0x4E487B71 PUSH1 0xE0 SHL PUSH1 0x0 MSTORE PUSH1 0x21 PUSH1 0x4 MSTORE PUSH1 0x24 PUSH1 0x0 REVERT JUMPDEST SWAP1 MSTORE JUMP JUMPDEST PUSH1 0x20 DUP2 ADD PUSH2 0x504 DUP3 DUP5 PUSH2 0xC73 JUMP JUMPDEST PUSH1 0x0 DUP1 DUP4 PUSH1 0x1F DUP5 ADD SLT PUSH2 0xCB5 JUMPI PUSH1 0x0 DUP1 REVERT JUMPDEST POP DUP2 CALLDATALOAD PUSH8 0xFFFFFFFFFFFFFFFF DUP2 GT ISZERO PUSH2 0xCCD JUMPI PUSH1 0x0 DUP1 REVERT JUMPDEST PUSH1 0x20 DUP4 ADD SWAP2 POP DUP4 PUSH1 0x20 DUP3 PUSH1 0x5 SHL DUP6 ADD ADD GT ISZERO PUSH2 0x874 JUMPI PUSH1 0x0 DUP1 REVERT JUMPDEST PUSH1 0x0 DUP1 PUSH1 0x0 PUSH1 0x40 DUP5 DUP7 SUB SLT ISZERO PUSH2 0xCFD JUMPI PUSH1 0x0 DUP1 REVERT JUMPDEST PUSH2 0xD06 DUP5 PUSH2 0xBEC JUMP JUMPDEST SWAP3 POP PUSH1 0x20 DUP5 ADD CALLDATALOAD PUSH8 0xFFFFFFFFFFFFFFFF DUP2 GT ISZERO PUSH2 0xD22 JUMPI PUSH1 0x0 DUP1 REVERT JUMPDEST PUSH2 0xD2E DUP7 DUP3 DUP8 ADD PUSH2 0xCA3 JUMP JUMPDEST SWAP5 SWAP8 SWAP1 SWAP7 POP SWAP4 SWAP5 POP POP POP POP JUMP JUMPDEST PUSH1 0x0 DUP1 PUSH1 0x0 PUSH1 0x40 DUP5 DUP7 SUB SLT ISZERO PUSH2 0xD50 JUMPI PUSH1 0x0 DUP1 REVERT JUMPDEST DUP4 CALLDATALOAD PUSH8 0xFFFFFFFFFFFFFFFF DUP2 GT ISZERO PUSH2 0xD67 JUMPI PUSH1 0x0 DUP1 REVERT JUMPDEST PUSH2 0xD73 DUP7 DUP3 DUP8 ADD PUSH2 0xCA3 JUMP JUMPDEST SWAP1 SWAP5 POP SWAP3 POP PUSH2 0xD86 SWAP1 POP PUSH1 0x20 DUP6 ADD PUSH2 0xBEC JUMP JUMPDEST SWAP1 POP SWAP3 POP SWAP3 POP SWAP3 JUMP JUMPDEST PUSH1 0x0 DUP1 PUSH1 0x20 DUP4 DUP6 SUB SLT ISZERO PUSH2 0xDA2 JUMPI PUSH1 0x0 DUP1 REVERT JUMPDEST DUP3 CALLDATALOAD PUSH8 0xFFFFFFFFFFFFFFFF DUP2 GT ISZERO PUSH2 0xDB9 JUMPI PUSH1 0x0 DUP1 REVERT JUMPDEST PUSH2 0xDC5 DUP6 DUP3 DUP7 ADD PUSH2 0xCA3 JUMP JUMPDEST SWAP1 SWAP7 SWAP1 SWAP6 POP SWAP4 POP POP POP POP JUMP JUMPDEST PUSH1 0x0 DUP1 PUSH1 0x0 PUSH1 0x40 DUP5 DUP7 SUB SLT ISZERO PUSH2 0xDE6 JUMPI PUSH1 0x0 DUP1 REVERT JUMPDEST DUP4 CALLDATALOAD PUSH8 0xFFFFFFFFFFFFFFFF DUP2 GT ISZERO PUSH2 0xDFD JUMPI PUSH1 0x0 DUP1 REVERT JUMPDEST PUSH2 0xE09 DUP7 DUP3 DUP8 ADD PUSH2 0xCA3 JUMP JUMPDEST SWAP1 SWAP8 SWAP1 SWAP7 POP PUSH1 0x20 SWAP6 SWAP1 SWAP6 ADD CALLDATALOAD SWAP5 SWAP4 POP POP POP POP JUMP JUMPDEST PUSH1 0x20 DUP1 DUP3 MSTORE DUP3 MLOAD DUP3 DUP3 ADD DUP2 SWAP1 MSTORE PUSH1 0x0 SWAP2 DUP5 ADD SWAP1 PUSH1 0x40 DUP5 ADD SWAP1 DUP4 JUMPDEST DUP2 DUP2 LT ISZERO PUSH2 0xE5D JUMPI PUSH2 0xE4A DUP4 DUP6 MLOAD PUSH2 0xC73 JUMP JUMPDEST PUSH1 0x20 SWAP4 DUP5 ADD SWAP4 SWAP3 SWAP1 SWAP3 ADD SWAP2 PUSH1 0x1 ADD PUSH2 0xE37 JUMP JUMPDEST POP SWAP1 SWAP6 SWAP5 POP POP POP POP POP JUMP JUMPDEST PUSH4 0x4E487B71 PUSH1 0xE0 SHL PUSH1 0x0 MSTORE PUSH1 0x41 PUSH1 0x4 MSTORE PUSH1 0x24 PUSH1 0x0 REVERT JUMPDEST PUSH1 0x0 DUP3 PUSH1 0x1F DUP4 ADD SLT PUSH2 0xE8F JUMPI PUSH1 0x0 DUP1 REVERT JUMPDEST DUP2 CALLDATALOAD PUSH8 0xFFFFFFFFFFFFFFFF DUP2 GT ISZERO PUSH2 0xEA9 JUMPI PUSH2 0xEA9 PUSH2 0xE68 JUMP JUMPDEST DUP1 PUSH1 0x5 SHL PUSH1 0x40 MLOAD PUSH1 0x1F NOT PUSH1 0x3F DUP4 ADD AND DUP2 ADD DUP2 DUP2 LT PUSH8 0xFFFFFFFFFFFFFFFF DUP3 GT OR ISZERO PUSH2 0xED6 JUMPI PUSH2 0xED6 PUSH2 0xE68 JUMP JUMPDEST PUSH1 0x40 MSTORE SWAP2 DUP3 MSTORE PUSH1 0x20 DUP2 DUP6 ADD DUP2 ADD SWAP3 SWAP1 DUP2 ADD DUP7 DUP5 GT ISZERO PUSH2 0xEF4 JUMPI PUSH1 0x0 DUP1 REVERT JUMPDEST PUSH1 0x20 DUP7 ADD SWAP3 POP JUMPDEST DUP4 DUP4 LT ISZERO PUSH2 0xF1A JUMPI PUSH2 0xF0C DUP4 PUSH2 0xBEC JUMP JUMPDEST DUP2 MSTORE PUSH1 0x20 SWAP3 DUP4 ADD SWAP3 ADD PUSH2 0xEFB JUMP JUMPDEST POP SWAP6 SWAP5 POP POP POP POP POP JUMP JUMPDEST PUSH1 0x0 DUP1 PUSH1 0x40 DUP4 DUP6 SUB SLT ISZERO PUSH2 0xF37 JUMPI PUSH1 0x0 DUP1 REVERT JUMPDEST DUP3 CALLDATALOAD PUSH8 0xFFFFFFFFFFFFFFFF DUP2 GT ISZERO PUSH2 0xF4E JUMPI PUSH1 0x0 DUP1 REVERT JUMPDEST PUSH2 0xF5A DUP6 DUP3 DUP7 ADD PUSH2 0xE7E JUMP JUMPDEST SWAP3 POP POP PUSH1 0x20 DUP4 ADD CALLDATALOAD PUSH8 0xFFFFFFFFFFFFFFFF DUP2 GT ISZERO PUSH2 0xF77 JUMPI PUSH1 0x0 DUP1 REVERT JUMPDEST PUSH2 0xF83 DUP6 DUP3 DUP7 ADD PUSH2 0xE7E JUMP JUMPDEST SWAP2 POP POP SWAP3 POP SWAP3 SWAP1 POP JUMP JUMPDEST PUSH1 0x0 PUSH1 0x20 DUP3 DUP5 SUB SLT ISZERO PUSH2 0xF9F JUMPI PUSH1 0x0 DUP1 REVERT JUMPDEST PUSH2 0x501 DUP3 PUSH2 0xBEC JUMP JUMPDEST PUSH4 0x4E487B71 PUSH1 0xE0 SHL PUSH1 0x0 MSTORE PUSH1 0x32 PUSH1 0x4 MSTORE PUSH1 0x24 PUSH1 0x0 REVERT JUMPDEST PUSH4 0x4E487B71 PUSH1 0xE0 SHL PUSH1 0x0 MSTORE PUSH1 0x11 PUSH1 0x4 MSTORE PUSH1 0x24 PUSH1 0x0 REVERT JUMPDEST DUP1 DUP3 ADD DUP1 DUP3 GT ISZERO PUSH2 0x504 JUMPI PUSH2 0x504 PUSH2 0xFBE JUMP JUMPDEST PUSH1 0x0 DUP4 MLOAD PUSH1 0x0 JUMPDEST DUP2 DUP2 LT ISZERO PUSH2 0x1008 JUMPI PUSH1 0x20 DUP2 DUP8 ADD DUP2 ADD MLOAD DUP6 DUP4 ADD MSTORE ADD PUSH2 0xFEE JUMP JUMPDEST POP PUSH1 0x0 SWAP1 DUP4 ADD SWAP1 DUP2 MSTORE PUSH1 0x9 DUP5 LT PUSH2 0x102F JUMPI PUSH4 0x4E487B71 PUSH1 0xE0 SHL PUSH1 0x0 MSTORE PUSH1 0x21 PUSH1 0x4 MSTORE PUSH1 0x24 PUSH1 0x0 REVERT JUMPDEST PUSH1 0xF8 SWAP4 SWAP1 SWAP4 SHL DUP4 MSTORE POP POP PUSH1 0x1 ADD SWAP2 SWAP1 POP JUMP JUMPDEST DUP2 DUP2 SUB DUP2 DUP2 GT ISZERO PUSH2 0x504 JUMPI PUSH2 0x504 PUSH2 0xFBE JUMP JUMPDEST PUSH4 0x4E487B71 PUSH1 0xE0 SHL PUSH1 0x0 MSTORE PUSH1 0x31 PUSH1 0x4 MSTORE PUSH1 0x24 PUSH1 0x0 REVERT INVALID LOG2 PUSH5 0x6970667358 0x22 SLT KECCAK256 SIGNEXTEND DUP14 ISZERO SELFDESTRUCT TLOAD DUP2 0xBE RETURN 0xEA 0xF6 SWAP14 PUSH13 0xC567CC05CC0859F9D8C9DF89A5 ADD MSTORE DUP11 SLOAD MUL SWAP4 SLOAD PUSH5 0x736F6C6343 STOP ADDMOD BYTE STOP CALLER "},"methodIdentifiers":{"addOrderStateInTransitionMapping(uint8,uint8)":"045e6413","debugGetOrderStates()":"9384c44d","getStateTransitionMap(uint8)":"a0d10e8d","removeOrderStateTransitionMapping(uint8,uint8)":"ca954c2a","stateTransitionMap(uint8,uint256)":"46081143","testAreSameNextStates(uint8[],uint8[])":"921e28e2","testComputeArrayHash(uint8[])":"6c38f2a1","testContainsOrderState(uint8[],uint8)":"647adb31","testRemoveOrderState(uint8[],uint256)":"6e8fd601","updateStateTransitionMapping(uint8,uint8[])":"56e73ea6"}}}}}