{
  "_format": "hh-sol-artifact-1",
  "contractName": "MinimalProxy",
  "sourceName": "contracts/proxy-patterns/minimal-proxy/CloneFactory.sol",
  "abi": [
    {
      "anonymous": false,
      "inputs": [
        {
          "indexed": false,
          "internalType": "address",
          "name": "newAddress",
          "type": "address"
        }
      ],
      "name": "Cloned",
      "type": "event"
    },
    {
      "inputs": [
        {
          "internalType": "address",
          "name": "target",
          "type": "address"
        }
      ],
      "name": "clone",
      "outputs": [
        {
          "internalType": "address",
          "name": "result",
          "type": "address"
        }
      ],
      "stateMutability": "nonpayable",
      "type": "function"
    }
  ],
  "bytecode": "0x6080604052348015600f57600080fd5b506101558061001f6000396000f3fe608060405234801561001057600080fd5b506004361061002b5760003560e01c80638124b78e14610030575b600080fd5b61004361003e3660046100ef565b61005f565b6040516001600160a01b03909116815260200160405180910390f35b6000808260601b9050604051733d602d80600a3d3981f3363d3d373d3d3d363d7360601b81528160148201526e5af43d82803e903d91602b57fd5bf360881b60288201526037816000f06040516001600160a01b03821681529093507f783540fb4221a3238720dc7038937d0d79982bcf895274aa6ad179f82cf0d53c915060200160405180910390a150919050565b60006020828403121561010157600080fd5b81356001600160a01b038116811461011857600080fd5b939250505056fea2646970667358221220273386aaa00df8f319f8b0b894a2b7a9ed267d7ae0bf647adde7d984ab37750264736f6c634300081a0033",
  "linkReferences": {},
  "deployedLinkReferences": {}
}