{
  "_format": "hh-sol-artifact-1",
  "contractName": "OrderAccounting",
  "sourceName": "contracts/008_using_structs.sol",
  "abi": [
    {
      "inputs": [],
      "stateMutability": "payable",
      "type": "constructor"
    },
    {
      "inputs": [
        {
          "internalType": "uint256",
          "name": "_userId",
          "type": "uint256"
        },
        {
          "components": [
            {
              "internalType": "uint256",
              "name": "orderNum",
              "type": "uint256"
            },
            {
              "components": [
                {
                  "internalType": "uint256",
                  "name": "itemId",
                  "type": "uint256"
                },
                {
                  "internalType": "string",
                  "name": "itemName",
                  "type": "string"
                },
                {
                  "internalType": "uint256",
                  "name": "price",
                  "type": "uint256"
                }
              ],
              "internalType": "struct OrderAccounting.Item[]",
              "name": "itemList",
              "type": "tuple[]"
            },
            {
              "internalType": "uint256",
              "name": "userId",
              "type": "uint256"
            },
            {
              "internalType": "uint256",
              "name": "resturantId",
              "type": "uint256"
            }
          ],
          "internalType": "struct OrderAccounting.FoodOrder",
          "name": "_foodOrder",
          "type": "tuple"
        }
      ],
      "name": "addNewOrder",
      "outputs": [
        {
          "components": [
            {
              "internalType": "uint256",
              "name": "orderNum",
              "type": "uint256"
            },
            {
              "components": [
                {
                  "internalType": "uint256",
                  "name": "itemId",
                  "type": "uint256"
                },
                {
                  "internalType": "string",
                  "name": "itemName",
                  "type": "string"
                },
                {
                  "internalType": "uint256",
                  "name": "price",
                  "type": "uint256"
                }
              ],
              "internalType": "struct OrderAccounting.Item[]",
              "name": "itemList",
              "type": "tuple[]"
            },
            {
              "internalType": "uint256",
              "name": "userId",
              "type": "uint256"
            },
            {
              "internalType": "uint256",
              "name": "resturantId",
              "type": "uint256"
            }
          ],
          "internalType": "struct OrderAccounting.FoodOrder",
          "name": "",
          "type": "tuple"
        }
      ],
      "stateMutability": "payable",
      "type": "function"
    },
    {
      "inputs": [
        {
          "internalType": "uint256",
          "name": "_userId",
          "type": "uint256"
        },
        {
          "internalType": "uint256",
          "name": "_orderNum",
          "type": "uint256"
        }
      ],
      "name": "getUserOrderInfo",
      "outputs": [
        {
          "components": [
            {
              "internalType": "uint256",
              "name": "orderNum",
              "type": "uint256"
            },
            {
              "components": [
                {
                  "internalType": "uint256",
                  "name": "itemId",
                  "type": "uint256"
                },
                {
                  "internalType": "string",
                  "name": "itemName",
                  "type": "string"
                },
                {
                  "internalType": "uint256",
                  "name": "price",
                  "type": "uint256"
                }
              ],
              "internalType": "struct OrderAccounting.Item[]",
              "name": "itemList",
              "type": "tuple[]"
            },
            {
              "internalType": "uint256",
              "name": "userId",
              "type": "uint256"
            },
            {
              "internalType": "uint256",
              "name": "resturantId",
              "type": "uint256"
            }
          ],
          "internalType": "struct OrderAccounting.FoodOrder",
          "name": "",
          "type": "tuple"
        }
      ],
      "stateMutability": "view",
      "type": "function"
    },
    {
      "inputs": [
        {
          "internalType": "uint256",
          "name": "",
          "type": "uint256"
        },
        {
          "internalType": "uint256",
          "name": "",
          "type": "uint256"
        }
      ],
      "name": "orderStatusMap",
      "outputs": [
        {
          "internalType": "enum OrderAccounting.OrderStatus",
          "name": "",
          "type": "uint8"
        }
      ],
      "stateMutability": "view",
      "type": "function"
    },
    {
      "inputs": [
        {
          "internalType": "uint256",
          "name": "",
          "type": "uint256"
        },
        {
          "internalType": "uint256",
          "name": "",
          "type": "uint256"
        }
      ],
      "name": "userFoodOrderMap",
      "outputs": [
        {
          "internalType": "uint256",
          "name": "orderNum",
          "type": "uint256"
        },
        {
          "internalType": "uint256",
          "name": "userId",
          "type": "uint256"
        },
        {
          "internalType": "uint256",
          "name": "resturantId",
          "type": "uint256"
        }
      ],
      "stateMutability": "view",
      "type": "function"
    },
    {
      "inputs": [
        {
          "internalType": "uint256",
          "name": "",
          "type": "uint256"
        }
      ],
      "name": "userLastOrderNumMap",
      "outputs": [
        {
          "internalType": "uint256",
          "name": "",
          "type": "uint256"
        }
      ],
      "stateMutability": "view",
      "type": "function"
    },
    {
      "stateMutability": "payable",
      "type": "receive"
    }
  ],
  "bytecode": "0x6080604052610eea806100136000396000f3fe60806040526004361061004e5760003560e01c806343de550f1461005a578063518ac95c146100be57806380ec1d9d14610106578063f258ee7614610133578063f7274fa31461016e57600080fd5b3661005557005b600080fd5b34801561006657600080fd5b5061009e6100753660046108e8565b600060208181529281526040808220909352908152208054600282015460039092015490919083565b604080519384526020840192909252908201526060015b60405180910390f35b3480156100ca57600080fd5b506100f96100d93660046108e8565b600260209081526000928352604080842090915290825290205460ff1681565b6040516100b59190610920565b34801561011257600080fd5b506101266101213660046108e8565b610181565b6040516100b5919061098e565b34801561013f57600080fd5b5061016061014e366004610a40565b60016020526000908152604090205481565b6040519081526020016100b5565b61012661017c366004610a59565b6102f1565b6101ac6040518060800160405280600081526020016060815260200160008152602001600081525090565b60008381526020818152604080832085845282528083208151608081018352815481526001820180548451818702810187019095528085529195929486810194939192919084015b828210156102cc57838290600052602060002090600302016040518060600160405290816000820154815260200160018201805461023190610aa7565b80601f016020809104026020016040519081016040528092919081815260200182805461025d90610aa7565b80156102aa5780601f1061027f576101008083540402835291602001916102aa565b820191906000526020600020905b81548152906001019060200180831161028d57829003601f168201915b50505050508152602001600282015481525050815260200190600101906101f4565b5050505081526020016002820154815260200160038201548152505090505b92915050565b61031c6040518060800160405280600081526020016060815260200160008152602001600081525090565b60006103278461063f565b905061033584826000610683565b60008061034a8361034587610b74565b6106c3565b9150915081341161039a5760405162461bcd60e51b81526020600482015260156024820152741d5cd95c881a5cc81cda1bdc9d081bdb88189a5b1b605a1b60448201526064015b60405180910390fd5b60008681526020818152604080832086845290915290206103bc90829061077b565b5060006103c98334610d31565b604051909150600090339083156108fc0290849084818181858888f193505050509050806104455760405162461bcd60e51b8152602060048201526024808201527f4661696c656420746f2073656e64206261636b2072656d61696e696e6720616d6044820152631bdd5b9d60e21b6064820152608401610391565b60008881526020818152604080832088845290915290206001015461046990610818565b604080518082018252600c81526b027b93232b910273ab69016160a51b60208083019190915260008b815280825283812089825290915291909120546104af9190610860565b604080518082018252600a81526902ab9b2b91024a21016160b51b60208083019190915260008b815280825283812089825290915291909120600201546104f69190610860565b60008881526020818152604080832088845282528083208151608081018352815481526001820180548451818702810187019095528085529195929486810194939192919084015b8282101561061657838290600052602060002090600302016040518060600160405290816000820154815260200160018201805461057b90610aa7565b80601f01602080910402602001604051908101604052809291908181526020018280546105a790610aa7565b80156105f45780601f106105c9576101008083540402835291602001916105f4565b820191906000526020600020905b8154815290600101906020018083116105d757829003601f168201915b505050505081526020016002820154815250508152602001906001019061053e565b505050508152602001600282015481526020016003820154815250509550505050505092915050565b60008181526001602081905260408220549061065c908290610d44565b60008481526001602081905260409091209190915561067c908290610d44565b9392505050565b60008381526002602090815260408083208584529091529020805482919060ff191660018360088111156106b9576106b961090a565b0217905550505050565b60006106f06040518060800160405280600081526020016060815260200160008152602001600081525090565b6000805b84602001515181101561076f57600061073286606001518760200151848151811061072157610721610d57565b6020026020010151600001516108a9565b9050808660200151838151811061074b5761074b610d57565b6020908102919091010151604001526107648184610d44565b9250506001016106f4565b50938352509192909150565b8151815560608201516003820155604082015160028201556000805b8360200151518110156108105782600101846020015182815181106107be576107be610d57565b60209081029190910181015182546001818101855560009485529383902082516003909202019081559181015190928201906107fa9082610dbc565b5060409190910151600290910155600101610797565b509092915050565b61085d8160405160240161082e91815260200190565b60408051601f198184030181529190526020810180516001600160e01b031663f82c50f160e01b1790526108c3565b50565b6108a58282604051602401610876929190610e7b565b60408051601f198184030181529190526020810180516001600160e01b0316632d839cb360e21b1790526108c3565b5050565b60006108b58284610e9d565b61067c90633b9aca00610e9d565b61085d8160006a636f6e736f6c652e6c6f679050600080835160208501845afa505050565b600080604083850312156108fb57600080fd5b50508035926020909101359150565b634e487b7160e01b600052602160045260246000fd5b602081016009831061094257634e487b7160e01b600052602160045260246000fd5b91905290565b6000815180845260005b8181101561096e57602081850181015186830182015201610952565b506000602082860101526020601f19601f83011685010191505092915050565b60208152600060a082018351602084015260208401516080604085015281815180845260c08601915060c08160051b870101935060208301925060005b81811015610a1e5760bf198786030183528351805186526020810151606060208801526109fb6060880182610948565b6040928301519790920196909652945060209384019392909201916001016109cb565b5050505060408401516060840152606084015160808401528091505092915050565b600060208284031215610a5257600080fd5b5035919050565b60008060408385031215610a6c57600080fd5b82359150602083013567ffffffffffffffff811115610a8a57600080fd5b830160808186031215610a9c57600080fd5b809150509250929050565b600181811c90821680610abb57607f821691505b602082108103610adb57634e487b7160e01b600052602260045260246000fd5b50919050565b634e487b7160e01b600052604160045260246000fd5b6040516080810167ffffffffffffffff81118282101715610b1a57610b1a610ae1565b60405290565b6040516060810167ffffffffffffffff81118282101715610b1a57610b1a610ae1565b604051601f8201601f1916810167ffffffffffffffff81118282101715610b6c57610b6c610ae1565b604052919050565b600060808236031215610b8657600080fd5b610b8e610af7565b82358152602083013567ffffffffffffffff811115610bac57600080fd5b830136601f820112610bbd57600080fd5b803567ffffffffffffffff811115610bd757610bd7610ae1565b8060051b610be760208201610b43565b91825260208184018101929081019036841115610c0357600080fd5b6020850192505b83831015610cf757823567ffffffffffffffff811115610c2957600080fd5b8501606036829003601f19011215610c4057600080fd5b610c48610b20565b60208201358152604082013567ffffffffffffffff811115610c6957600080fd5b602081840101905036601f820112610c8057600080fd5b803567ffffffffffffffff811115610c9a57610c9a610ae1565b610cad601f8201601f1916602001610b43565b818152366020838501011115610cc257600080fd5b816020840160208301376000602092820183015283820152606093909301356040830152508352928301929190910190610c0a565b60208601525050505060408381013590820152606092830135928101929092525090565b634e487b7160e01b600052601160045260246000fd5b818103818111156102eb576102eb610d1b565b808201808211156102eb576102eb610d1b565b634e487b7160e01b600052603260045260246000fd5b601f821115610db757806000526020600020601f840160051c81016020851015610d945750805b601f840160051c820191505b81811015610db45760008155600101610da0565b50505b505050565b815167ffffffffffffffff811115610dd657610dd6610ae1565b610dea81610de48454610aa7565b84610d6d565b6020601f821160018114610e1e5760008315610e065750848201515b600019600385901b1c1916600184901b178455610db4565b600084815260208120601f198516915b82811015610e4e5787850151825560209485019460019092019101610e2e565b5084821015610e6c5786840151600019600387901b60f8161c191681555b50505050600190811b01905550565b604081526000610e8e6040830185610948565b90508260208301529392505050565b80820281158282048414176102eb576102eb610d1b56fea2646970667358221220fe75c085d92f879b1153b9ca3913daaa83a2f0313f5d3f8fc7f393fdb7bb7f0964736f6c634300081a0033",
  "linkReferences": {},
  "deployedLinkReferences": {}
}