{
  "_format": "hh-sol-artifact-1",
  "contractName": "LearnEnums",
  "sourceName": "contracts/004_enums.sol",
  "abi": [
    {
      "inputs": [],
      "stateMutability": "nonpayable",
      "type": "constructor"
    },
    {
      "anonymous": false,
      "inputs": [
        {
          "indexed": true,
          "internalType": "address",
          "name": "user",
          "type": "address"
        },
        {
          "indexed": false,
          "internalType": "uint256",
          "name": "orderId",
          "type": "uint256"
        },
        {
          "indexed": false,
          "internalType": "enum LearnEnums.OrderState",
          "name": "newState",
          "type": "uint8"
        }
      ],
      "name": "OrderStateChanged",
      "type": "event"
    },
    {
      "inputs": [
        {
          "internalType": "enum LearnEnums.OrderState",
          "name": "currState",
          "type": "uint8"
        },
        {
          "internalType": "enum LearnEnums.OrderState",
          "name": "nextState",
          "type": "uint8"
        }
      ],
      "name": "addOrderStateInTransitionMapping",
      "outputs": [],
      "stateMutability": "nonpayable",
      "type": "function"
    },
    {
      "inputs": [],
      "name": "debugGetOrderStates",
      "outputs": [
        {
          "internalType": "enum LearnEnums.OrderState[]",
          "name": "",
          "type": "uint8[]"
        }
      ],
      "stateMutability": "view",
      "type": "function"
    },
    {
      "inputs": [
        {
          "internalType": "enum LearnEnums.OrderState",
          "name": "state",
          "type": "uint8"
        }
      ],
      "name": "getStateTransitionMap",
      "outputs": [
        {
          "internalType": "enum LearnEnums.OrderState[]",
          "name": "",
          "type": "uint8[]"
        }
      ],
      "stateMutability": "view",
      "type": "function"
    },
    {
      "inputs": [
        {
          "internalType": "enum LearnEnums.OrderState",
          "name": "currState",
          "type": "uint8"
        },
        {
          "internalType": "enum LearnEnums.OrderState",
          "name": "removableState",
          "type": "uint8"
        }
      ],
      "name": "removeOrderStateTransitionMapping",
      "outputs": [],
      "stateMutability": "nonpayable",
      "type": "function"
    },
    {
      "inputs": [
        {
          "internalType": "enum LearnEnums.OrderState",
          "name": "",
          "type": "uint8"
        },
        {
          "internalType": "uint256",
          "name": "",
          "type": "uint256"
        }
      ],
      "name": "stateTransitionMap",
      "outputs": [
        {
          "internalType": "enum LearnEnums.OrderState",
          "name": "",
          "type": "uint8"
        }
      ],
      "stateMutability": "view",
      "type": "function"
    },
    {
      "inputs": [
        {
          "internalType": "enum LearnEnums.OrderState",
          "name": "currState",
          "type": "uint8"
        },
        {
          "internalType": "enum LearnEnums.OrderState[]",
          "name": "nextStates",
          "type": "uint8[]"
        }
      ],
      "name": "updateStateTransitionMapping",
      "outputs": [],
      "stateMutability": "nonpayable",
      "type": "function"
    }
  ],
  "bytecode": "0x608060405234801561001057600080fd5b5060408051602080820190925260018082526000805291829052610056917fa6eef7e35abe7026729641147f7915573c7e97b47efa546f5f6e3230263bcb4991906101cc565b50604080516060810190915280600381526020016002815260200160069052600160008181526020810191909152604001600020610095916003610280565b50604080518082019091526003815260066020808301919091526002600081905260019091526100e6917fd9d16d34ffb15ba3a3d852f0d403e2ce1d691fb54de27ac87cd2f993f3ec330f916102f5565b5060408051602080820190925260048152600360005260019182905261012e917f7dfe757ecd65cbd7922a9c0161e935dd7fdbcc0e999689c7d31633896b1fc60b91906101cc565b50604080516020808201909252600581526004600052600191829052610176917fedc95719e9a3b28dd8e80877cb5880a9be7de1a13fc8b05e7999683b6b56764391906101cc565b50604080518082019091526008815260076020808301919091526006600052600190526101c6907f8f331abe73332f95a25873e8b430885974c0409691f89d643119a11623a7924a9060026102f5565b50610395565b82805482825590600052602060002090601f016020900481019282156102705791602002820160005b8382111561024157835183826101000a81548160ff021916908360088111156102205761022061037f565b021790555092602001926001016020816000010492830192600103026101f5565b801561026e5782816101000a81549060ff0219169055600101602081600001049283019260010302610241565b505b5061027c92915061036a565b5090565b82805482825590600052602060002090601f016020900481019282156102705791602002820160005b8382111561024157835183826101000a81548160ff021916908360088111156102d4576102d461037f565b021790555092602001926001016020816000010492830192600103026102a9565b82805482825590600052602060002090601f016020900481019282156102705791602002820160005b8382111561024157835183826101000a81548160ff021916908360088111156103495761034961037f565b0217905550926020019260010160208160000104928301926001030261031e565b5b8082111561027c576000815560010161036b565b634e487b7160e01b600052602160045260246000fd5b610ca9806103a46000396000f3fe608060405234801561001057600080fd5b50600436106100625760003560e01c8063045e641314610067578063460811431461007c57806356e73ea6146100a55780639384c44d146100b8578063a0d10e8d146100cd578063ca954c2a146100e0575b600080fd5b61007a610075366004610a03565b6100f3565b005b61008f61008a366004610a36565b61023a565b60405161009c9190610a98565b60405180910390f35b61007a6100b3366004610aa6565b61027d565b6100c06103bb565b60405161009c9190610b2e565b6100c06100db366004610b79565b610443565b61007a6100ee366004610a03565b610500565b60006101b26001600085600881111561010e5761010e610a60565b600881111561011f5761011f610a60565b81526020019081526020016000208054806020026020016040519081016040528092919081815260200182805480156101a757602002820191906000526020600020906000905b82829054906101000a900460ff16600881111561018557610185610a60565b8152602060019283018181049485019490930390920291018084116101665790505b505050505083610608565b9150508061023557600160008460088111156101d0576101d0610a60565b60088111156101e1576101e1610a60565b8152602080820192909252604001600090812080546001810182559082529082902091810490910180548492601f166101000a60ff8102199091169083600881111561022f5761022f610a60565b02179055505b505050565b6001602052816000526040600020818154811061025657600080fd5b9060005260206000209060209182820401919006915091509054906101000a900460ff1681565b61036d6001600085600881111561029657610296610a60565b60088111156102a7576102a7610a60565b815260200190815260200160002080548060200260200160405190810160405280929190818152602001828054801561032f57602002820191906000526020600020906000905b82829054906101000a900460ff16600881111561030d5761030d610a60565b8152602060019283018181049485019490930390920291018084116102ee5790505b505050505083838080602002602001604051908101604052809392919081815260200183836020028082843760009201919091525061067c92505050565b6102355781816001600086600881111561038957610389610a60565b600881111561039a5761039a610a60565b815260200190815260200160002091906103b5929190610916565b50505050565b6060600080548060200260200160405190810160405280929190818152602001828054801561043957602002820191906000526020600020906000905b82829054906101000a900460ff16600881111561041757610417610a60565b8152602060019283018181049485019490930390920291018084116103f85790505b5050505050905090565b60606001600083600881111561045b5761045b610a60565b600881111561046c5761046c610a60565b81526020019081526020016000208054806020026020016040519081016040528092919081815260200182805480156104f457602002820191906000526020600020906000905b82829054906101000a900460ff1660088111156104d2576104d2610a60565b8152602060019283018181049485019490930390920291018084116104b35790505b50505050509050919050565b6000806105c06001600086600881111561051c5761051c610a60565b600881111561052d5761052d610a60565b81526020019081526020016000208054806020026020016040519081016040528092919081815260200182805480156105b557602002820191906000526020600020906000905b82829054906101000a900460ff16600881111561059357610593610a60565b8152602060019283018181049485019490930390920291018084116105745790505b505050505084610608565b9150915080156103b5576103b5600160008660088111156105e3576105e3610a60565b60088111156105f4576105f4610a60565b8152602001908152602001600020836106b3565b60008060005b845181101561066c5783600881111561062957610629610a60565b85828151811061063b5761063b610b9b565b6020026020010151600881111561065457610654610a60565b0361066457915060019050610675565b60010161060e565b50600080915091505b9250929050565b8051825160009114806106935760009150506106ad565b600061069e846107bf565b6106a7866107bf565b14925050505b92915050565b815481106106f75760405162461bcd60e51b815260206004820152600d60248201526c092dcecc2d8d2c840d2dcc8caf609b1b604482015260640160405180910390fd5b8154829061070790600190610bc7565b8154811061071757610717610b9b565b90600052602060002090602091828204019190069054906101000a900460ff1682828154811061074957610749610b9b565b90600052602060002090602091828204019190066101000a81548160ff0219169083600881111561077c5761077c610a60565b02179055508180548061079157610791610bda565b60019003818190600052602060002090602091828204019190066101000a81549060ff021916905590555050565b6000806107ce60086001610bf0565b905060008167ffffffffffffffff8111156107eb576107eb610c03565b604051908082528060200260200182016040528015610814578160200160208202803683370190505b50905060005b845181101561088e57600085828151811061083757610837610b9b565b6020026020010151600881111561085057610850610a60565b9050838160ff161015610885576001838260ff168151811061087457610874610b9b565b911515602092830291909101909101525b5060010161081a565b50604080516020810190915260008082525b83811015610905578281815181106108ba576108ba610b9b565b6020026020010151156108fd57818160088111156108da576108da610a60565b6040516020016108eb929190610c19565b60405160208183030381529060405291505b6001016108a0565b508051602090910120949350505050565b82805482825590600052602060002090601f016020900481019282156109ca5791602002820160005b8382111561099b57833560088111801561095857600080fd5b5083826101000a81548160ff0219169083600881111561097a5761097a610a60565b0217905550926020019260010160208160000104928301926001030261093f565b80156109c85782816101000a81549060ff021916905560010160208160000104928301926001030261099b565b505b506109d69291506109da565b5090565b5b808211156109d657600081556001016109db565b8035600981106109fe57600080fd5b919050565b60008060408385031215610a1657600080fd5b610a1f836109ef565b9150610a2d602084016109ef565b90509250929050565b60008060408385031215610a4957600080fd5b610a52836109ef565b946020939093013593505050565b634e487b7160e01b600052602160045260246000fd5b60098110610a9457634e487b7160e01b600052602160045260246000fd5b9052565b602081016106ad8284610a76565b600080600060408486031215610abb57600080fd5b610ac4846109ef565b9250602084013567ffffffffffffffff811115610ae057600080fd5b8401601f81018613610af157600080fd5b803567ffffffffffffffff811115610b0857600080fd5b8660208260051b8401011115610b1d57600080fd5b939660209190910195509293505050565b602080825282518282018190526000918401906040840190835b81811015610b6e57610b5b838551610a76565b6020938401939290920191600101610b48565b509095945050505050565b600060208284031215610b8b57600080fd5b610b94826109ef565b9392505050565b634e487b7160e01b600052603260045260246000fd5b634e487b7160e01b600052601160045260246000fd5b818103818111156106ad576106ad610bb1565b634e487b7160e01b600052603160045260246000fd5b808201808211156106ad576106ad610bb1565b634e487b7160e01b600052604160045260246000fd5b6000835160005b81811015610c3a5760208187018101518583015201610c20565b50600090830190815260098410610c6157634e487b7160e01b600052602160045260246000fd5b60f89390931b8352505060010191905056fea2646970667358221220e26aac5a04be12c5072e922139439f4ffba472b3a099b8dc18a46722d030d93a64736f6c634300081a0033",
  "linkReferences": {},
  "deployedLinkReferences": {}
}