{
  "_format": "hh-sol-artifact-1",
  "contractName": "BuggyProxy",
  "sourceName": "contracts/proxy-patterns/eip1967_upgradable_proxy/BuggyProxy.sol",
  "abi": [
    {
      "inputs": [],
      "stateMutability": "nonpayable",
      "type": "constructor"
    },
    {
      "stateMutability": "nonpayable",
      "type": "fallback"
    },
    {
      "inputs": [],
      "name": "admin",
      "outputs": [
        {
          "internalType": "address",
          "name": "",
          "type": "address"
        }
      ],
      "stateMutability": "view",
      "type": "function"
    },
    {
      "inputs": [],
      "name": "counter",
      "outputs": [
        {
          "internalType": "uint256",
          "name": "",
          "type": "uint256"
        }
      ],
      "stateMutability": "view",
      "type": "function"
    },
    {
      "inputs": [],
      "name": "implementation",
      "outputs": [
        {
          "internalType": "address",
          "name": "",
          "type": "address"
        }
      ],
      "stateMutability": "view",
      "type": "function"
    },
    {
      "inputs": [
        {
          "internalType": "address",
          "name": "_implementation",
          "type": "address"
        }
      ],
      "name": "setImplementation",
      "outputs": [
        {
          "internalType": "address",
          "name": "",
          "type": "address"
        }
      ],
      "stateMutability": "nonpayable",
      "type": "function"
    }
  ],
  "bytecode": "0x6080604052348015600f57600080fd5b50600180546001600160a01b031916331790556102b7806100316000396000f3fe608060405234801561001057600080fd5b506004361061004c5760003560e01c80635c60da1b1461015e57806361bc221a1461018e578063d784d426146101a5578063f851a440146101b8575b6000805436906060906001600160a01b03166100a85760405162461bcd60e51b8152602060048201526016602482015275125b5c1b195b595b9d185d1a5bdb881b9bdd081cd95d60521b60448201526064015b60405180910390fd5b6000805460405182916001600160a01b0316906100c89087908790610241565b600060405180830381855af49150503d8060008114610103576040519150601f19603f3d011682016040523d82523d6000602084013e610108565b606091505b5091509150816101515760405162461bcd60e51b815260206004820152601460248201527311195b1959d85d194810d85b1b0811985a5b195960621b604482015260640161009f565b8051945060200192505050f35b600054610171906001600160a01b031681565b6040516001600160a01b0390911681526020015b60405180910390f35b61019760025481565b604051908152602001610185565b6101716101b3366004610251565b6101cb565b600154610171906001600160a01b031681565b6001546000906001600160a01b0316331461021d5760405162461bcd60e51b81526020600482015260126024820152712737ba1021b7b73a3930b1ba1027bbb732b960711b604482015260640161009f565b600080546001600160a01b0319166001600160a01b03939093169290921790915590565b8183823760009101908152919050565b60006020828403121561026357600080fd5b81356001600160a01b038116811461027a57600080fd5b939250505056fea26469706673582212201da670209b2b0651751da25d86a9768e03a9b92e767805653b059af670a8276e64736f6c634300081a0033",
  "linkReferences": {},
  "deployedLinkReferences": {}
}